:020000040800F2
:1000000028480020792E0008050200080702000891
:10001000090200080B0200080D02000800000000A1
:100020000000000000000000000000004501000882
:100030000F0200080000000089010008CB2C000816
:10004000932E0008932E0008932E0008932E00088C
:10005000932E0008932E0008932E0008932E00087C
:10006000932E0008932E0008932E0008932E00086C
:10007000932E0008932E0008932E0008932E00085C
:10008000932E0008932E0008932E0008932E00084C
:10009000932E0008932E0008932E0008932E00083C
:1000A000932E0008932E0008932E0008932E00082C
:1000B000932E0008932E0008932E0008932E00081C
:1000C000932E0008932E0008932E0008932E00080C
:1000D000932E0008932E0008932E00081538000870
:1000E000932E0008932E0008932E0008932E0008EC
:1000F000932E0008932E0008932E0008932E0008DC
:10010000932E0008932E0008932E0008932E0008CB
:10011000932E0008932E0008932E0008932E0008BB
:10012000932E0008932E0008932E0008932E0008AB
:10013000DFF80CD004F07AFF00480047DD0100082A
:1001400028480020224B19680868B0E8F00F80F3B7
:100150000988BFF36F8F4FF0000080F311884EF0D5
:100160000D0E70470000000006480068006880F32C
:10017000088862B661B6BFF34F8FBFF36F8F00DFA1
:1001800000BF00BF08ED00E0EFF30980BFF36F8F01
:100190000F4B1A6820E9F00F106008B54FF0BF0050
:1001A00080F31188BFF34F8FBFF36F8F01F0CFFD46
:1001B0004FF0000080F31188BDE808401968086816
:1001C000B0E8F00F80F30988BFF36F8F704700BF6E
:1001D00014000020EFF305807047000010B503F015
:1001E0004BFA02A005F0CAF9002010BD57656C63F8
:1001F0006F6D6520746F204672656552544F530DC4
:100200000A0000007047FEE7FEE7FEE7FEE77047E2
:100210002A4908432A490860704770B50F23C278FD
:1002200001260178002A1ED0254A126802F4E062F5
:10023000C2F5E062120AC2F10404D3404578A54039
:1002400082781A402A43120101F1E02181F800244A
:10025000007800F01F018E404009800000F1E0208E
:10026000C0F8006170BD01F01F00864048098000A1
:1002700000F1E020C0F8806170BD124A11400143D6
:100280000F48001F016070470D4A121D002903D05E
:100290001168014311607047116881431160704714
:1002A0004FF0E021042804D0086920F00400086120
:1002B0007047086940F00400086170470000FA05C3
:1002C0000CED00E080FFFF1F01684FF6FE72114049
:1002D00001600021016041608160C1607249724A21
:1002E0000839904204D1486840F00F0048607047D8
:1002F0006D4A1432904204D1486840F0F0004860E2
:100300007047694A2832904204D1486840F47060CE
:1003100048607047644A3C32904204D1486840F4D7
:10032000704048607047604A5032904204D148683B
:1003300040F47020486070475B4A6432904204D1B8
:10034000486840F4700048607047574A78329042DD
:1003500004D1486840F0706048607047534A111FEC
:10036000904204D1086840F00F00086070474F4A7F
:100370001432904204D1086840F0F00008607047E1
:100380004A4A2832904204D1086840F470600860FC
:100390007047464A3C32904204D1086840F47040AD
:1003A00008607047414A50329042FAD1086840F4E0
:1003B00070200860704730B5026847F6F0739A43C2
:1003C0000C6A8B682343D1E904452C4323438C6991
:1003D0002343CC6923434C6A23438C6A234313434E
:1003E0000360CA6842600A6882604968C16030BDC3
:1003F0000021016041608160C160016141618161F2
:10040000C1610162416281627047002904D00168C4
:1004100041F001010160704701684FF6FE72114022
:1004200001607047002A03D002680A4302607047E7
:1004300002688A430260704741607047406880B23A
:10044000704702460020D10003D5184908390968D1
:1004500002E0154908390968114200D001207047AF
:10046000C10003D51149091F086070470E490839BA
:100470004860704702460020D10003D50B49083977
:10048000096802E0084908390968114200D00120D2
:100490007047C10003D50549091F0860704702492C
:1004A0000839486070470000080002400804024014
:1004B00010B59C49884209D10121042000F07DFA41
:1004C0000021BDE81040042000F077BA9649884228
:1004D00009D10121082000F070FA0021BDE8104088
:1004E000082000F06ABA9149884209D10121102000
:1004F00000F063FA0021BDE81040102000F05DBA62
:100500008B49884209D10121202000F056FA0021B0
:10051000BDE81040202000F050BA8649884209D139
:100520000121402000F049FA0021BDE810404020A0
:1005300000F043BA8049884209D10121802000F0AF
:100540003CFA0021BDE81040802000F036BA7B491B
:1005500088420AD184150121204600F02EFA204657
:10056000BDE81040002100F028BA10BD10B50121EF
:10057000084600F022FA0021BDE81040012000F0FA
:100580001CBA2DE9F0410022CC7804F00F03E406F8
:1005900001D58C7823430C784FF00F0714F0FF0F30
:1005A0004FF0010C1CD005680CFA02F40E882640AE
:1005B000A64211D1960007FA06F825EA080503FAC3
:1005C00006F848EA0505CE78282E02D0482E02D03B
:1005D00002E0446100E00461521C082AE4D3056093
:1005E0000A88FF2A1ED94568002202F108060CFA83
:1005F00006F40E882640A64210D1960007FA06F8A7
:1006000025EA080503FA06F848EA0505CE78282EFB
:1006100000D14461CE78482E00D10461521C082AD2
:10062000E3D34560BDE8F0814FF6FF710180022100
:1006300081700421C17070470246002092680A420E
:1006400000D001207047806880B2704702460020C9
:10065000D2680A4200D001207047C06880B270475B
:100660000161704741617047002A01D00161704704
:1006700041617047C160704741F48032826181619D
:10068000826181698069704710B52D4B1A684FF6F9
:100690008074224042EA00100843186010BD2949C6
:1006A000C8617047F0B5264C002801DAE36900E024
:1006B0006368C0F30346420D120185B2C0F30157CF
:1006C0009540032F07D0C2020CD50322B2409343BA
:1006D00043F0706209E023F07062636823F0706396
:1006E000636002E0AB4343F0706201B12A4300282B
:1006F00001DAE261F0BD6260F0BD10B58A07120F49
:100700000F23934021F003040D4921448C689C433E
:100710008C608B68904003438B6010BD0949DC31CD
:100720000860704700080140000C014000100140C3
:100730000014014000180140001C0140002001404D
:100740000000014000002042B448016841F001016E
:1007500001604168B24A114041600168B14A1140EC
:100760000160016821F480210160416821F4FE01EB
:1007700041604FF41F0181607047A8490A6822F464
:1007800080320A600A6822F480220A60B0F5803F55
:1007900007D0B0F5802F03D1086840F4A02008608E
:1007A0007047086840F480300860704703460020B6
:1007B00059099A4A01290AD002290AD0516A03F03C
:1007C0001F02012393400B4200D0012070471168A3
:1007D000F5E7116AF3E718B5002000904FF4A06424
:1007E0003120FFF7E3FF0099491C00910099A142D5
:1007F00001D00028F4D03120FFF7D8FF08B1012044
:1008000018BD002018BD854A116821F0F80141EAA1
:10081000C000106070478449086070477F4B5A6879
:1008200022F47C1208431043586070477E490866E2
:1008300070477A4A516821F00301014351607047C3
:100840007648406800F00C007047744A516821F007
:10085000F001014351607047704A516821F4E06132
:100860000143516070476D4A516821F4605141EA7B
:10087000C00050607047694A002903D0517A014393
:1008800051727047517A8143517270476649D8312D
:1008900008607047614A516821F44041014351604A
:1008A00070475E49002220310A7001F82029012892
:1008B00005D0042802D1052081F8200070470120CE
:1008C00081F82000704759490860704753490A6A07
:1008D00002430A627047554944390860704710B5B1
:1008E0004E4A516801F00C01514B002927D00429D0
:1008F00027D0082927D00360516801F0F0010909C9
:100900004C4B5C5C0168E1404160546804F4E06475
:10091000240A1C5D21FA04F48460546804F46054D1
:10092000E40A1B5DD940C160526802F44042920B58
:10093000404B1B1F9A5CB1FBF2F1016110BD0360DB
:10094000DAE70360D8E7516801F47011536803F4E3
:100950008033022404EB914133B153689B0307D5E4
:10096000354B59430160C7E7334B59430160C3E737
:100970002F4B59430160BFE7284A002903D0516932
:100980000143516170475169814351617047234A66
:10099000002903D0916901439161704791698143B6
:1009A000916170471D4A002903D0D1690143D1618B
:1009B0007047D1698143D1617047184A002903D03B
:1009C000D1680143D1607047D1688143D1607047DD
:1009D000124A002903D0116901431161704711695E
:1009E00081431161704711494039086070470E49D1
:1009F000C86470470949C87170470848416A41F0A6
:100A000080714162704701460020044A92680A42A0
:100A100000D00120704701498872704700100240E1
:100A20000000FFF8FFFFF6FE000042428004424251
:100A300000127A000400002000093D0010B5E149D1
:100A400088420AD101218C032046FFF7B6FF2046D9
:100A5000BDE810400021FFF7B0BFDB4988420AD152
:100A600001214C042046FFF7B3FF2046BDE81040AB
:100A70000021FFF7ADBFD54988420AD101218C047E
:100A80002046FFF7A5FF2046BDE810400021FFF7F4
:100A90009FBFCF4988420AD10121CC042046FFF7ED
:100AA00097FF2046BDE810400021FFF791BFC949DC
:100AB00088420AD101210C052046FFF789FF204614
:100AC000BDE810400021FFF783BF10BD30B585B0F1
:100AD00004460D46208A4CF6FF710840E988014320
:100AE0002182A0894EF6F3110840A9882A89114372
:100AF0006A8902431143A181A08A4FF6FF41084051
:100B0000A9890143A1826846FFF7E9FEAD48844206
:100B100001D1039800E00298A189090408D500EBEF
:100B2000C00101EB001029684900B0FBF1F007E0BB
:100B300000EBC00101EB001029688900B0FBF1F067
:100B40006422B0FBF2F109010B096FF018056B4349
:100B500000EB8300A3891D044FF0320307D503EB9C
:100B6000C000B0FBF2F000F00700084306E003EB22
:100B70000010B0FBF2F000F00F000843208105B038
:100B800030BD4FF41651016000218180C180018188
:100B90000C2242818181704710B5038A4FF2FF0217
:100BA00013400A884C8822438C88C9880C4322430E
:100BB0001A43028210BD0021018041808180C180E2
:100BC0007047002904D0818941F400518181704728
:100BD000818921F400518181704710B540F66A1374
:100BE000C1F3421301F01F040121A140012B07D0E2
:100BF000022B07D014303AB102680A43026010BDDC
:100C00000C30F8E71030F6E702688A43026010BD46
:100C1000002A03D0828A0A4382827047828A8A43EA
:100C200082827047028A22F00F020282028A0A43FD
:100C300002827047828922F40062828182890A439B
:100C400082817047002904D0818941F002018181AD
:100C50007047818921F0020181817047028A22F068
:100C600020020282028A0A4302827047002904D0CD
:100C7000018A41F4804101827047018A21F4804158
:100C800001827047C1F30801818070478088C0F3FA
:100C900008007047818941F0010181817047028B12
:100CA000D2B20283028B42EA012101837047028B98
:100CB00002F47F420283028B0A43028370470029B9
:100CC00004D0818A41F0200181827047818A21F01D
:100CD000200181827047002904D0818A41F01001EF
:100CE00081827047818A21F010018182704700293A
:100CF00004D0818A41F0080181827047818A21F005
:100D0000080181827047002904D0818941F40041A3
:100D1000818170478189C1F30E018181704700296B
:100D200004D0818A41F4006181827047818A21F474
:100D3000006181827047828A22F004028282828A64
:100D40000A4382827047002904D0818A41F002015F
:100D500081827047818A21F00201818270470246B8
:100D6000002012880A4200D0012070478A05C9433A
:100D70000180704770B5002440F66A12C1F3421337
:100D800001F01F05012606FA05F2012B0CD0022BFB
:100D90000DD0838A1340090A8E40008830400BB181
:100DA00000B10124204670BD83891340F3E7038A14
:100DB0001340F0E740F66A120A0A01219140C94344
:100DC0000180704700380140004400400048004066
:100DD000004C00400050004000F1080141604FF01D
:100DE000FF328260C1600161002101607047002113
:100DF0000161704742684A6093688B6093685960EC
:100E0000916008610168491C0160704730B50C6849
:100E1000621C02D000F1080202E0026904E01A46F6
:100E200053681D68A542FAD953684B6099608A607F
:100E3000516008610168491C016030BD0169D0E959
:100E400001329A60D0E901235A604A68824201D196
:100E500082684A60002202610868401E08600868D3
:100E6000704700002DE9F04104460F460125002C93
:100E70003BD0E26BC2B3AE1EB6FBF2F1206C8142F6
:100E800033D301F00DFFD4E90F20216802FB0011DC
:100E9000A1600021A16321686160E06B2268216C80
:100EA000401E00FB0121E16084F8446084F8456045
:100EB00004F1100047B1FFF78FFF04F12400FFF7A2
:100EC0008BFF01F0F9FE11E021690029F9D001F052
:100ED000F7F80028F5D0FF494FF080500860BFF3C5
:100EE0004F8FBFF36F8FECE7FFE700252846BDE883
:100EF000F08103460098002904D00260C3630164B6
:100F00000121AFE70060F9E7F8B505460E46174640
:100F10000024002D16D0601EB0FBF5F0B04211D3B6
:100F200005FB06F010F1490F0CD8483001F04EFDDA
:100F300004463CB1224648323B463146284600949E
:100F4000FFF7D7FF2046F8BD2DE9F041044601F038
:100F5000A7FE94F9455004F1240609E0606A48B1FF
:100F6000304601F0ADF808B101F094F96D1E6DB294
:100F7000002DF3DC4FF0FF3684F8456001F09CFE55
:100F800001F08EFE94F9445004F1100709E0206945
:100F900048B1384601F094F808B101F07BF96D1EB4
:100FA0006DB2002DF3DC84F84460BDE8F04101F03F
:100FB00083BE10B5044601F073FEA06BE16B88425E
:100FC00001D1012400E0002401F076FE204610BD8E
:100FD0002DE9F041044617460026A56B226C002A35
:100FE00010D0C7B1E06803F0FDFAE168206C091A7F
:100FF000E1602268914202D2A168081AE060022FE3
:1010000016D017E02068A8B9A06801F0ADF906462F
:101010000020A0600EE0606803F0E4FA216C6068D4
:1010200008446060A168884204D32068606001E0E1
:1010300005B16D1E6D1CA563304658E72DE9FF47CD
:1010400082B004468A4699460025A8464FF080564D
:10105000A04F01F025FEA06BE16B884206D3B9F1E9
:10106000020F03D00498F8B115B325E04A46514663
:101070002046FFF7ADFF616A51B104F1240001F091
:101080001FF858B13E60BFF34F8FBFF36F8F05E07D
:1010900020B13E60BFF34F8FBFF36F8F01F00CFEA6
:1010A000012006B0BDE8F08701F006FE0020F8E759
:1010B000684601F0C0F8012501F0FEFD00F07DFD5D
:1010C00001F0EEFD94F94400401C01D184F8448005
:1010D00094F94500401C01D184F8458001F0ECFDF5
:1010E00004A9684601F0ADF830B12046FFF72CFFA7
:1010F00000F098FC0020D4E72046FFF75AFF88B1A3
:1011000004F11000049900F0B2FF2046FFF71CFF25
:1011100000F088FC00289CD13E60BFF34F8FBFF3E6
:101120006F8F96E72046FFF70FFF00F07BFC90E7FC
:10113000002807D0002181600160C16000231A46A9
:1011400019467BE7704710B5024600210120FFF7E2
:10115000DBFE04462046FFF7EBFF204610BD10B52E
:1011600003460C460020002B09D09C4207D80222DF
:1011700000211846FFF7C8FE002800D0846310BD88
:101180002DE9F041174604461A46BF20EFF31186B9
:1011900080F31188BFF34F8FBFF36F8FA06BE36BAA
:1011A000984205D3022A03D0002086F311889EE6D8
:1011B00094F94550A06B2046FFF70AFF681C08D041
:1011C00000F03DFF854202D26D1C84F8455001209D
:1011D000EBE7606A0028FAD004F1240000F070FF09
:1011E0000028F4D0002FF2D001203860EFE72DE97D
:1011F000F04104460F46BF20EFF3118680F31188BB
:10120000BFF34F8FBFF36F8FA26BE06B90421CD97F
:1012100094F94550521CA263681C08D000F00FFFDF
:10122000854202D26D1C84F8455001200EE0606AB0
:101230000028FAD004F1240000F042FF0028F4D086
:10124000002FF2D001203860EFE7002086F31188EC
:101250004DE610B5044601F023FDA06B20B100243B
:1012600001F02AFD204610BD0124F9E730B40B46F9
:10127000026C002A0CD0C1681144C1608468A1428C
:1012800001D30168C160C16830BC184603F0AAB937
:1012900030BC70472DE9F74783B004468A460026E4
:1012A00000274FF08058DFF82C9001F0F9FCA56B77
:1012B000D5B151462046FFF7D9FF6D1EA5632069C1
:1012C00070B104F1100000F0FBFE48B1C9F80080D5
:1012D00002E0000004ED00E0BFF34F8FBFF36F8F1B
:1012E00001F0EAFC0120DCE6059808B126B107E030
:1012F00001F0E2FC0020D4E601A800F09CFF0126EA
:1013000001F0DAFC00F059FC01F0CAFC94F9440049
:10131000401C01D184F8447094F94500401C01D16F
:1013200084F8457001F0C8FC05A901A800F089FF08
:1013300058B12046FFF708FE00F074FB2046FFF787
:1013400088FF0028B1D00020ABE62046FFF781FFE0
:1013500090B104F12400059900F089FE2046FFF7C2
:10136000F3FD00F05FFB00289FD1C9F80080BFF3B8
:101370004F8FBFF36F8F98E72046FFF7E5FD00F032
:1013800051FB92E7416A002904D0006B0068C0F16C
:1013900005007047002070472DE9F34383B00446F1
:1013A0000025A94600264FF08057DFF8E08201F0C3
:1013B00077FCA06BC8B1401EA063206810B901F093
:1013C00069F8A060206950B104F1100000F078FEC7
:1013D00028B1C8F80070BFF34F8FBFF36F8F01F0D3
:1013E0006BFC012005B0BDE8F083049808B125B17D
:1013F00007E001F061FC0020F4E701A800F01BFF0A
:10140000012501F059FC00F0D8FB01F049FC94F9EA
:101410004400401C01D184F8446094F94500401C0C
:1014200001D184F8456001F047FC04A901A800F04F
:1014300008FFC8B12046FFF787FD00F0F3FA204609
:10144000FFF707FF0028B2D0B9F1000F0AD001F072
:1014500027FC2046FFF796FF0146A06800F0C6FF74
:1014600001F02AFC0020BDE72046FFF7F2FEE0B1C4
:10147000206838B901F014FCA06800F012FF814622
:1014800001F01AFC04F12400049900F0F0FD20465C
:10149000FFF75AFD00F0C6FA002888D1C8F800709E
:1014A000BFF34F8FBFF36F8F81E72046FFF74CFDEF
:1014B00000F0B8FA7BE72DE9F74382B0044689468D
:1014C000002500264FF08057DFF8C08101F0E8FBCF
:1014D000A06BB0B1E56849462046FFF7C7FEE5605E
:1014E000606A50B104F1240000F0EAFD28B1C8F8A8
:1014F0000070BFF34F8FBFF36F8F01F0DDFB012052
:1015000070E7049808B125B107E001F0D5FB002091
:1015100068E7684600F08FFE012501F0CDFB00F082
:101520004CFB01F0BDFB94F94400401C01D184F850
:10153000446094F94500401C01D184F8456001F0F5
:10154000BBFB04A9684600F07CFE58B12046FFF7BB
:10155000FBFC00F067FA2046FFF77BFE0028B5D0C1
:1015600000203FE72046FFF774FE90B104F124000D
:10157000049900F07CFD2046FFF7E6FC00F052FAEB
:101580000028A3D1C8F80070BFF34F8FBFF36F8F4F
:101590009CE72046FFF7D8FC00F044FA96E72DE9D7
:1015A000F04104469046BF20EFF3118780F3118885
:1015B000BFF34F8FBFF36F8FA66B002E21D094F92E
:1015C00044502046FFF752FE761EA663681C08D0E2
:1015D00000F035FD854202D26D1C84F84450012094
:1015E00010E020690028FAD004F1100000F068FD36
:1015F0000028F4D0B8F1000FF1D00120C8F80000A5
:10160000EDE7002087F3118871E470B50446BF2030
:10161000EFF3118580F31188BFF34F8FBFF36F8F06
:10162000A06B002806D0E6682046FFF71FFEE660A4
:10163000012000E0002085F3118870BD10B504463C
:1016400001F02EFBA46B01F037FB204610BD10B556
:10165000044601F025FBD4E90E10441A01F02CFBDE
:10166000204610BD806B704701F0FDB9806B0028EB
:1016700001D00020704701207047816BC06B814210
:1016800001D10120704700207047000004ED00E008
:1016900070B50024FE4D04EB840005EB8000FFF7DD
:1016A0009BFB641C052CF6D3F9486430FFF794FBD0
:1016B000F7487830FFF790FBF5488C30FFF78CFB4C
:1016C000F348A030FFF788FBF148B430FFF784FB04
:1016D000EF49F048643181631431C16370BD70B566
:1016E000044601F0DDFAEB4DA868401CA8602868AC
:1016F00010B1686938B10CE02C60A868012808D1E5
:10170000FFF7C6FF05E02868E16AC06A884200D892
:101710002C60686A401C6862E06A01212A69814085
:1017200011432961DA4A00EB800002EB8000406837
:10173000A0608168E1608368211D59608160E06A72
:1017400000EB800002EB8001616152F82010491C1F
:1017500042F8201001F0B0FA686900280CD028681F
:10176000E16AC06A884207D2CB494FF080500860D6
:10177000BFF34F8FBFF36F8F70BD2DE9F0478146E8
:10178000DDE908560A9C9846521E206B00EB820049
:1017900020F0070700290CD0002023180A5C83F8EA
:1017A00034200A5C12B1401C1028F6D3002084F8C3
:1017B0004300052D00D30425E5626564201DFFF775
:1017C00016FB04F11800FFF712FB2461C5F10500B8
:1017D000A061646242464946384601F037FA20600B
:1017E000002E00D03460BDE8F0872DE9FF5F814610
:1017F000DDE90E788A4616469B46B00001F0E6F811
:10180000054628000ED0542001F0E0F804462CB123
:101810005421204602F0FFFE256304E0284601F033
:1018200022F900E000248CB10020CDE90240CDE98E
:1018300000785B46324651464846FFF79EFF2046F9
:10184000FFF74DFF012004B0BDE8F09F4FF0FF30DF
:10185000F9E710B50446206B01F005F92046BDE814
:10186000104001F000B98B48816B0968002904D051
:10187000816BC9680968816270474FF0FF318162EE
:10188000704770B5044601F00BFA824D04B92C681C
:10189000201DFFF7D3FA58B9E06A7D4A00EB8001BA
:1018A00052F8211021B9012181402869884328611B
:1018B000A06A18B104F11800FFF7C0FA686A401C6A
:1018C00068622868844208D17148211DA030FFF762
:1018D00091FA6868401C686004E0A868401EA8602F
:1018E000FFF7C1FF01F0E8F92868844202D02046E2
:1018F000FFF7AFFF686900280AD02868844207D143
:1019000065494FF080500860BFF34F8FBFF36F8F72
:1019100070BD2DE9F04100255E4E706B002805D0AA
:10192000B069401CB0612846BDE8F081F468641CD1
:10193000F46044B9B06BF16BB163F063306A401C82
:101940003062FFF790FFB06A514F84420FD34FF0DF
:10195000000CB06B006838B1B06BC068C1684868F3
:10196000844212D2B06202E04FF0FF30B0623068C1
:10197000C06A00EB800057F82000012800D901253B
:10198000F0690028CFD00125CDE74A69D1E90230BE
:101990009860D1E90203586050680B1D984201D14C
:1019A000C8685060C1F814C01068401E10608A6A90
:1019B0009AB1D1E90780C8F80800D1E90708C8F84A
:1019C0000400506801F11808404501D1086A5060D0
:1019D000C1F828C01068401E1060C86A0122D6F8FD
:1019E0001080824042EA0802326100EB800007EB7F
:1019F000800042688A609068C86090684360936025
:101A0000C86A00EB800007EB80024A6157F820208B
:101A1000521C47F82020C86A3168C96A884298D9A0
:101A2000012596E72DE9F0410024A04601F038F9A0
:101A3000184D686B401E6863686B002878D1A868F1
:101A4000002875D0124A00278C32012654E0D06855
:101A5000C468A16AD4E907309860D4E907035860E4
:101A60004B6804F11800834201D1206A4860A762E4
:101A70000868401E08606169D4E902309860D4E9C2
:101A8000020358604B68201D834208D1E36805E0DB
:101A9000DC0000201400002004ED00E04B606761D2
:101AA0000B685B1E0B60E16AD5F810C006FA01F303
:101AB00043EA0C032B61FF4B01EB810103EB810136
:101AC0004968A160D1F808C0C4F80CC0D1F808C0BA
:101AD000CCF804008860E06A00EB800003EB800132
:101AE000616153F82010491C43F82010E06A29680E
:101AF000C96A884200D3EE6110680028A7D10CB1F2
:101B0000FFF7B1FEAC693CB1FFF703FF00B1EE6136
:101B1000641E002CF8D1AF61E86948B14FF00108AC
:101B2000E5494FF080500860BFF34F8FBFF36F8FD0
:101B300001F0C2F84046F7E62DE9F04104460F46B1
:101B4000DE4DEE682868001DFFF778F938B928687F
:101B500090F82C1001208840296981432961601C7C
:101B600015D1A7B1D349B43148682A68906082681A
:101B70002B68DA602A688368121D5A602A68121D71
:101B80008260286841610868401C0860CCE63444E3
:101B900028684460B44206D22968E86B091DBDE894
:101BA000F041FFF733B92968A86B091DFFF72EF93B
:101BB000A86A8442EAD2AC62B6E6C048416B491CCE
:101BC0004163704770B503460D460024FFF7F5FFEB
:101BD000BA48C26818684119904205D9884208D9A4
:101BE000914206D9012404E0884201D8914200D9EB
:101BF000012419601CB1881A0021FFF79DFFFFF72F
:101C000011FF38B9AC494FF080500860BFF34F8FD7
:101C1000BFF36F8F204670BD10B502460020002A2A
:101C200007D0FFF7CAFF00211046FFF785FFFFF737
:101C3000F9FE002807D1A0494FF080500860BFF39B
:101C40004F8FBFF36F8F10BD10B5044601F028F819
:101C50000CB99A480468E46A01F02EF8204610BDD9
:101C6000BF22EFF3118182F31188BFF34F8FBFF3CF
:101C70006F8F002801D191480068C06A81F31188F4
:101C800070472DE9F04104460D460026052D00D38E
:101C9000042501F005F8894F04B93C68606CA8423E
:101CA00051D0854208D939688C4209D03968C96A4F
:101CB000A94205D8012603E039688C4200D10126EB
:101CC000D4F82C80404500D1E5626564A069002805
:101CD00002DBC5F10500A061764D08EB8801606963
:101CE00005EB8101884225D1201DFFF7A7F80121CE
:101CF00020B93A6901FA08F082433A61E06A3A6928
:101D000081401143396100EB800005EB80004068A1
:101D1000A0608168E1608268211D51608160E06A95
:101D200000EB800005EB8001616155F82010491C33
:101D300045F820103EB160494FF080500860BFF375
:101D40004F8FBFF36F8FBDE8F04100F0B5BF5B4A26
:101D5000506B002802D00120D06170470020D06174
:101D60001069B0FA80F0C0F11F00524900EB80000A
:101D700001EB800041684968416000F10803994225
:101D800001D1496841604068C0681060704770B513
:101D9000044600F085FF494D04B92C68201DFFF76B
:101DA0004DF858B9E06A434A00EB800152F821101F
:101DB00021B901218140286988432861A06A18B1AE
:101DC00004F11800FFF73AF83A48211DB430FFF744
:101DD00011F800200026211891F85020012A01D185
:101DE00081F85060401C0128F5DB00F065FF686950
:101DF00028B100F055FFFFF736FD00F05DFF2868C1
:101E0000844209D1686940B12B494FF08050086085
:101E1000BFF34F8FBFF36F8F70BD2648B43000689B
:101E2000A968884201D12E6070BDBDE870408EE780
:101E30000021204B4269B4339A4206D1806AA3F153
:101E40002802904201D000B901210846704770B5C0
:101E500004461A4D2868844244D0002C42D000F039
:101E60001FFF2046FFF7E4FF50B3201DFEF7E6FFFB
:101E7000E06A01212A698140114329610D4A00EB82
:101E8000800002EB80004068A0608168E1608368A8
:101E9000211D59608160E06A00EB800002EB800048
:101EA0006061E06A00EB800052F82010491C42F8A3
:101EB000201006E0DC00002004ED00E0140000200B
:101EC0000CE0E06A2968C96A884207D3FF494FF0ED
:101ED00080500860BFF34F8FBFF36F8FBDE8704035
:101EE00000F0EABE70BD2DE9F04104460026BF2097
:101EF000EFF3118580F31188BFF34F8FBFF36F8F1E
:101F00002046FFF795FF38B1F14F786B40B104F1EF
:101F10001801F048FEF76EFF85F31188304603E59F
:101F2000E06A39684FF00108C96A884202D3012685
:101F3000C7F81C80201DFEF781FFE06A396908FAA6
:101F400000F848EA0108C7F81080E24A00EB800078
:101F50008C3A02EB80004068A0608168E160836891
:101F6000211D59608160E06A00EB800002EB800077
:101F70006061E06A00EB800052F82010491C42F8D2
:101F80002010C9E770B5D34ED14D143611E000F0E2
:101F900087FEF068C468201DFEF750FFA868401E49
:101FA000A8606868401E686000F086FE2046FFF763
:101FB00050FC68680028EAD170BDC64E4FF08054CE
:101FC0008C3EC24DFFF7DEFF30680128FAD92C6045
:101FD000BFF34F8FBFF36F8FF4E77CB5BC4800258C
:101FE0002C30CDE900502B468022BBA1BC48FFF726
:101FF000FCFBB74C01280ED1BF2080F31188BFF342
:102000004F8FBFF36F8F4FF0FF30A06201206061F0
:10201000E56000F031FE206B7CBDBF2080F31188AD
:10202000BFF34F8FBFF36F8FA9490020486100F0C5
:1020300036BEA748C0687047A548C0687047A44826
:1020400080687047002801D1A1480068343070478B
:1020500010B50446FFF7B1FD00F022FE9C498A69E5
:102060001019886100F028FEBDE81040DAE410B5D0
:102070000C46974909681831FEF7C8FE2046BDE8AE
:102080001040012158E530B4034641F0004090492A
:102090000C68A06158680C68E06184680D682C6267
:1020A0000C68856818346C600C68183484600868A3
:1020B00083621868401C186030BC012110463BE563
:1020C00070B5C068C068816AD0E907329A60D0E90B
:1020D00007235A604B6800F11802934201D1036A4A
:1020E0004B60002585620B685B1E0B60784B596B5B
:1020F000012499B1774D6968C1618E6806628E6866
:1021000072608A6085622968491C2960C06A196802
:10211000C96A884232D90120DC6170BD4169D0E9C9
:102120000262B260D0E9022672604E68021D9642D9
:1021300001D1C6684E6045610D686D1E0D60C16AB3
:102140001E6904FA01F535431D61624D01EB810101
:102150008C3D05EB8101496881608E68C6608E68A0
:1021600072608A60C16A01EB810105EB8102426104
:1021700055F82120521C45F82120C7E7002070BDEA
:1021800070B541F000410160C1680269D0E90143C6
:10219000A360D0E9013463605368834201D183684E
:1021A0005360002303611068401E10604869D1E944
:1021B0000242A260D1E90224626044680A1D94428E
:1021C00001D1CC6844604B6103685B1E0360404CE6
:1021D000C86A0126236906FA00F51D4325613D4BB7
:1021E00000EB80008C3B03EB8000406888608568D2
:1021F000CD6085686A608260C86A00EB800003EB8E
:1022000080024A6153F82020521C43F82020C86AFB
:102210002168C96A884200D9E66170BD10B50446DC
:1022200000F03EFD2A48016A2160C0686060BDE898
:10223000104000F041BD26490A6A0260C968416049
:1022400070472DE9F04106460D4600F029FD204873
:10225000C36874681A1B29684F1C0AD03768D0F805
:1022600020C00020674506D09C4204D80124286085
:102270000CE000240AE0914206D9881A2860304612
:10228000FFF7D9FF002401E02860012400F014FDCD
:10229000204650E40E490120C86170470C48006890
:1022A000704770B504460020002C55D0084DE16AF7
:1022B0002A68D26A914250D2A069002804DB2868BB
:1022C000C06AC0F10500A061E06A0BE004ED00E027
:1022D000140000206801002049444C450000000023
:1022E000BB1F0008FF4E00EB8000616906EB800019
:1022F00081422DD1201DFEF7A1FD012130B994F8B6
:102300002C002A6901FA00F082432A612868C06A19
:10231000E0622A6981401143296100EB800006EBED
:1023200080004068A0608168E1608268211D516082
:102330008160E06A00EB800006EB80006061E06A8B
:1023400000EB800056F82010491C46F8201002E0EF
:102350002868C06AE062012070BD616C2A68D26A98
:102360009142F9D2012070BD10B504460020002C26
:102370003BD0A16C491EA164636CE26A9A4234D0DE
:10238000002932D1201DFEF759FDD749012230B96D
:1023900094F82C000B6902FA00F083430B61606C27
:1023A000E062C0F10500A061E06A0B6982401A4357
:1023B0000A61CC4A00EB800002EB80004068A0601C
:1023C0008168E1608368211D59608160E06A00EBEB
:1023D000800002EB80006061E06A00EB800052F850
:1023E0002010491C42F82010012010BD70B5044691
:1023F000002844D0606C884200D30146E06A8842DD
:102400003DD0A26C012A3AD1E162A269002A02DB26
:10241000C1F10501A161B34D00EB8000616905EBDD
:10242000800081422BD1201DFEF708FDAE4901221C
:1024300030B994F82C000B6902FA00F083430B6169
:10244000E06A0B6982401A430A6100EB800005EBE9
:1024500080004068A0608168E1608268211D516051
:102460008160E06A00EB800005EB80006061E06A5B
:1024700000EB800055F82010491C45F8201070BD75
:102480009949086880690A680968D26AC2F1050238
:102490008A61704794490868002803D00868826CF4
:1024A000521C8264086870472DE9F04104460F46CB
:1024B000154600F0F5FB8C4E306800EB8400C06CD4
:1024C00088B931680120214481F850005DB10121B3
:1024D0002846FFF731FB85494FF080500860BFF375
:1024E0004F8FBFF36F8F00F0E7FB00F0D9FB306830
:1024F00000EB8400C56C002055B127B1316801EBB9
:102500008401C86404E03268691E02EB8402D1646D
:102510003168214481F8500000F0CEFB2846FEE4EB
:102520002DE9F0470446884617461D46DDF8209001
:1025300000F0B6FB6C4E3068204490F85000022842
:102540001AD0306800EB8400C16C21EA0801C16434
:1025500031680120214481F85000B9F1000F0BD0FF
:1025600001214846FFF7E8FA60494FF080500860C3
:10257000BFF34F8FBFF36F8F00F09EFB00F090FB17
:1025800025B1306800EB8400C06C286030682044BE
:1025900090F85000022801D0002506E0306800EBDA
:1025A0008400C16CB943C164012531680020214415
:1025B00081F8500000F080FB2846BDE8F0872DE947
:1025C000F0470446DDF82090884615461F46012650
:1025D00000F066FB04EB8800B9F1000F02D0C16C7B
:1025E000C9F8001004EB080212F8501F0223137000
:1025F000052F13D2DFE807F01203070B0D00C26CA2
:102600002A43C2640AE0C26C521CC26406E0C5647C
:1026100004E0022901D0C56400E0002601293FD171
:102620006069D4E902219160D4E9021251604268E4
:10263000211D8A4201D1E268426000226261026883
:10264000521E0260284BE06A01221D6982402A4323
:102650001A61244A00EB800002EB80004068A06011
:102660008568E560856869608160E06A00EB8000EC
:1026700002EB80006061E06A00EB800052F82010FD
:10268000491C42F82010E06A1968C96A884207D9D3
:1026900016494FF080500860BFF34F8FBFF36F8F24
:1026A00000F00AFB304688E72DE9F041DDE906C776
:1026B0000125BF24EFF3118684F31188BFF34F8FF8
:1026C000BFF36F8F00EB8104BCF1000F03D0D4F88F
:1026D0004C80CCF8008000EB010C9CF850104FF0BF
:1026E000020805E0DC0000201400002004ED00E0FA
:1026F0008CF85080052B13D2DFE803F01203070B90
:102700000D00E36C1343E3640AE0E26C521CE264E4
:1027100006E0E26404E0022901D0E26400E0002562
:10272000012920D1844B596B012401B3DFF80CC27D
:10273000DCF80410C1618A680262D1F8088000F1F7
:102740001802C8F804208A60C0F828C0DCF800101D
:10275000491CCCF80010C06A1968C96A884202D9BD
:1027600007B13C60DC6186F31188284691E5416938
:10277000D0E902C2CCF80820D0E9022CCCF8042021
:10278000D1F804C0021D944503D1D0F80CC0C1F8A3
:1027900004C04FF0000CC0F814C0D1F800C0ACF178
:1027A000010CC1F800C0C16AD3F8108004FA01FC22
:1027B0004CEA080CC3F810C0DFF880C101EB8101BE
:1027C000ACF18C0C0CEB810149688160D1F8088078
:1027D000C0F80C80D1F80880C8F804208A60C16A6B
:1027E00001EB81010CEB81014161C16A01EB8101C7
:1027F0005CF82120521C4CF82120ACE7F0B5BF2337
:10280000EFF3118483F31188BFF34F8FBFF36F8F02
:10281000431813F8505F02261E7000EB8101CB6C49
:102820005B1CCB64012D1BD1434D696B0126D1B1DB
:10283000424F7968C1618B680362D1F808C000F12A
:102840001803CCF804308B6087623968491C396002
:10285000C06A2968C96A884202D902B11660EE616D
:1028600084F31188F0BD4169D0E90273BB60D0E9FF
:1028700002377B604F68031D9F4201D1C7684F60DC
:10288000002747610F687F1E0F60C16AD5F810C02E
:1028900006FA01F747EA0C072F61284F01EB810187
:1028A0008C3F07EB810149688160D1F808C0C0F80E
:1028B0000CC0D1F808C0CCF804308B60C16A01EBC1
:1028C000810107EB81014161C16A01EB810157F888
:1028D00021305B1C47F82130BAE770B50D4600285F
:1028E0000CD0044600F0DCF9601990F85010022971
:1028F00007D0002400F0E0F9204670BD0E480468BF
:10290000F0E7002180F850100124F3E770B50D4680
:10291000164600280CD0044600F0C2F904EB8501ED
:10292000CC6CC86CB043C86400F0C6F9204670BDDA
:1029300001480468F0E7000014000020680100204E
:1029400030B5BB4900E011460A688242FBD34B68B0
:102950005C18844203D140681844486008460D68FA
:1029600044682318AB420DD1B14B143B1B689A420B
:1029700006D05268224442600A681268026002E08F
:10298000036000E00260814200D0086030BD4FF477
:102990007051A848420706D0C01D20F00700A54985
:1029A000411AC1F57051A24B186000225A600144CF
:1029B000083921F00701143B19604A600A600A1ABD
:1029C0004260016040689860586070472DE9F041AE
:1029D00005460026FFF7F1F8954F143F386808B90F
:1029E000FFF7D5FF4DB105F00700C0F11000C1435E
:1029F0008D4201D8054400E00025002D2EDD7868C9
:102A000085422BD88A490846046801E021460446DD
:102A10006068A84202D220680028F7D13868844252
:102A20001CD00E680836206808606068411B1029B9
:102A300004D9601941606560FFF782FF61687868BA
:102A4000401A7860BA68904200D2B86041F0004005
:102A5000606000202060F868401CF860FEF7E2FF2C
:102A60003046BDE8F08170B500281CD00838044617
:102A70006068002817DA2168002914D120F000408E
:102A80006060FFF79AF86A4D6068143D6968084411
:102A900068602046FFF754FF2869401C2861BDE8A4
:102AA0007040FEF7BFBF70BD614814384068704782
:102AB0005F48143880687047704770B5002400285C
:102AC00004D0621EB2FBF0F28A4209D348430546A5
:102AD000FFF77CFF04461CB12946204601F09BFD10
:102AE000204670BD2DE9F04107460D460024FFF752
:102AF00064F8DFF83C81A8F11408D8F8000008B9A0
:102B0000FFF745FF002D59DB680704D005F00700EB
:102B1000C0F108000544EDB3D8F8040085424DD853
:102B200057B1A7F10806736823F0004C0CEB0602BE
:102B30003F490846046809E02846FFF747FF044676
:102B4000FEF770FF20468CE721460446944202D0EF
:102B500020680028F8D16068A8421FD9401B1028BF
:102B60001CD994421AD15819706060196268521BBE
:102B7000426022680A60FFF7E3FE002020603C46C6
:102B8000D8F80400401BC8F80400D8F808108842A0
:102B900014D200E012E0C8F808000FE00CEB0500CA
:102BA0000838FFF713FF044623487268394602408D
:102BB000204601F017FD3846FFF755FFFEF732FFBC
:102BC00020464EE72DE9F04705464FF00008002665
:102BD000771EFEF7F2FF16480168A0F1140971B1E3
:102BE000D9F8000009E008F101084C68B44200D9A6
:102BF0002646BC4200D2274609688142F3D1FEF73F
:102C000011FF6E60AF60C5F80C8000F049F8D9F88C
:102C100004002860D9F80C006861D9F81000A86198
:102C2000D9F808002861BDE8F04700F045B8000079
:102C300068000020A4010020F7FFFF7FBF2080F381
:102C40001188BFF34F8FBFF36F8FFEE720384FF02F
:102C50008073C36121F0010181612649416140F81F
:102C6000202970474FF0E020002101618161224955
:102C7000416107210161704710B52048016841F4A6
:102C80007F010160016841F07F410160FFF7EAFFC9
:102C90001B4900200860FDF767FA002010BD70474F
:102CA000BF2080F31188BFF34F8FBFF36F8F14489D
:102CB0000168491C0160704711490868401E08609E
:102CC000002801D180F31188704710B5BF2080F330
:102CD0001188BFF34F8FBFF36F8FFEF71AFE20B13D
:102CE00006494FF080501C390860002080F311889D
:102CF00010BD00003D2C00083F19010020ED00E050
:102D0000700000200CB50022019200925248016828
:102D100041F4803101604FF4A063016801F4003197
:102D200000910199491C0191009911B901999942A9
:102D3000F3D10168890302D50121009100E00092DE
:102D40000099012930D145490A6842F010020A6011
:102D50000A6822F003020A600A6842F002020A606E
:102D60004168416041684160416841F4806141606F
:102D7000416821F47C114160416841F4E8114160EF
:102D8000016841F08071016001688901FCD54168EA
:102D900021F003014160416841F002014160416856
:102DA000C1F381010229FAD10CBDABE710B52A4865
:102DB000016841F0010101604168294A1140416008
:102DC0000168284A11400160016821F480210160F6
:102DD000416821F4FE0141604FF41F018160FFF75B
:102DE000E4FF21494FF00060086010BD10B51A4A99
:102DF000506800F00C011D4B1D4800290ED004291D
:102E00000ED008290ED003605168194AC1F303118E
:102E1000121D515C0268CA40026010BD0360F3E7F6
:102E20000360F1E7516801F47011536803F48033D3
:102E3000022404EB914133B153689B0307D50D4B3A
:102E400059430160E0E70B4B59430160DCE7074B56
:102E500059430160D8E70000001002400020024002
:102E60000000FFF8FFFFF6FE08ED00E000127A0018
:102E70007400002000093D000648804706480047CE
:102E8000FEE7FEE7FEE7FEE7FEE7FEE7FEE7FEE71A
:102E9000FEE7FEE7AD2D000831010008002180F8B3
:102EA000C91080F8C810C82101F0B5BB002808D0AF
:102EB000C83041780078814201D10120704700205C
:102EC00070470020704700280ED010F8C81F491C1A
:102ED000C822B1FBF2F302FB13114078884201D102
:102EE00001207047002070470020704770B50446ED
:102EF0000D46002C10D02046FFF7E5FF01280BD02F
:102F000094F8C800255414F8C80F401CC821B0FB21
:102F1000F1F201FB1200207070BD70B505460C4641
:102F2000002C13D02046FFF7C1FF01280ED094F8E3
:102F3000C900205C287014F8C90F401CC821B0FBE0
:102F4000F1F201FB12002070012070BD002070BD65
:102F50002DE9F04105460E46174618210120FFF7DE
:102F6000ACFD04466CB129460120FFF7A6FD2060A8
:102F700048B1656026730020607367612046BDE834
:102F8000F0810020FBE72046FFF76DFD0020F6E70B
:102F900010B50446002C03D0206808B1FFF763FD8C
:102FA000002C04D02046BDE81040FFF75CBD10BDEA
:102FB0002DE9F04106460F4635680124002E04D065
:102FC000707BB84201DB002F0BDC0020D7E7A74263
:102FD00001D12846D3E7284601F046FB05446D1C85
:102FE000641C707BA042F2DA0020C8E70FB410B571
:102FF000FFF7DEFF30B105AA049901F059FB10BCC0
:103000005DF814FB4FF0FF30F9E72DE9F047044677
:103010000E4615464FF0FF37002C01D0002006E089
:10302000FCA002F0ABFA3846BDE8F087401CA8428D
:10303000FCDB206B48B34FEAC0084046FFF7C6FCF4
:1030400081465FEA09002FD04246616B01F0CAFA5F
:1030500008F10801606BFFF745FD606330B342463D
:10306000494601F0BFFAD4E90C10042202EBC10179
:103070004650D4E90C1040F83150206B401C2063BE
:103080004846FFF7F0FC0020CEE708210120FFF7BB
:1030900014FD606330B14660606B0560206B401CBE
:1030A0002063F0E73846BFE73846BDE74846FFF7FC
:1030B000DAFC3846B8E710B50C46DEA1204601F030
:1030C000B5FA20B1BDE81040DBA002F057BADDA18F
:1030D000204601F0ABFA002804D0BDE81040DBA088
:1030E00002F04CBA10BD2DE9F0470746786B002876
:1030F00005D0D7F82490D7F82880002632E0D6A053
:1031000002F03CFA00208FE7002525E000EBC60026
:1031100005EB4501406800EB8104206801F0A4FA4A
:103120008246606801F0A0FA02460AEB02004045C0
:1031300011DCBAF1000F06D052464846216801F072
:10314000A7FAA0B107E092B109EB0800801A616804
:1031500001F09EFA58B16D1C786B50F83610A942F8
:10316000D4DC761C386BB042CEDC00205CE7204615
:103170005AE7002801D000F0EBB90120704770B584
:1031800004460D46206A00F0FAFC002808D101230D
:103190002A4600212046FFF7ECFF0128F2D100204B
:1031A00070BD2DE9F84304460025A846CDF80080FF
:1031B00000260027E16A606A01F02DFAC4F8288031
:1031C0004FF0FF394A4669462046FFF7D8FFE06ACC
:1031D000A84207DD626A28469DF800106D1C115454
:1031E000A56200E001279DF800000A2801D10D2EFC
:1031F00007D0217A09B1814203D02046FFF773FF3F
:1032000080B16FB19848E16A02F0B8F9E16A606A8A
:1032100001F001FAC4F828806FF00200BDE8F883DD
:103220002846FBE79DF80060CCE704464FF4D372D4
:103230008E498FA002F0A2F900262046FFF7B1FFC9
:103240000028FADD2046FFF74EFF38B18368002BD7
:10325000F3D0D4E9091220469847EEE7E568EDB3CC
:10326000D4E90901084400F8016CA868A26A6B68F7
:10327000811899420CDA29680844616A01F0B2F9B0
:10328000A868A16A0844A860687B401C687305E0D0
:10329000FD2020747C48696802F070F9022265A163
:1032A000606A01F0E8F908B9287B28B165A1606A75
:1032B00001F0BCF9B0B901E026740CE0042273A15E
:1032C000606A01F0D8F968B1697B287B8142B4D18A
:1032D0000028B2D02674E660606900E005E000F0E6
:1032E00056FCAAE7FF202074F5E7D4E9092169A07C
:1032F00002F044F9A1E770B5044600256572A562A5
:103300000120E16AFFF7D9FB6062E06900F0FCFB95
:1033100000221421206A00F029FC00221421606997
:1033200000F024FC6563256370BD10B50446E262BD
:103330002046FFF7E0FF0120607210BD70B5044623
:103340000D46002C23D005B32560CA20FFF73EFBB5
:1033500060600420FFF73AFBE0610420FFF736FBD2
:1033600020620420FFF732FB60616068FFF796FD82
:103370004FF4007229462046FFF7D7FF03224B493E
:103380002046FFF742FE012070BD002070BD0020E6
:1033900070BD10B50446002C14D06068FFF763FBC5
:1033A000E06900F0DDFB606900F0F7FB206A00F0E7
:1033B000F4FB3821204601F02EF92046FFF753FB9D
:1033C000012010BD002010BD2DE9F04704460D4638
:1033D000914600264FF0FF38002C7FD04146E0692F
:1033E00000F09FFB00272774E5600DB1AF606F739D
:1033F000484601F039F90146484600F0A5F8022197
:103400002BA000F0A1F81DB1207C08B1494651E085
:1034100054E063E061745F6F626A5F7365745F7547
:1034200072635F7461626C65206973204552524F0C
:10343000520D0A004F4B0000757263204F4B0D0A6E
:10344000000000004552524F520000007572632088
:103450004552524F520D0A00757263206973204E17
:10346000554C4C0D0A000000DC5A0008225A000896
:1034700046756E634E616D653A257320204C696E0A
:10348000653A25640A000000885A00084641494C04
:1034900000000000756E7265636F676E697A65641F
:1034A000206C696E653A20252E2A73008800002062
:1034B0000D0A00001CA002F061F8464645B169699A
:1034C000606900F061FB012802D06FF001062674EC
:1034D000E760E06900F02CFB3046A5E54046A3E537
:1034E0009AB000244FF0FF38002701AE301905468E
:1034F000414600F02BF874B16F70AFF2C80101A81B
:1035000001F094F828B1AFF2CC0002F037F80024B3
:1035100002E0641C00E00124642C00DB0024032092
:10352000FEF77AFBE2E70000657865637574652055
:10353000636F6D6D616E642028252E2A73292066C5
:1035400061696C656421000000F057B900F08AB928
:1035500000F098B9A0B04FF47A720021C820FFF7AC
:10356000F7FC0446002C2ED04DA002F007F850A224
:1035700021465248FFF728FF8021684601F04BF8AA
:103580004FA553A001F0FAFF6B462A4601212046C1
:10359000FFF72CFD012807D1694652A001F0EEFF8C
:1035A0008021684601F037F86B462A460221204602
:1035B000FFF71CFD012803D169464FA001F0DEFF93
:1035C0002046FFF7E5FC0320FEF726FBFBE71CB5D2
:1035D0004E480121CDE9001000234FF4FA724CA1AE
:1035E000AFF28F00FEF701F9012804D0BDE81C40BE
:1035F0004AA001F0C3BFBDE81C4051A001F0BEBF0E
:103600001CB542480121001DCDE900108A022B4B58
:1036100053A15748FEF7E9F8012804D0BDE81C4043
:1036200054A001F0ABBFBDE81C405CA001F0A6BFF8
:1036300010B5FFF735FB4FF4E134204600F044F9B4
:10364000204600F096F94FF4FA70FEF7E5FAFFF71E
:1036500033FBFFF725FB5AA11848FFF76FFEFFF772
:10366000CFFFFFF7B4FF2948001F0068FEF709F9F4
:10367000BDE81040FFF720BB1CB524480121001F06
:10368000CDE9001000238A0251A1AFF25B00FEF7E2
:10369000ACF8012803D1BDE81C40FEF79EBC1CBD60
:1036A0007265737020646174613A0D0A0000000055
:1036B00041542B434946535200000000A43D0020D2
:1036C000252A5B5E225D22255B5E225D22000000D2
:1036D00020506172736520617267756D656E7473D9
:1036E0000000000053746174696F6E2049502020FF
:1036F0003A2025730000000053746174696F6E20D6
:103700004D4143203A20257300000000B000002006
:103710007461736B5F74657374000000646F5F6342
:1037200072656174655F746573745F7461736B2037
:103730006973206E6F74206372656174650D0A0091
:10374000646F5F6372656174655F746573745F74E1
:1037500061736B206973206372656174650D0A0083
:10376000636C69656E745F706172736572000000EE
:103770002B320008646F5F6372656174655F70610E
:103780007273655F7461736B206973206E6F742050
:103790006372656174650D0A00000000646F5F6309
:1037A00072656174655F70617273655F7461736B7C
:1037B000206973206372656174650D0A0000000062
:1037C000455350383236365F64657669636500006C
:1037D0007461736B5F7374617274000070B5054639
:1037E000354C80212046FDF7BAFA0028F9D0294649
:1037F0002046BDE87040FDF745BA70B505460E4657
:10380000002404E0285DFFF7E9FF641CA4B2B44281
:10381000F8D370BD2DE9F041274D40F225563146D1
:103820002846FDF7A7FA01281AD12846FDF72EFAF7
:10383000224C234AE1680F6811684B1C13607854CE
:103840002846FDF723FAC1B21E48FFF74FFB314669
:103850002846FDF7AFFA206ABDE8F04100F0A3B9B1
:10386000BDE8F08170B505460E46144C03E03146C4
:10387000E06900F056F928466168FFF74EFB012821
:10388000F5D170BD2DE9F04104460F4615461E46A0
:10389000002D06D0A06900F0E7FEB04203DA002058
:1038A000DEE70020DCE7A0693246C119284600F0B7
:1038B000CFFE0120D4E7000000480040A43D0020D6
:1038C000B8000020DC3D002070B586B00446012120
:1038D0008803FDF75CF801210420FDF758F8182152
:1038E0008DF817104FF40071ADF8141003258DF802
:1038F00016507F4E05A93046FCF743FE48218DF84F
:1039000017103115ADF814108DF8165005A9304672
:10391000FCF737FE01940020ADF810000C21ADF843
:103920000E10ADF80C00ADF80A00ADF80800714CAF
:10393000012240F225512046FDF74FF901A920460A
:10394000FDF7C4F825218DF8001001218DF8031032
:103950008DF801108DF802106846FCF75EFC01211D
:103960002046FDF72EF94FF4A060FCF751FC06B09D
:1039700070BD70B586B0044601218804FDF712F8C9
:1039800001210820FDF703F818218DF817104FF4D6
:103990008061ADF8141003258DF81650564E05A918
:1039A0003046FCF7EEFD48218DF81710F114ADF804
:1039B00014108DF8165005A93046FCF7E2FD01946D
:1039C0000020ADF810000C21ADF80E10ADF80C0081
:1039D000ADF80A00ADF80800484C012240F225512C
:1039E0002046FDF7FAF801A92046FDF76FF82721D8
:1039F0008DF8001001218DF803108DF801100221BF
:103A00008DF802106846FCF708FC01212046FDF7FE
:103A1000D8F84FF4A060FCF7FBFB3948FFF73EFAFB
:103A2000A5E770B58CB004460D4616460121084640
:103A3000FCF7A2FF019402950496002003900B90DE
:103A4000089080210691202109910790402005903F
:103A50004FF440500A902B4C01A92046FCF7ABFCD8
:103A6000012206212046FCF7DDFC6015FCF7F8FC7E
:103A70002015FCF7F5FC01212046FCF7C6FC0CB034
:103A800070BDF0B58BB004460D4616461D4F143F71
:103A90003846FCF719FC00213846FCF7B6FC0094C8
:103AA000019510200290039600210491802005903A
:103AB000069107910891840109940A916946384654
:103AC000FCF779FC01220A213846FCF7ABFC2046C2
:103AD000FCF7C6FC01213846FCF797FC0BB0F0BDA3
:103AE00010B50446E1B2002000F00BFB204610BDEB
:103AF0000008014000380140000C0140004800402F
:103B0000A63E00203000024010B504460120FDF71B
:103B10001AFB2060002010BD00684FF0FF31FDF758
:103B20003BBC0068FDF738BC00680021FDF734BCE1
:103B3000002300681A461946FDF780BA10B50068E0
:103B40002249FDF754FB2148006838B120494FF065
:103B500080500860BFF34F8FBFF36F8F012010BDFF
:103B600010B50068FDF780FD002010BD10B50446BB
:103B700008461146FDF7F3FA2060002010BD0068EA
:103B80004FF0FF31FDF708BC0068FDF705BC0023CE
:103B900000681A461946FDF751BA10B50068FDF7DE
:103BA00063FD002010BD10B508490068091DFDF730
:103BB0001EFB0648406838B105494FF08050086048
:103BC000BFF34F8FBFF36F8F012010BDBC000020EB
:103BD00004ED00E010B5F84CA821204600F01BFDD4
:103BE000032020616061F5A0A06104F1A800E061FC
:103BF0004FF4806020620020A0626062E062EFA16A
:103C0000216604F5956161661021A1662067E06672
:103C10006067ED49C0F10F028A5C2254401C1028F5
:103C2000F8D310BD2DE9F0470546894617464FF0F9
:103C30000008EC682869A04202D9061B761E03E042
:103C4000A968201A0E1A761EA868001BB04200D878
:103C50000646BE4200D33E46686820443246494686
:103C600000F0C0FCB044B144BF1B3444A868A0427B
:103C700000D10024EC60002FDCD14046BDE8F08785
:103C80002DE9F041044688461646E768A068C51B42
:103C9000E1686068B542084407D93246414600F001
:103CA000A1FCB819E060BDE8F0812A46414600F069
:103CB00099FC761B606808EB0501324600F092FC27
:103CC000E660F0E708B5FF228DF80020BF4A515C9E
:103CD0008DF8011002226946FFF7A4FF08BD0169B3
:103CE000C268914204D88068801A0844401E704718
:103CF000881A401E70472DE9F0470446884616464C
:103D0000AD4A1178002901D1FFF764FFAA4904EBFD
:103D1000440001EBC00518352C69D5F80C9000273C
:103D20004C4511D9A868071BB74200D337466868CD
:103D300001193A46404600F055FCB844F61B3C4495
:103D4000A868A04200D10024A9EB0400B04200D230
:103D500006463EB1686801193246404600F042FC12
:103D60003744344407B12C61384687E72DE9F047E2
:103D7000044688461646904A1178002901D1FFF77B
:103D800029FF8D4904EB440001EBC00560352C6927
:103D9000D5F80C9000274C4511D9A868071BB742ED
:103DA00000D33746686801193A46404600F01AFCCD
:103DB000B844F61B3C44A868A04200D10024A9EBFB
:103DC0000400B04200D206463EB16868011932468E
:103DD000404600F007FC3744344407B12C613846B4
:103DE0004CE710B5EFF31184202383F31188FFF71C
:103DF00082FFE1B281F3118810BD10B5EFF3118499
:103E0000202383F31188FFF7B1FFE1B281F311881A
:103E100010BD2DE9F0410F461546674900EB400003
:103E200001EBC0041834D4E90301884202D1A06830
:103E3000401E0BE02169884203D22169081A401E06
:103E400004E02169081AA168401E084485420BD984
:103E50002169281A08442061A06802E02169091A32
:103E6000216121698142F9D2D4E90201461A4FF059
:103E70000008AE420AD9E168606808442A4639461B
:103E800000F0B0FBE0682844E0600CE7E16860689F
:103E900008443246394600F0A5FB3744C4F80C808C
:103EA000AD1BA668761E002DE3D1FCE62DE9F0419E
:103EB00088461646404900EB400001EBC004183428
:103EC0002069E568A84223D8A168491B0F46491E0E
:103ED000B14209D3606828443246414600F082FB73
:103EE000A819E0600120DEE60844B04214D36068FF
:103EF00028443A46414600F075FBF51B2DB1606839
:103F000008EB07012A4600F06DFBE5600120CAE6D8
:103F1000401B401EB042DDD20020C4E670B50E4604
:103F20001446254900EB400001EBC0056035686987
:103F3000002806D0012811D002281BD000242046DA
:103F400070BD2846FFF7CBFEA04201D20024F6E761
:103F5000224631462846FFF793FEF0E72846FFF752
:103F6000BEFEA04200D20446224631462846FFF754
:103F700087FEE4E7224631462846FFF753FE044613
:103F8000DDE770B50E4614460B4900EB400001EB2F
:103F9000C00518356869002806D001281ED00228FF
:103FA00028D00024204670BD2846FFF798FEA04286
:103FB0000ED20024F6E70000703F00205465726DB9
:103FC000696E616C00000000305A0008C5000020D6
:103FD000224631462846FFF753FEE3E72846FFF71F
:103FE0007EFEA04200D20446224631462846FFF714
:103FF00047FED7E7224631462846FFF713FE044620
:10400000D0E72DE9F04105460E461746FB4B1878E0
:10401000002801D1FFF7DEFDEFF31184202080F3AB
:1040200011883A4631462846FFF778FFE1B281F31E
:10403000118838E62DE9F04105460E461746EF4B4C
:104040001878002801D1FFF7C5FDEFF31184202077
:1040500080F311883A4631462846FFF792FFE1B2D5
:1040600081F311881FE670B505460C46204600F026
:10407000FBFA024621462846BDE87040DAE710B553
:10408000DE4A00EB400002EBC0001830C268134665
:10409000521C8468944200D100220469944205D0E5
:1040A000446823441970C260012010BD002010BD77
:1040B00070B504460D46D1490878002801D1FFF7B4
:1040C00089FDEFF31183202080F31188CB4904EBA5
:1040D000440001EBC0001830C2681146521C8468CD
:1040E000944200D100220469944205D044680C44F3
:1040F0002570C260012000E00020D9B281F3118850
:1041000070BD70B504460D46BC490878002801D141
:10411000FFF760FDEFF31181202080F31188B74A8B
:1041200004EB440002EBC0001830C2681446521C75
:104130008368934200D100224369022B02D10369B4
:104140009342FCD00369934205D0436823441D7019
:10415000C260012000E00020C9B281F3118870BD67
:1041600008B5012269460020FFF747FE012802D06A
:104170004FF0FF3008BD9DF8000008BD10B5FFF7F7
:10418000EFFF0028FBDB10BD10B59C48007800282D
:1041900001D1FFF71FFD9948016FC06E884201D021
:1041A000012010BD002010BD944900EB400001EB40
:1041B000C000C16E006F081A7047904900EB4000C4
:1041C00001EBC000816A406A401A70472DE9F04156
:1041D00080460D4616461F4688480078002801D1C3
:1041E000FFF7F8FCEFF31181202080F31188834C56
:1041F000002000EB400204EBC202526E1AB1401CD8
:1042000062698242F5DC626982420CDD00EB4002A9
:1042100004EBC204C4F860806566A66600222267CB
:10422000E266676701E04FF0FF30C9B281F31188A1
:1042300039E52DE9F04180460D4616461F466F4888
:104240000078002801D1FFF7C5FCEFF31181202091
:1042500080F31188694C002000EB400204EBC2029D
:10426000D2691AB1401C22698242F5DC226982427D
:104270000CDD00EB400204EBC204C4F81880E561D9
:1042800026620022A2626262E76201E04FF0FF3024
:10429000C9B281F3118806E52DE9F0470546DDF83E
:1042A00020900E461746984654480078002801D1C1
:1042B000FFF790FC5149032D18D2EFF31180202213
:1042C00082F3118805EB450201EBC204183435B1C5
:1042D00026606760C4F8088000212161E160C4F8AD
:1042E0001490C0B280F311880020C7E44FF0FF3073
:1042F000C4E42DE9F0470546DDF820900E46174648
:1043000098463E480078002801D1FFF763FC3B49FE
:10431000032D18D2EFF31180202282F3118805EBD0
:10432000450201EBC204603435B126606760C4F811
:10433000088000212161E160C4F81490C0B280F3CC
:10434000118800209AE44FF0FF3097E470B50446DE
:104350000D462A480078002801D1FFF73BFC27488A
:10436000032C0ED2EFF31182202181F3118804EB8C
:10437000440100EBC1008561D0B280F311880020B8
:1043800070BD4FF0FF3070BD70B504460D461B4840
:104390000078002801D1FFF71DFC1848032C0ED22D
:1043A000EFF31182202181F3118804EB440100EB2B
:1043B000C1000566D0B280F31188002070BD4FF0B7
:1043C000FF3070BD70B504460D460C4800780028DB
:1043D00001D1FFF7FFFB0948032C11D2EFF3118243
:1043E000202181F3118804EB440100EBC100C56278
:1043F000D0B280F31188002070BD0000703F002013
:104400004FF0FF30F8E770B504460D46734800786A
:10441000002801D1FFF7DEFB7048032C0ED2EFF32A
:104420001182202181F3118804EB440100EBC100CB
:104430004567D0B280F311880020DDE74FF0FF30F0
:10444000DAE7FFF7C7BB2DE9F84304466348007875
:10445000002801D1FFF7BEFB0025FF208DF80000EA
:104460004FF0FF38102C2DD25D48005D8DF8010013
:104470005A4E1836EFF31187202080F31188307DD3
:10448000DFF85C9100F00300A9F1010902280CD0CB
:104490003046FFF724FC02280FD389F8004002229F
:1044A00069463046FFF7ECFB08E089F8004002223D
:1044B00069463046FFF7B6FB00E04546F8B280F3A8
:1044C000118800E045462846BDE8F8832DE9F05FF5
:1044D00082468B4641480078002801D1FFF77AFBDD
:1044E0004FF0FF36BAF1100F5CD2DFF8F08008F120
:1044F0001808584600F0B8F80546EFF31189202057
:1045000080F311884046FFF7EAFB044698F8140050
:10451000334F10F00300A7F1010709D001281BD089
:10452000022830D0344609F0FF0080F311883AE0C9
:10453000281D844201D20024F5E751464046FFF78A
:10454000C1FB2A4659464046FFF76CFB04463978C2
:104550004046FFF7B7FBE6E7042C01D23446E2E71A
:1045600051464046FFF7AEFB201F854200D3251F72
:104570002A4659464046FFF755FB044639784046DF
:10458000FFF7A0FBCFE751464046FFF79BFB2A46CB
:1045900059464046FFF746FB044639784046FFF748
:1045A00091FBC0E734462046BDE8F09F0B4900EB85
:1045B000400001EBC0001830FFF791BB074900EB4A
:1045C000400001EBC002906A516A884201D8081A83
:1045D0007047126A081A101A70470000703F0020D6
:1045E000C500002040EA01039B0703D009E008C989
:1045F000121F08C0042AFAD203E011F8013B00F8A8
:10460000013B521EF9D27047D2B201E000F8012BF3
:10461000491EFBD270470022F6E710B513460A4642
:1046200004461946FFF7F0FF204610BD30B5054699
:104630002A460B4612F8010B13F8014B08B1A042B1
:10464000F8D01CB1002802D06D1CF1E7284630BD1F
:1046500010B5044604E00B7800F8013B03B1491C97
:10466000521EF8D2204610BD421C10F8011B002932
:10467000FBD1801A704730B504460020034600E0A5
:104680005B1C934203D2E05CCD5C401BF8D030BD94
:1046900030B505460020034600E05B1C934205D27E
:1046A000EC5CC85C201A01D1002CF6D130BD0000B2
:1046B0000FB400B58DB010A909900B9000914FF088
:1046C000FF300A9000200C9005480690054807909E
:1046D0006A4609A80F9900F099FB0DB05DF814FB2C
:1046E000294E0008474E00082DE9F05F05460020DE
:1046F00092469B4688460646814640241BE0284653
:1047000041464746224600F0B2FC53465A46C01A7C
:10471000914110D311461846224600F099FC2D1AFB
:1047200067EB01084F4622460120002100F090FC73
:1047300017EB00094E41201EA4F10104DFDC4846BE
:1047400031462A464346BDE8F09F2DE9FF4F1C46FF
:1047500081B00021D4E9016791464FF0FF358A46C8
:104760008846A1696D1C02988847216A834688475C
:104770000028F6D1BBF1FF3F0CD026F4C066002F15
:104780001ADD700615D5BBF12B0F0AD0BBF12D0F2A
:104790000FD104E04FF0FF3005B0BDE8F08F46F4D4
:1047A0008066A1696D1C029888477F1E8346002F92
:1047B00002DDBBF1300F03D0B9F1000F2AD025E0A4
:1047C000A1696D1C46F400767F1E029888478346D7
:1047D000002F05DDBBF1780F06D0BBF1580F03D0D9
:1047E000B9F1000F10D011E0B9F1000F02D0B9F10A
:1047F000100F0BD1A1696D1C26F400767F1E029864
:1048000088478346102000E0082081464FEAE9707F
:10481000009017E00A20F8E74346AAFB092803FBAB
:104820000980DDF800C07F1E0AFB0C0112EB0B0AA9
:1048300041EBEB78A16946F4007605F10105029899
:1048400088478346002F06DD4946584600F024FC81
:104850005FEA000BE0D5E16902988847B00502D411
:104860006FF0010098E7F00718D1700610D57005B9
:10487000514605D50023D1EB030163EB080200E0AC
:1048800042462068031D23600068C0E9001205E06D
:104890002068011D21600068C0E900A828467BE768
:1048A0002DE9FF5F1D464FF0FF3BD5E901469146DC
:1048B0005F464FF00008A9697F1C01988847296A64
:1048C000824688470028F6D1BAF1FF3F0CD024F485
:1048D000C064002E19DD600614D5BAF12B0F09D083
:1048E000BAF12D0F0ED103E0584604B0BDE8F09F99
:1048F00044F48064A9697F1C01988847761E82462B
:10490000002E02DDBAF1300F03D0B9F1000F26D02E
:1049100032E0A969761E44F400747F1C0198884730
:104920008246002E05DDBAF1780F06D0BAF1580F95
:1049300003D0B9F1000F10D01EE0B9F1000F02D082
:10494000B9F1100F18D1A969761E24F400747F1CE8
:10495000019888478246102002E0082000E00A20E3
:10496000814609E008FB0908A969761E44F4007431
:104970007F1C019888478246002E05DD4946504637
:1049800000F08AFB0028EDDAE96901988847A00564
:1049900002D46FF00100A8E7E00725D1600613D527
:1049A000600502D5C8F1000000E0404629680A1DF4
:1049B0002A600968220501D5087015E0220701D593
:1049C000088011E008600FE02868011D2960006878
:1049D000210502D580F8008006E0210702D5A0F865
:1049E000008001E0C0F8008038467EE72DE9FF5FD7
:1049F000D2E901A74FF00008916999461446DDF805
:104A000038B0464601988847054659EA0B0005D05C
:104A100009E0A169761C019888470546216A284665
:104A200088470028F5D1681C03D05FEACA7005D01A
:104A300015E04FF0FF3004B0BDE8F09F2068011D85
:104A40002160D0F800800AE05FEACA7001D108F85E
:104A5000015BA169761C7F1E019888470546002FDF
:104A60001ADD681C18D0B9F1000F0DD0E81705EB5E
:104A7000D060421120F01F0059F822102A1A01209C
:104A800090400142E0D107E0BBF1000FDCD1216A88
:104A9000284688470028D7D0E169019888470AF05E
:104AA000010050EA0B0002D1002188F80010A06834
:104AB000B84203DDBBF1000F03D017B16FF0010066
:104AC000B9E73046B7E700002DE9FF4F087881B01D
:104AD0009946FF2805D0491C2D2804D00024002326
:104AE00008E000230BE00124F9E703EB830300EB6C
:104AF0004303491C0878FF28F7D104B15B4200202A
:104B00000090147801462D2C01D02B2C04D1521C7E
:104B10002D2C12D00024009400251678FF2E0ED0E4
:104B20000A24A0FB04C801FB0481002700FB071135
:104B3000521C16EB0C006941EFE70124EBE79944A6
:104B400050EA01020ED00024AA4D2646DFF8A882C2
:104B500000F09FFC82468B46B9F1000009DAC9F1EA
:104B600000071BE001980021C0E9001105B0BDE875
:104B7000F08F074612E0F80707D022462B46304652
:104B8000414600F071F90646884622462B461046FB
:104B9000194600F069F904460D467F10002FEAD14E
:104BA000B9F1000F324643465046594602DA00F04A
:104BB000CDF901E000F058F9009A0AB181F0004106
:104BC000019AC2E90001D1E72DE9FF4F1F468DB0E0
:104BD000D7E901464FF0FF382E2045464FF0000937
:104BE0000B90B9696D1C0E988847396A82468847D0
:104BF0000028F6D1BAF1FF3F0AD024F4D064002E89
:104C000011DDBAF12B0F08D0BAF12D0F0BD102E054
:104C1000404611B0ABE744F48064B9696D1C0E984E
:104C200088478246761E6946600501D52D2000E042
:104C30002B208DF8000001F1010B0DF1200809E097
:104C4000B9696D1C0E98884782460F9844F4007429
:104C5000761E0560002E02DDBAF1300FF0D00B9900
:104C60008A453ED144F0800406E00F99681CA9F102
:104C7000010944F400740860B9696D1C761E0E9831
:104C8000884782463028F0D02BE00B998A4505D121
:104C9000200603D444F08004761E18E0504600F04D
:104CA0008CFC08B30DF11301761E44F400748B459F
:104CB00008D2AAF130000BF8010B200607D5A9F1A4
:104CC000010003E0200602D409F101008146A0059D
:104CD00002D50F99681C0860B9696D1C0E98884749
:104CE0008246002ED1DC53E0002E51DDBAF1650F73
:104CF00002D0BAF1450F4BD1A00549D5B9696D1C59
:104D000024F44074761E0E9888478246002E0CDDEF
:104D10002B2804D0BAF12D0F07D144F48074B9695F
:104D20006D1C0E9888478246761EE00501D52D2120
:104D300000E02B2108F8011BCDF82C8021E00DF1BB
:104D40002901761E44F4007488450CD2AAF1300083
:104D500010F0FF0088F8000002D10B99884509D9AE
:104D600008F1010806E0E00501D5244801E042F21F
:104D70000F708146B9696D1C0E98884782460F985E
:104D80000560002E04DD504600F017FC0028D6D147
:104D9000F9690E988847FF208BF8000088F800001A
:104DA0000020069007904B466A4608A906A8FFF720
:104DB0008BFEA00502D46FF001002AE714F0240F47
:104DC0000AD0E00714D1DDE906123868031D3B6004
:104DD0000068C0E900120BE0DDE9060100F065FBA8
:104DE0000146E00704D13868021D3A60006801609E
:104DF00028460EE7000024400000F03FF1D8FFFFF6
:104E0000026811441378016018467047D160044964
:104E100051610449116200211161114600F04AB943
:104E2000014E00088F500008426842B1016811F835
:104E3000013B23B1521EC0E9001218467047012100
:104E4000C160881E704742685AB1C368016843B99F
:104E500083688B4205D0491E521CC0E90012002015
:104E600070474FF0FF3070472DE9FE4F81EA030491
:104E700004F0004421F0004100944FF0000B23F0B7
:104E8000004350EA01045ED052EA03045BD0C3F34E
:104E90000A54C1F30A552C44A4F2F3340194A0FB44
:104EA0000254C1F3130141F48011C3F3130343F41B
:104EB000801301FB024400FB034E840A970A44EA74
:104EC000815447EA8357A4FB076802958D0A05FBC6
:104ED00007854FEA932C04FB0C542705029D4FEAEB
:104EE000065847EA1637B5EB08056EEB070C870E38
:104EF000920E47EA811742EA8312A7FB0201B6EB42
:104F00000B0164EB00042B0D43EA0C335E1844EBF9
:104F10001C50DA465146E7FB0201C5F313044FEA81
:104F20000B3343EA14534FEA0432019C43EA06036D
:104F3000A4F10C040294009CCDE900B400F05BFAEB
:104F400003B0BDE8F08F00200146F9E72DE9F04DF0
:104F500081EA030404F0004B21F0004514464FF0B1
:104F6000000A23F0004150EA050220D054EA010271
:104F70001DD0C5F30A570246C5F31303C1F313004E
:104F8000C1F30A5640F4801543F48013A7EB0608DA
:104F9000101BD64608F2FD3873EB050002D308F16A
:104FA000010801E092185B41B8F1000F03DA00201C
:104FB0000146BDE8F08D00204FF48011064684467E
:104FC0000EE0171B73EB050705D3121B63EB0503FC
:104FD00006434CEA010C49084FEA300092185B4145
:104FE00050EA0107EDD152EA030012D082EA040030
:104FF00083EA0501084305D0101BAB4106D201220C
:10500000002306E000224FF0004302E06FF00102AF
:1050100053101AEB06004CEB085110EB0A0041EB61
:105020000B01BDE8F04D00F0D9B90000064C074D6A
:1050300006E0E06840F0010394E807009847103468
:10504000AC42F6D3FBF778F8345B0008545B0008F9
:10505000202A04DB203A00FA02F100207047914038
:10506000C2F1200320FA03F3194390407047202A2D
:1050700004DB203A21FA02F00021704721FA02F302
:10508000D040C2F120029140084319467047C0B297
:105090004FF4F05100F026BA3A2800D2303820F010
:1050A0002002412A01D3A2F13700884201D34FF0F8
:1050B000FF3070472DE9F34F8BB04FF0000801F13E
:1050C0000C000C464FF0010B46460DF1080A01900A
:1050D000626901210198904705002DD0252D2CD023
:1050E000216A8847C0B16269012101989047216A0D
:1050F00088470028F7D1411E62690198904700E077
:10510000761CA1690B988847216A88470028F7D147
:10511000E1690B988847DBE7A1690B988847074648
:10512000A84201D1761CD3E7E1690B9888477F1C20
:1051300002D1B8F1000F6FD043E1002762693D460C
:105140003946019890472A2804D1626901210198C3
:1051500090470125DFF8809262690121019890470C
:10516000A0F130010A290AD24F45E5DC07EB87019F
:1051700000EB4107303FDFD445F01005ECE7E906CE
:1051800001D46FF000476C280AD04C2814D068284E
:1051900015D06A280DD074281CD07A281AD01DE0AA
:1051A00062690121019890476C2802D045F00405FE
:1051B00014E045F002050DE045F020050AE06269C3
:1051C000012101989047682802D045F0080505E0C4
:1051D00045F400656269012101989047C4E90157CF
:1051E00065283DD019DC582877D00CDC452837D00D
:1051F00004DC252826D0412831D131E046282FD0A3
:1052000047282CD12CE05B287DD0612828D063284A
:1052100079D0642823D157E0CDE06F2845D008DC51
:1052200066281DD067281BD0692821D06E2816D18A
:1052300027E0702842D0732865D0752844D078289C
:105240000DD14AE0A1690B988847054625283FF40F
:1052500069AFE1690B9888476D1C3FF46AAFB0E015
:1052600023466A466FF001000B99FFF7ADFC9BE007
:1052700045F040006060A80723464FF0000233D499
:105280003BE02068011D21600068290501D50670FA
:105290001EE7290701D506801AE7A90703D5F117EC
:1052A000C0E9006114E7066012E745F04000606065
:1052B000A80723464FF0080216D41EE040F60E0160
:1052C00025EA0100606016E045F040006060A80734
:1052D00023464FF00A0207D40FE045F0400060601B
:1052E000A80708D5234610226FF001000B99FFF79D
:1052F0002CFA59E007E0234610226FF001000B99C9
:10530000FFF7CEFA50E04FF000094F464B466328B6
:1053100002D05B2806D040E0E80601D40120A0605E
:1053200001273AE062690121019890475E2805D182
:105330004FF001096269494601989047216939B9DE
:1053400000210B46524642F82130491C0829FADB5D
:10535000B0B3216969B9C11700EBD1614B110AEBF8
:10536000830221F01F01411A012013688840034382
:10537000136062690121019890475D28E8D1B9F175
:10538000000F09D00020514651F82020D24341F8A7
:105390002020401C0828F7DB02AB224600976FF064
:1053A00001000B99FFF722FB00280CDA401C08D102
:1053B000BBF1000F05D04FF0FF300DB0BDE8F08F0E
:1053C000FFE74046F9E7E90701D108F10108064483
:1053D0004FF0000B7CE60000CCCCCC0C10B5002BC1
:1053E00008DA401C41F1000192185B411A4301D1D7
:1053F00020F0010010BD2DE9F04D92469B4611B101
:10540000B1FA81F202E0B0FA80F220329046FFF762
:105410001FFE04460F4640EA0A0041EA0B015346CC
:105420005A46084313D0114653EA010019D0C8F177
:1054300040025046FFF71BFE05460E4650465946B1
:105440004246FFF705FE084305D0012004E0204650
:105450003946BDE8F08D0020054346EAE0762C434E
:1054600037430A986305E40AA0EB08000022FD0A0E
:1054700044EA47540A3002D500200146E9E7010515
:1054800010196941DDE9084500196941BDE8F04D91
:10549000A4E70EB540F2334202920022CDE9002289
:1054A0001346FFF7A8FF03B000BD01F0004330B47E
:1054B00021F0004150EA010206D00A0DA2F5607207
:1054C000C1F31301002A02DC30BC00207047440FF6
:1054D00044EAC104C100E01830BC00EBC25000F047
:1054E00015B800007F2801D9002208E0064A02EB27
:1054F0005002C007127800D1120902F00F020120F9
:105500009040084070470000415A00080029A8BF99
:105510007047401C490008BF20F00100704710B4DC
:10552000B0FA80FC00FA0CF050EA010404BF10BC91
:10553000704749B1CCF1200421FA04F411FA0CF1BE
:1055400018BF012121430843A3EB0C01CB1D4FEAF7
:1055500000614FEA102042BF002010BC704700EBF2
:10556000C35010440029A4BF10BC7047401C490020
:1055700008BF20F0010010BC704700000FB4054BBD
:1055800010B503A9044A029800F01EF810BC5DF89B
:1055900014FB0000E13A0008D800002002E008C82F
:1055A000121F08C1002AFAD170477047002001E09D
:1055B00001C1121F002AFBD1704730380A2801D2DE
:1055C00001207047002070472DE9FF4F8DB00F4636
:1055D0000546002606E025280BD0DDE90F1290478E
:1055E0006D1C761C28780028F5D111B03046BDE836
:1055F000F08F0024A246A1460122EA4900E00443BC
:1056000015F8013F203B02FA03F00842F7D1287851
:105610002A2810D06FF02F022878A0F13001092934
:1056200014D80AEB8A0102EB410144F0020400EBBA
:10563000010A6D1CF0E701CF5FEA000A03D544F4CC
:105640000054CAF1000A44F002046D1C28782E2888
:1056500017D115F8010F44F004042A280ED06FF07A
:105660002F022878A0F1300109290AD809EB890115
:1056700002EB410100EB01096D1CF2E757F8049BB6
:105680006D1C28786C280FD006DC4C2817D06828B1
:105690000DD06A2814D104E0742810D07A280FD1D4
:1056A0000DE044F400140AE044F4801401E044F4F2
:1056B00040146978814202D104F580146D1C6D1C80
:1056C0002A786E2A1FD00CDC632A31D004DC002A31
:1056D0008BD0582A11D19FE0642A68D0692A0CD156
:1056E00065E0732A2ED004DC6F2A73D0702A04D1AF
:1056F00097E0752A6FD0782A6ED01046DDE90F1238
:105700009047761C4CE1C4F30250022806D00328CF
:1057100009D0042801CF09D0066041E101CFF1177B
:10572000C0E900613CE101CF068039E1067037E154
:1057300017F8040B8DF8000000208DF80100EB46EF
:10574000012003E057F804BB4FF0FF3061074FF032
:10575000000102D40DE008F10101884649450FDA45
:105760008045F8DB1BF808100029F4D108E008F1A7
:10577000010188468142FADB1BF808100029F6D1A6
:10578000DDE90F23AAEB08008146214600F032F93B
:10579000304400EB080604E0DDE90F121BF8010BB2
:1057A0009047B8F10108F7D221464846F3E00A21B4
:1057B000C4F302534FF0000B0891022B04D001CF29
:1057C000C117032B09D00AE0FF1D27F00707F7E8F0
:1057D000020108E02EE01DE01EE000B2C117042B1C
:1057E00001D140B2C117002907DA4FF0000CD0EB0D
:1057F0000C006CEB01012D2302E0230504D52B23C3
:105800008DF82430012303E0E30701D02023F7E7DC
:10581000984656E00A210EE010204FF0000B089049
:105820000CE010214FF0000B44F004044FF0080985
:10583000089103E008214FF0000B0891C4F30253D4
:10584000022B04D001CF0021032B06D006E0FF1D60
:1058500027F00707F7E8020103E080B2042B00D12C
:10586000C0B24FF0000823072BD5702A07D0DDF80F
:1058700020C08CF0100C5CEA0B0C05D00EE040232D
:105880008DF82430012308E050EA010306D03023CC
:105890008DF824308DF8252002239846DDF820C0AD
:1058A0008CF0080C5CEA0B0C0BD150EA010301D11F
:1058B000630706D530238DF824304FF00108A9F195
:1058C0000109582A04D038A20B9208AA0A920BE0C8
:1058D0003AA2F9E75B46089AFEF706FF0B9B9B5C32
:1058E0000A9A521E0A92137050EA0102F2D10A98E3
:1058F000ADEB000000F1200B600702D524F48034EA
:1059000001E04FF00109D94502DDA9EB0B0000E0F1
:10591000002000EB0B0141440890AAEB010AE003D0
:1059200006D4DDE90F232146504600F063F8064413
:105930004FF0000908E009A911F80900DDE90F128C
:10594000904709F10109761CC145F4DBE0030CD551
:10595000DDE90F232146504600F04CF8064404E0F0
:10596000DDE90F1230209047761C0899481E0890F8
:105970000029F5DC08E00A980A990078491C0A9188
:10598000DDE90F129047761CBBF10001ABF1010B72
:10599000F1DC21465046DDE90F2300F019F80644FA
:1059A0006D1C1FE60928010030313233343536379B
:1059B000383961626364656600000000303132335B
:1059C00034353637383941424344454600000000FB
:1059D0002DE9F041044600251E461746880404D4EC
:1059E00005E039462020B0476D1C641EF9D52846D5
:1059F000BDE8F0812DE9F041044600251E469046A1
:105A0000C80301D5302700E02027880404D505E02D
:105A100041463846B0476D1C641EF9D52846BDE89E
:105A2000F081636C69656E745F706172736572009A
:105A3000000000000000545452205245474745538F
:105A400000DDDDDDDDDCBBBBDDDDDDDDDDDDDDDDA8
:105A5000DD988888888888888877777777778888B6
:105A600088855555566666666666666666666888A3
:105A700088833333322222222222222222222888A1
:105A80008D0000000D0A000052656164207265738C
:105A9000706F6E73652062756666657220666169F7
:105AA0006C65642E2054686520526573706F6E7348
:105AB00065206275666665722073697A6520697310
:105AC000206F7574206F662062756666657220733C
:105AD000697A6528256429210000000072656164E7
