:020000040800F2
:1000000058490020452C000841020008430200081E
:10001000470200084B0200084F02000800000000E1
:100020000000000000000000000000004501000882
:10003000530200080000000089010008232A00087C
:100040005F2C00085F2C00085F2C00085F2C000864
:100050005F2C00085F2C00085F2C00085F2C000854
:100060005F2C00085F2C00085F2C00085F2C000844
:100070005F2C00085F2C00085F2C00085F2C000834
:100080005F2C00085F2C00085F2C00085F2C000824
:100090005F2C00085F2C00085F2C00085F2C000814
:1000A0005F2C00085F2C00085F2C00085F2C000804
:1000B0005F2C00085F2C00085F2C00085F2C0008F4
:1000C0005F2C00085F2C00085F2C00085F2C0008E4
:1000D0005F2C00085F2C00085F2C0008FF2D000833
:1000E0005F2C00085F2C00085F2C00085F2C0008C4
:1000F0005F2C00085F2C00085F2C00085F2C0008B4
:100100005F2C00085F2C00085F2C00085F2C0008A3
:100110005F2C00085F2C00085F2C00085F2C000893
:100120005F2C00085F2C00085F2C00085F2C000883
:10013000DFF80CD002F02AFF00480047EF0100086A
:1001400058490020224B19680868B0E8F00F80F386
:100150000988BFF36F8F4FF0000080F311884EF0D5
:100160000D0E70470000000006480068006880F32C
:10017000088862B661B6BFF34F8FBFF36F8F00DFA1
:1001800000BF00BF08ED00E0EFF30980BFF36F8F01
:100190000F4B1A6820E9F00F106008B54FF0BF0050
:1001A00080F31188BFF34F8FBFF36F8F01F0E9FA2F
:1001B0004FF0000080F31188BDE808401968086816
:1001C000B0E8F00F80F30988BFF36F8F704700BF6E
:1001D00014000020EFF3058070470000044605E09E
:1001E000204602F005FF0DA002F002FFF8E70EB571
:1001F0004FF4E13002F038FD09A002F0F9FE02A848
:1002000001210DA36422CDE900100BA1AFF2330050
:1002100000F021FF01F030FC00200EBD0D0A0000AF
:1002200057656C636F6D6520746F2046726565520B
:10023000544F530D0A0000005461736B31000000ED
:10024000704700BFFEE700BFFEE700BFFEE700BF4C
:10025000FEE7704731490143314A1160704770B57C
:10026000002100230F22C47804B32D4C246804F429
:10027000E064C4F5E064210AC1F10403CA40447893
:1002800004FA03F18478144021430901254C0678CF
:10029000A155047804F01F050124AC4005786D11C8
:1002A000AD0005F1E025C5F8004109E0047804F04F
:1002B0001F050124AC401C4D0678761145F82640F8
:1002C00070BD1A4A0A400243154B1B1F1A60704743
:1002D00039B1134A121D12680243114B1B1D1A60DB
:1002E00006E00F4A121D126882430D4B1B1D1A6057
:1002F0007047042808D14FF0E021096941F004015A
:100300004FF0E022116107E04FF0E021096921F090
:1003100004014FF0E0221161704700000000FA056F
:100320000CED00E000E400E080E100E080FFFF1F52
:1003300010B50446CC48844208D10121042000F0C5
:100340002DFB0021042000F029FB46E0C748844231
:1003500008D10121082000F021FB0021082000F035
:100360001DFB3AE0C248844208D10121102000F070
:1003700015FB0021102000F011FB2EE0BD48844247
:1003800008D10121202000F009FB0021202000F0ED
:1003900005FB22E0B848844208D10121402000F04A
:1003A000FDFA0021402000F0F9FA16E0B34884423B
:1003B00008D10121802000F0F1FA0021802000F016
:1003C000EDFA0AE0AE48844207D10121801500F021
:1003D000E5FA0021A01500F0E1FA10BD10B50121E9
:1003E000084600F0DBFA0021012000F0D7FA10BD2A
:1003F0002DE9F041024600250026002000230024BC
:10040000002791F803C00CF00F0591F803C00CF021
:10041000100CBCF1000F03D091F802C04CEA0505A6
:1004200091F800C0BCF1000F31D0146800202BE01F
:100430004FF0010C0CFA00F3B1F800C00CEA03060F
:100440009E4220D183004FF00F0C0CFA03F7BC43FF
:1004500005FA03FC4CEA040491F803C0BCF1280F30
:1004600006D14FF0010C0CFA00FCC2F814C00AE0EF
:1004700091F803C0BCF1480F05D14FF0010C0CFA04
:1004800000FCC2F810C0401C0828D1D31460B1F899
:1004900000C0BCF1FF0F34DD546800202EE000F1F5
:1004A000080C4FF0010808FA0CF3B1F800C00CEA90
:1004B00003069E4221D183004FF00F0C0CFA03F784
:1004C000BC4305FA03FC4CEA040491F803C0BCF1F8
:1004D000280F05D100F1080C08FA0CF8C2F81480B6
:1004E00091F803C0BCF1480F07D100F1080C4FF0A0
:1004F000010808FA0CF8C2F81080401C0828CED376
:100500005460BDE8F0814FF6FF71018002218170D7
:100510000421C17070470246002093680B400BB164
:10052000012000E0002070470146886880B27047D3
:1005300002460020D3680B400BB1012000E00020F0
:1005400070470146C86880B27047016170474161D9
:1005500070470AB1016100E041617047C1607047B6
:100560004FF480320A4382618161826182698269CB
:10057000704702460020434B18684FF680731840BE
:1005800040EA021008433F4B186070473E49C8617B
:100590007047F0B50A46002300240021002500F032
:1005A0000046B6F1004F02D1364EF16901E0354EFA
:1005B0007168C0F3034583B200F44016B6F5401FDE
:1005C00008D121F070612F4E766826F070662D4FAD
:1005D0007E6012E000F48016B6F5801F06D1032677
:1005E00006FA05F4A14341F0706106E0460D3601BC
:1005F00003FA06F6B14341F0706122B1460D3601AF
:1006000003FA06F6314300F00046B6F1004F02D17E
:100610001C4EF16101E01B4E7160F0BD30B500224F
:100620008B071C0F0F2303FA04F2164B08338C10B0
:1006300053F824309343134C08348D1044F825307C
:1006400023468C1053F824308C07240F00FA04F44E
:1006500023430C4C08348D1044F8253030BD0A4932
:10066000DC3108607047000000080140000C0140C8
:10067000001001400014014000180140001C01401E
:10068000002001400000014000002042DF480068D7
:1006900040F00100DD49086008464068DC49084038
:1006A000DA49486008460068DA490840D7490860D6
:1006B0000846006820F4802008600846406820F45E
:1006C000FE0048604FF41F0088607047CF490968FA
:1006D00021F48031CD4A11601146096821F480214E
:1006E0001160B0F5803F03D0B0F5802F0ED106E049
:1006F000C649096841F48031C44A116007E0C34922
:10070000096841F4A021C14A116000E000BF00BFA8
:10071000704710B501460022002300204A11012A2B
:1007200002D1BA4C236806E0022A02D1B74C236AF0
:1007300001E0B64C636A01F01F02012494401C40A2
:100740000CB1012000E0002010BD38B50020009061
:100750000024002500BF3120FFF7DBFF054600988D
:10076000401C00900098B0F5A06F01D0002DF2D091
:100770003120FFF7CEFF08B1012400E0002420461D
:1007800038BD01460020A14A106820F0F80040EA78
:10079000C10010607047A049086070470246002001
:1007A0009A4B586820F47C1042EA01031843974B97
:1007B0005860704798490866704701460020934A80
:1007C000506820F003000843506070478F4840682D
:1007D00000F00C007047014600208C4A506820F061
:1007E000F00008435060704701460020874A506877
:1007F00020F4E06008435060704701460020834ABF
:10080000506820F4605040EAC1005060704729B140
:100810007E4A527A02437D4B5A7204E07B4A527AF6
:1008200082437A4B5A7270477B49D83108607047CF
:1008300001460020754A506820F44040084350604B
:1008400070470021714A20321170704A82F82010DE
:10085000012802D004280AD104E001216B4A203289
:10086000117005E00521694A2032117000E000BFD7
:1008700000BF70476949086070476449096A0143CD
:10088000624A11627047654944390860704730B563
:1008900000210022002400235C4D6D6805F00C014E
:1008A00021B1042905D0082923D105E05C4D05605C
:1008B00022E05B4D05601FE0544D6D6805F4701239
:1008C000524D6D6805F48034022505EB92421CB947
:1008D000544D554305600BE04C4D6D6805F40035F3
:1008E0001DB1504D5543056002E04D4D5543056027
:1008F00002E04B4D056000BF00BF444D6D6805F040
:10090000F0010909484D6B5C0568DD4045603F4DCD
:100910006D6805F4E061090A434D6B5C4568DD4094
:1009200085603A4D6D6805F46051C90A3E4D6B5CB7
:100930004568DD40C560354D6D6805F44041890B63
:100940003A4D6B5CC568B5FBF3F5056130BD29B167
:100950002E4A526902432D4B5A6104E02B4A5269D8
:1009600082432A4B5A61704729B1284A926902434F
:10097000264B9A6104E0254A92698243234B9A618F
:10098000704729B1214AD2690243204BDA6104E061
:100990001E4AD26982431D4BDA61704729B11B4A56
:1009A000D2680243194BDA6004E0184AD2688243E5
:1009B000164BDA60704729B1144A12690243134B8F
:1009C0001A6104E0114A12698243104B1A617047A0
:1009D00012494039086070470F49C86470470B4995
:1009E000C87170470948406A40F080700749486202
:1009F000704701460020054A92680A400AB101206A
:100A000000E00020704701498872704700100240E2
:100A10000000FFF8FFFFF6FE000042428004424261
:100A200000127A0000093D000000002010000020A4
:100A300010B50446FB48844209D101218803FFF721
:100A4000ADFF00214FF48040FFF7A8FF32E0F648E9
:100A5000844209D101214804FFF7ADFF00214FF482
:100A60000030FFF7A8FF25E0F048844209D10121BA
:100A70008804FFF7A0FF00214FF48020FFF79BFFC1
:100A800018E0EB48844209D10121C804FFF793FF25
:100A900000214FF40020FFF78EFF0BE0E548844271
:100AA00008D101210805FFF786FF00214FF48010CF
:100AB000FFF781FF10BD2DE9F04786B005460E46D1
:100AC0000024A24600BFA1460027B08900B100BFA4
:100AD0002F462C8A4CF6FF700440F08804432C8289
:100AE000AC894EF6F3100440B0883189084371890F
:100AF00008430443AC81AC8A4FF6FF400440B08900
:100B00000443AC8201A8FFF7C2FEC648874202D167
:100B1000DDF810A001E0DDF80CA0A88900F4004089
:100B200040B10AEBCA0000EB0A1031684900B0FB83
:100B3000F1F807E00AEBCA0000EB0A1031688900FF
:100B4000B0FBF1F86420B8FBF0F004012009642147
:100B500001FB1089A88900F4004040B1322000EB6D
:100B6000C900B0FBF1F000F00700044308E03220B8
:100B700000EB09106421B0FBF1F000F00F0004431A
:100B80002C8106B0BDE8F0874FF4165101600021BA
:100B90008180C18001810C214181002181817047C8
:100BA00010B502460020108A4FF2FF0318400B8850
:100BB0004C8823438C882343CC88234318431082DA
:100BC00010BD0021018041808180C180704721B12A
:100BD000828942F40052828104E082894DF6FF73DB
:100BE0001A4082817047F0B5034600240026002594
:100BF000002040F66A17B94200D100BF1846C1F381
:100C0000421401F01F06012707FA06F5012C01D155
:100C10000C3004E0022C01D1103000E014301AB185
:100C200007682F43076002E00768AF430760F0BD25
:100C30001AB1838A0B43838202E0838A8B438382C7
:100C40007047028A4FF6F0731A400282028A0A4302
:100C50000282704782894FF2FF731A408281828933
:100C60000A438281704721B1828942F00202828167
:100C700004E082894FF6FD731A4082817047028A30
:100C80004FF6DF731A400282028A0A4302827047DB
:100C900021B1028A42F48042028204E0028A4BF6C9
:100CA000FF731A4002827047C1F3080282807047C6
:100CB00001468888C0F308007047818941F001012E
:100CC00081817047028BD2B20283028B42EA0122F9
:100CD00002837047028B02F47F420283028B0A4335
:100CE0000283704721B1828A42F02002828204E0AE
:100CF000828A4FF6DF731A408282704721B1828A5E
:100D000042F01002828204E0828A4FF6EF731A40AA
:100D10008282704721B1828A42F00802828204E016
:100D2000828A4FF6F7731A408282704721B1828916
:100D300042F40042828103E08289C2F30E02828182
:100D4000704721B1828A42F40062828204E0828A82
:100D50004FF2FF731A4082827047828A4FF6FB730C
:100D60001A408282828A0A438282704721B1828A33
:100D700042F00202828204E0828A4FF6FD731A403A
:100D80008282704702460020B1F5007F00D100BF8B
:100D900013880B400BB1012000E00020704701F4E4
:100DA0000072B2F5007F00D100BFCA4302807047D5
:100DB00070B50246002400230025002040F66A1684
:100DC000B14200D100BFC1F3421501F01F0301265B
:100DD00006FA03F3012D02D19689334006E0022D75
:100DE00002D1168A334001E0968A33400C12012664
:100DF00006FA04F41688344013B10CB1012000E067
:100E0000002070BD10B50022002340F66A14A142F4
:100E100000D100BF0A1201249440A3B2DC43048035
:100E200010BD000000380140004400400048004070
:100E3000004C00400050004000F1080141604FF0BC
:100E4000FF31816000F10801C16001610021016092
:100E5000704700210161704742684A6093688B6067
:100E6000936859609160086103685B1C0360704778
:100E700010B502460B685C1C0CB9106907E002F162
:100E8000080000E04068446824689C42FAD944683D
:100E90004C604C68A160886041600A611468641C01
:100EA000146010BD01460A69D1E901309860D1E9AA
:100EB000010358605068884201D188685060002062
:100EC00008611068401E10601068704710B500245B
:100ED00007E004EB8401FE4A02EB8100FFF7ACFF60
:100EE000641C052CF5D3FB48FFF7A6FFFA48FFF773
:100EF000A3FFFA48FFF7A0FFF948FFF79DFFF94865
:100F0000FFF79AFFF348F8490860F348F74908608B
:100F100010BD10B5044601F067FDF5480068401C9F
:100F2000F3490860F348006840B9F2480460084695
:100F3000006801280DD1FFF7C9FF0AE0EE480068FC
:100F400038B9EC480068C06AE16A884201D8E948CB
:100F50000460EA480068401CE849086094F82C10D6
:100F600001208840E64909680843E5490860E16ACC
:100F700001EB8101D64A02EB81014868A0608268DA
:100F8000E260211D826851608160E16A01EB8101AC
:100F9000CF4A02EB81026261E16A01EB8101CC4A36
:100FA00052F82110491CE26A02EB8202C84B43F856
:100FB000221001F028FDD048006868B1CD480068D3
:100FC000C06AE16A884207D24FF08050CD4908607C
:100FD000BFF34F8FBFF36F8F10BD2DE9FF5F8046CA
:100FE0000E469146DDE90E7A109CA9F10100216BB5
:100FF00001EB800B2BF0070B7EB1002507E0715D44
:1010000004F134004155705D00B902E06D1C102DF3
:10101000F5D300BF002143200155052F00D304273D
:10102000E7626764201DFFF714FF04F11800FFF763
:1010300010FF2461C7F10500A06164624146584673
:10104000039A01F0A2FC2060BAF1000F01D0CAF8A7
:101050000040BDE8FF9F2DE9FF4F85B080468946DF
:101060001746DDE912ABB80001F095FB064676B1F4
:10107000542001F090FB04462CB15421204601F08D
:1010800048FF266304E0304601F0EDFB00E0002459
:101090007CB10020CDE900ABCDE902403A4649469B
:1010A0004046089BFFF799FF2046FFF732FF0125D6
:1010B00001E04FF0FF35284609B0BDE8F08F10B5CC
:1010C0000446206B01F0CFFB204601F0CCFB10BDA5
:1010D00085480068006808B9012000E0002020B1C0
:1010E0004FF0FF308849086005E07F480068C0681D
:1010F000006885490860704770B5054601F074FCCA
:1011000015B97C48006800E028460446201DFFF71A
:10111000C9FE78B9E06A00EB80006D4951F8200003
:1011200040B994F82C100120884075490968814322
:1011300073480160A06A18B104F11800FFF7B2FE0D
:101140006E480068401C6D4908606A480068844227
:1011500009D1211D6248FFF77FFE6C480068401CE2
:101160006A49086006E062480068401E60490860FD
:10117000FFF7AEFF01F047FC5E480068844202D0F2
:101180002046FFF79CFF5C48006858B1594800684A
:10119000844207D14FF080505A490860BFF34F8F07
:1011A000BFF36F8F70BD2DE9F041002758480068EC
:1011B00000287DD157480068451C564805608DB908
:1011C0004948D0F8008049480068474908604748C6
:1011D000C0F8008050480068401C4F490860FFF785
:1011E00077FF00BF4848006885426FD300BF3E4884
:1011F0000068006808B9012000E0002020B14FF02D
:10120000FF304149086090E037480068C068C46812
:101210006668B54202D23C48066086E06069D4E95F
:1012200002128A60D4E902214A60211D42688A4282
:1012300001D1E1684160002262610168491E0160DC
:10124000A06A98B1A06AD4E907128A60D4E907219C
:101250004A6004F1180142688A4201D1216A416062
:101260000022A2620168491E016000BF94F82C10A0
:101270000120884022490968084321490860E16A41
:1012800001EB8101124A02EB81014868A06082688B
:10129000E260211D826851608160E16A01EB810199
:1012A0000B4A02EB81026261E16A01EB810100E01D
:1012B0004CE0074A52F82110491CE26A02EB820214
:1012C000034B43F822100B49E06A27E02EE00000B0
:1012D00090000020F4000020080100201C010020E4
:1012E0003001002044010020180000201C000020D4
:1012F00024000020140000203000002040000020C6
:101300002C00002004ED00E044000020200000201C
:1013100050000020280000203C0000200968C96A15
:1013200088427FF664AF012761E700BFFE4800688E
:10133000C06A00EB8000FD4951F82000012800D967
:101340000127FB48006800B1012704E0F948006864
:10135000401CF84908603846BDE8F08170B50024AB
:10136000002601F041FBF4480068401EF249086085
:101370000846006800287DD1F0480068002879D030
:101380005BE0EF48C068C468A06AD4E907128A60CD
:10139000D4E907214A6004F1180142688A4201D168
:1013A000216A41600022A2620168491E01606069F1
:1013B000D4E902128A60D4E902214A60211D426800
:1013C0008A4201D1E1684160002262610168491EE0
:1013D000016094F82C1001208840DA49096808431C
:1013E000D8490860E16A01EB8101D04A02EB810132
:1013F0004868A0608268E260211D82685160816057
:10140000E16A01EB8101C94A02EB81026261E16A92
:1014100001EB8101C54A52F82110491CE26A02EB36
:101420008202C24B43F82210BF49E06A0968C96AC8
:10143000884202D30120BE490860C148006808B94B
:10144000012000E0002000289BD00CB1FFF740FEF7
:10145000B848056865B100BFFFF7A5FE10B10120CF
:10146000B34908606D1E002DF6D10020B149086017
:10147000AF4800E009E0006838B101263007B24902
:101480000860BFF34F8FBFF36F8F01F0BCFA304697
:1014900070BD2DE9F04105460E46AC480768A248EC
:1014A0000068001DFFF7FEFC50B99F48006890F8E7
:1014B0002C1001208840A34909688143A14801609C
:1014C000681CD8B9D6B1A2494868974909688860AC
:1014D000954982680968CA6093490968091D82684C
:1014E000516091490968091D8160994A8E490968CE
:1014F0004A6111460968491C11601AE07C198A4842
:1015000000684460BC4207D287480168091D9148C1
:101510000068FFF7ADFC0CE083480168091D8E48A8
:101520000068FFF7A5FC8D480068844201D28B4813
:101530000460BDE8F08180480068401C7E49086076
:1015400070472DE9F047044688464FF00009FFF741
:10155000F2FF7E480668206800EB08052068B0426C
:1015600007D92068A8420BD9B54209D94FF0010923
:1015700006E02068A84201D8B54201D94FF0010920
:101580002560B9F1000F03D0A81B0021FFF781FFF0
:10159000FFF7E4FE07463FB94FF080506A49086004
:1015A000BFF34F8FBFF36F8F4846BDE8F08770B52C
:1015B0000446002544B1FFF7BEFF00212046FFF797
:1015C00068FFFFF7CBFE05463DB94FF080505E49FE
:1015D0000860BFF34F8FBFF36F8F70BD70B50446C7
:1015E00001F002FA14B95048006800E020460646AF
:1015F000F56A01F008FA284670BD70B5024600BFD2
:10160000BF25EFF3118485F31188BFF34F8FBFF32C
:101610006F8F00BF214612B9434C246800E0144686
:101620002346D86A00BF81F3118800BF70BD2DE941
:10163000F04780460D464FF00009052D00D30425E4
:1016400001F0D2F9B8F1000F02D13748006800E08C
:1016500040460446666CAE4265D0B5420BD932486E
:10166000006884420DD030480068C06AA84208D89B
:101670004FF0010905E02C480068844201D14FF089
:101680000109E76AE16A606C884200D1E56265643D
:10169000A06900F0004010B9C5F10500A06107EB9A
:1016A0008701224A02EB81016069884201D1012051
:1016B00000E00020B0B3201DFFF7F4FB30B901209B
:1016C000B8402049096881431E48016094F82C10F5
:1016D000012088401B49096808431A490860E16AEB
:1016E00001EB8101114A02EB81014868A060826828
:1016F000E260211D826851608160E16A01EB810135
:101700000A4A02EB81026261E16A01EB8101074A48
:1017100052F82110491CE26A02EB8202034B43F8A3
:1017200022101DE01DE028E01400002090000020A1
:101730003800002034000020500000202400002049
:101740001C0100202C00002004ED00E028000020F7
:10175000440100201C00002018000020440000204C
:1017600000BFB9F1000F07D04FF08050F749086073
:10177000BFF34F8FBFF36F8F00BF01F044F9BDE897
:10178000F087F348006818B10120F24908601DE0B5
:101790000020F0490860F0480068B0FA80F0C0F11D
:1017A0001F0101EB8102ED4B03EB8200426852689E
:1017B000426000F108024368934202D142685268D5
:1017C00042604268D268E64B1A6000BF704770B54D
:1017D000054601F009F915B9E148006800E028461E
:1017E0000446201DFFF75EFB78B9E06A00EB80003D
:1017F000DA4951F8200040B994F82C1001208840B3
:10180000D54909688143D4480160A06A18B104F140
:101810001800FFF747FB211DD248FFF71DFB0020F2
:1018200009E004F15001095C012903D1002204F10F
:1018300050010A54401C0128F3DB01F0E4F8CA48C7
:10184000006828B101F0D0F8FFF742FC01F0DBF8A6
:10185000C3480068844217D1C348006840B14FF0C4
:101860008050BA490860BFF34F8FBFF36F8F0BE012
:10187000BC480068BD490968884203D10020B849C6
:10188000086001E0FFF77DFF70BD10B50146002044
:101890000A46B44C5369A34201D1012300E000235E
:1018A00073B1B34C936AA34201D1012300E000233A
:1018B00033B9936A0BB9012300E0002303B101207F
:1018C00010BD70B505462C46A5480068844245D039
:1018D000002C43D001F088F82046FFF7D6FFD8B39C
:1018E000201DFFF7DFFA94F82C10012088409A4958
:1018F0000968084398490860E16A01EB8101974A49
:1019000002EB81014868A0608268E260211D826864
:1019100051608160E16A01EB8101904A02EB810232
:101920006261E16A01EB81018C4A52F82110491C85
:10193000E26A02EB8202894B43F822108849E06A8E
:101940000968C96A884207D34FF080507F49086010
:10195000BFF34F8FBFF36F8F01F055F870BD2DE9C6
:10196000F04106460027344600BFBF21EFF3118047
:1019700081F31188BFF34F8FBFF36F8F00BF054610
:101980002046FFF782FF002841D0714800680028F8
:1019900038D17349E06A0968C96A884203D30127CC
:1019A00001206C490860201DFFF77CFA94F82C1088
:1019B0000120884068490968084367490860E16A6E
:1019C00001EB8101654A02EB81014868A0608268F1
:1019D000E260211D826851608160E16A01EB810152
:1019E0005E4A02EB81026261E16A01EB81015B4ABE
:1019F00052F82110491CE26A02EB8202574B43F86D
:101A0000221004E004F118015948FFF725FA00BF3D
:101A100085F3118800BF3846BDE8F08110B516E0A7
:101A200000F0E2FF5348C068C468201DFFF73AFA8F
:101A30004E480068401E4D4908604F480068401EEF
:101A40004D49086000F0DFFF2046FFF738FB4A48A9
:101A500000680028E4D110BD00BFFFF7DFFF3F485A
:101A600000680128F9D94FF0805038490860BFF369
:101A70004F8FBFF36F8FF0E71CB5404800210B4636
:101A80008022CDE900103EA13F48FFF7E4FA04466A
:101A9000012C14D100BFBF2080F31188BFF34F8FFA
:101AA000BFF36F8F00BF4FF0FF303849086001204F
:101AB0002D49086000203649086000F07FFF354856
:101AC00000681CBD10B500BFBF2080F31188BFF3B4
:101AD0004F8FBFF36F8F00BF00202349086000F0D5
:101AE00082FF10BD2A49086870470021284A106803
:101AF00070471E4800687047014611B918480068D1
:101B000000E00846024602F13400704770B5044612
:101B1000FFF711FD00F068FF1F48006820441E49D0
:101B2000086000F070FFFFF719FC0546284670BDFD
:101B300070B505460C460A48016818312846FFF77B
:101B400097F901212046FFF7A4FC70BD04ED00E0E9
:101B500050000020380000202C00002090000020C1
:101B60001400002044010020300000202400002048
:101B70001C0100203001002020000020480000202F
:101B800049444C4500000000591A00084400002058
:101B9000280000204C0000203400002070B50446CE
:101BA0000D46164645F00040FE49096888616068A8
:101BB000FC490968C861FB49826809680A62F949F9
:101BC0000968183182685160F649096818318160E6
:101BD000F44909688C622168491C21600121304662
:101BE000FFF757FC70BD70B50346D868C168886AB6
:101BF000D1E90745A560D1E90754656001F11804F2
:101C00004568A54201D10C6A446000258D620468D4
:101C1000641E0460E448006800283DD14869D1E9A9
:101C20000245A560D1E9025465600C1D4568A542D6
:101C300001D1CC68446000254D610468641E0460D5
:101C400091F82C400120A040D84C24682043D74C68
:101C50002060CC6A04EB8404D54D05EB84046068F5
:101C600088608568CD600C1D85686C608460CC6A76
:101C700004EB8404CE4D05EB84054D61CC6A04EB86
:101C80008404CB4D55F82440641CCD6A05EB8505D2
:101C9000C74E46F8254010E0C64C6068C8618568AC
:101CA0000D6201F1180485686C608460C14D8D621D
:101CB0002C462468641C2C6000BFBA4CC86A246897
:101CC000E46AA04204D901220120BB4C206000E05C
:101CD0000022104670BD70B502460B4643F000412D
:101CE0001160D0681169D2E90154AC60D2E90145B4
:101CF0006C604C68944201D194684C60002414617B
:101D00000C68641E0C604169D0E90245A560D0E909
:101D100002546560041D4D68A54201D1C4684C6041
:101D2000002545610C68641E0C6090F82C40012170
:101D3000A1409E4C246821439C4C2160C46A04EB62
:101D400084049B4D05EB8404616881608D68C560E7
:101D5000041D8D686C608C60C46A04EB8404944D2F
:101D600005EB84054561C46A04EB8404904D55F885
:101D70002440641CC56A05EB85058D4E46F8254058
:101D8000884CC16A2468E46AA14202D901218A4CC4
:101D9000216070BD10B5044600F026FE874800683B
:101DA000206087480068606000F02DFE10BD834908
:101DB00009680160824909684160704770B506464C
:101DC0000C4600F011FE7E4802687068131A206805
:101DD000401C08B9002519E0784930680968884234
:101DE00006D07068904203D80125002020600DE0E5
:101DF0002068984207D92068C01A20603046FFF753
:101E0000D6FF002502E000202060012500F0FBFD48
:101E1000284670BD0120684908607047614908681C
:101E2000704770B505462C460026002D67D05D49E9
:101E3000E06A0968C96A88425AD2A06900F0004085
:101E400028B958480068C06AC0F10500A061E16A7D
:101E500001EB8101564A02EB81016069884201D1A0
:101E6000012000E00020E0B3201DFFF71BF840B97F
:101E700094F82C10012088404C49096881434B4854
:101E8000016048480068C06AE06294F82C100120A4
:101E9000884046490968084344490860E16A01EB03
:101EA0008101434A02EB81014868A0608268E260D8
:101EB000211D826851608160E16A01EB81013C4A29
:101EC00002EB81026261E16A01EB8101384A52F85A
:101ED0002110491CE26A02EB8202354B43F82210C2
:101EE00004E0FFE72F480068C06AE062012606E0D0
:101EF0002C49606C0968C96A884200D201263046C4
:101F000070BD70B505462C460026002D48D0A06C4B
:101F1000401EA064616CE06A884241D0A06C002839
:101F20003ED1201DFEF7BEFF40B994F82C100120D1
:101F300088401E49096881431C480160606CE0626A
:101F4000E06AC0F10500A06194F82C1001208840DF
:101F500016490968084315490860E16A01EB8101E7
:101F6000134A02EB81014868A0608268E260211D8B
:101F7000826851608160E16A01EB81010C4A02EBE9
:101F800081026261E16A01EB8101094A52F8211084
:101F9000491CE26A02EB8202054B43F8221001263B
:101FA000304670BD14000020500000202C0000209E
:101FB000900000201C010020380000203C00002080
:101FC000280000202DE9F04706460F4634464FF022
:101FD0000109002E5AD0606CB84201D23D4600E0A3
:101FE000656CE06AA84251D0A06C01284ED1D4F8AB
:101FF0002C80E562A06900F0004010B9C5F1050031
:10200000A06108EB8801FE4A02EB81016069884209
:1020100001D1012000E00020C0B3201DFEF742FFE7
:1020200040B994F82C1001208840F6490968814392
:10203000F448016094F82C1001208840F1490968A7
:102040000843F0490860E16A01EB8101EC4A02EBC8
:1020500081014868A0608268E260211D8268516049
:102060008160E16A01EB8101E54A02EB8102626174
:10207000E16A01EB8101E24A52F82110491CE26A4F
:1020800002EB8202DE4B43F8221000BFBDE8F0876E
:10209000DD4909688869DC490968C96AC1F1050137
:1020A000D94A126891617047D748006830B1D64963
:1020B000096801F14800896C491C0160D248006838
:1020C00070472DE9F04104460F46164600F08CFC9F
:1020D000CD4800684C3050F8240080B90121CA482E
:1020E00000685030015556B13046FFF7D2F94FF035
:1020F0008050C6490860BFF34F8FBFF36F8F00F069
:1021000082FC00F071FCC04800684C3050F824504C
:102110006DB137B10021BC4800684C3040F8241044
:1021200005E0681EB84909684C3141F824000021D7
:10213000B54800685030015500F065FC2846BDE800
:10214000F0812DE9F04704460F4690461D46DDF824
:10215000209000F049FCAC4800685030005D022837
:102160001AD0A94909684C3101EB84000168B943D0
:1021700001600121A448006850300155B9F1000FF9
:102180000AD04846FFF785F94FF080509F49086014
:10219000BFF34F8FBFF36F8F00F035FC00F024FCCE
:1021A0002DB1994800684C3050F8240028609648BA
:1021B00000685030005D022801D0002609E09249F5
:1021C00009684C3101EB8400016821EA08010160D3
:1021D000012600218C4800685030015500F013FCA6
:1021E0003046BDE8F0872DE9F05F81460D46164682
:1021F0001F46DDF828A04FF0010B4C4600F0F4FB21
:10220000BAF1000F05D004F14C0050F82500CAF8CF
:10221000000004F1500010F8058002214155052FFF
:1022200029D2DFE807F027030D171C0004F14C004A
:1022300050F82500304304F14C0141F825001BE023
:1022400004F14C0050F82500401C04F14C0141F809
:10225000250011E004F14C0040F825600CE0B8F1D5
:10226000020F04D004F14C0040F8256001E04FF06B
:10227000000B01E000E000BF00BFB8F1010F4AD140
:102280006069D4E902128A60D4E902214A60211D02
:1022900042688A4201D1E1684160002262610168BE
:1022A000491E016094F82C100120884055490968A6
:1022B000084354490860E16A01EB8101504A02EB8E
:1022C00081014868A0608268E260211D82685160D7
:1022D0008160E16A01EB8101494A02EB810262619E
:1022E000E16A01EB8101464A52F82110491CE26A79
:1022F00002EB8202424B43F822104349E06A09682C
:10230000C96A884207D94FF0805040490860BFF33E
:102310004F8FBFF36F8F00F076FB5846BDE8F09FFC
:102320002DE9F04F05460C46DDE909674FF001093C
:10233000294600BF4FF0BF0AEFF311808AF31188DE
:10234000BFF34F8FBFF36F8F00BF804626B101F1FF
:102350004C0050F82400306001F1500010F804C027
:102360004FF0020A00F804A0052B29D2DFE803F0A1
:1023700027030D171C0001F14C0050F824001043F6
:1023800001F14C0A4AF824001BE001F14C0050F81E
:102390002400401C01F14C0A4AF8240011E001F12C
:1023A0004C0040F824200CE0BCF1020F04D001F1F5
:1023B0004C0040F8242001E04FF0000901E000E06B
:1023C00000BF00BFBCF1010F6FD1114800680028A9
:1023D0006DD14869D1E902ABCAF808B0D1E902BAB7
:1023E000CAF804B001F1040AD0F804B0D34503D10F
:1023F000D1F80CA0C0F804A04FF0000B0AE00000D8
:10240000900000202C0000201400002004ED00E0CB
:1024100050000020C1F814B0D0F800A0AAF1010AC1
:10242000C0F800A091F82CA0012000FA0AF0DFF813
:1024300094A2DAF800A040EA0A00DFF888A2CAF8FD
:102440000000D1F82CA00AEB8A0ADFF87CB20BEB73
:102450008A0ADAF804008860D0F808B0C1F80CB035
:1024600001F1040AD0F808B0CBF804A0C0F808A025
:10247000D1F82CA00AEB8A0ADFF84CB20BEB8A0BDE
:10248000C1F814B0D1F82CA00AEB8A0ADFF838B2F0
:102490005BF82AA00AF1010AD1F82CB00BEB8B0BE8
:1024A000DFF824E24EF82BA01EE02EE0FFE7DFF875
:1024B0001CA2DAF80400C861D0F808B0C1F820B056
:1024C00001F1180AD0F808B0CBF804A0C0F808A0B1
:1024D000DFF8F8B1C1F828B0DA46DAF800A00AF15E
:1024E000010ACBF800A000BFDFF8E4A1C86ADAF85F
:1024F00000A0DAF82CA0504507D90FB101203860B0
:102500000120DFF8D0A1CAF8000000BF88F31188CD
:1025100000BF4846BDE8F08F2DE9F0410346144660
:10252000184600BFBF27EFF3118287F31188BFF36E
:102530004F8FBFF36F8F00BF154600F15002565CFE
:1025400002275754121F52F82120521C00F14C0749
:1025500047F82120012E74D15F4A1268002A4CD11D
:102560004269D0E9027CC7F808C0D0E902C7C7F8C1
:1025700004C0071DD2F804C0BC4501D1C76857602C
:102580004FF0000CC0F814C017687F1E176090F859
:102590002C700122BA404B4F3F683A43494F3A6092
:1025A000C76A07EB8707DFF820C10CEB87077A685B
:1025B0008260D2F808C0C0F80CC0071DD2F808C06D
:1025C000CCF804709760C76A07EB8707DFF8F8C09C
:1025D0000CEB870CC0F814C0C76A07EB8707DFF85D
:1025E000E8C05CF827707F1CD0F82CC00CEB8C0C7A
:1025F000DFF8D48048F82C7017E0344F7A68C26155
:10260000D2F808C0C0F820C000F11807D2F808C0FE
:10261000CCF804709760DFF8B4C0C0F828C06746F3
:102620003F687F1CCCF8007000BF294FC26A3F682A
:10263000FF6ABA4205D90CB1012222600122254F5E
:102640003A6000BF85F3118800BFBDE8F0812DE935
:10265000F04106460C4616B91D48006800E03046B9
:10266000074600F0C1F907F15000005D022805D1CE
:10267000002107F150000155012500E0002500F080
:10268000C2F92846BDE8F0812DE9F04106460C4626
:10269000174616B90E48006800E03046054600F0BF
:1026A000A3F905F14C0050F8248050F82400B843F9
:1026B00005F14C0141F8240000F0A5F94046BDE8C1
:1026C000F08100002C000020900000201C01002060
:1026D00014000020380000205000002010B50146F2
:1026E0009D4800E0006803688B42FBD302464368C4
:1026F00013448B4204D143684C6823444360014631
:102700000A464B6813440468A34211D1934C0368F2
:102710002468A34208D04B680468646823444B6073
:1027200003681B680B6005E08C4B1B680B6001E0C5
:1027300003680B60884200D0016010BD30B54FF4D3
:102740008843874800F007042CB1C01D20F0070023
:10275000834C041B1B1B02467F4C226000247E4DD1
:102760006C60D018083820F007007C4C20600024F2
:102770007A4D2D686C60794D2D682C601146441A95
:102780004C60764C24680C60764D4C682C60764D1D
:102790004C682C6030BD2DE9F04705464FF000092C
:1027A000FEF7C9FE6D48006808B9FFF7C7FF75B1AD
:1027B00005F00700C0F11008C8F1FF30A84201D2AF
:1027C000012000E0002008B9454400E00025012078
:1027D00000EBE570002841D0002D3FD06248006832
:1027E00085423BD85C4E3046046801E026462468AA
:1027F0006068A84202D220680028F7D157480068D4
:1028000084422BD0306800F108092068306060688D
:10281000401B102807D967196068401B7860656005
:102820003846FFF75BFF504960680968081A4E494F
:102830000860084600684B490968884203D24A4844
:10284000006848490860606840F00040606000200F
:10285000206046480068401C44490860FEF77EFD41
:102860004846BDE8F08770B506463546E6B1083DF6
:102870002C466068C00FB8B12068A8B9606820F025
:1028800000406060FEF757FE3749606809680844F9
:10289000354908602046FFF721FF35480068401C95
:1028A00033490860FEF75AFD70BD2F480068704735
:1028B0002C4800687047704770B504460D460026E6
:1028C00034B1701EB0FBF4F0A84201D2012000E048
:1028D000002050B904FB05F0FFF75DFF064626B166
:1028E00004FB05F1304600F014FB304670BD2DE9C5
:1028F000F04104464FF000080026771EFEF71BFE4D
:10290000154805687DB10AE008F101086868B04221
:1029100000D96E686868B84200D26F682D680F48A9
:1029200000688542F0D1FEF719FD6660A760C4F823
:102930000C8000F059F80C48006820600B480068D3
:1029400060610B480068A06106480068206100F0E3
:102950005AF8BDE8F0810000540000205C0000201F
:102960005801002064000020600000206800002062
:102970006C00002000BFBF2080F31188BFF34F8F91
:10298000BFF36F8F00BF00BFFEE7001F4FF08073E3
:102990000360001F21F001030360001F2D4B036043
:1029A000143802602038704700204FF0E0210861A1
:1029B00088612948486107200861704710B5274899
:1029C000006840F47F00254908600846006840F030
:1029D0007F400860FFF7E8FF002021490860FDF70D
:1029E000C3FB002010BD704700BFBF2080F31188DB
:1029F000BFF34F8FBFF36F8F00BF19480068401CB3
:102A000017490860704716480068401E144908605E
:102A10000846006820B9002080F3118800BF00BF7D
:102A2000704710B500BFBF2080F31188BFF34F8FF0
:102A3000BFF36F8F00BFFEF7B6FB20B14FF08050A1
:102A400006491C39086000BF002080F3118800BFD0
:102A500010BD0000752900083F19010020ED00E0BD
:102A6000700000200CB50020019000906C480068B8
:102A700040F480306A49086000BF6948006800F48B
:102A8000003000900198401C0190009818B90198FE
:102A9000B0F5A06FF1D16248006800F4003010B1C9
:102AA0000120009001E0002000900098012843D10F
:102AB0005C48006840F010005A4908600846006809
:102AC00020F0030008600846006840F0020008603B
:102AD0005348406852494860084640684860084684
:102AE000406840F4806048600846406820F47C10EC
:102AF00048600846406840F4E810486008460068AE
:102B000040F08070086000BF4548006800F0007029
:102B10000028F9D04248406820F00300404948604E
:102B20000846406840F00200486000BF3C484068EA
:102B300000F00C000828F9D10CBD10B5FFF792FF8A
:102B400010BD10B53648006840F0010034490860F7
:102B500008464068344908403149486008460068E2
:102B6000324908402E4908600846006820F4802059
:102B700008600846406820F4FE0048604FF41F00DB
:102B80008860FFF7DAFF4FF000602949086010BD48
:102B900010B5002100200022214B5B6803F00C01DE
:102BA00021B1042906D0082928D107E0214B224C65
:102BB000236027E01F4B204C236023E0184B5B6809
:102BC00003F47010164B5B6803F48032022303EBAE
:102BD000904022B9194B4343174C23600DE0104B32
:102BE0005B6803F4003323B1144B4343124C23605E
:102BF00003E0104B4343104C236003E00D4B0E4C9D
:102C0000236000BF00BF064B5B68C3F303130C4C8B
:102C1000E15C094B1B68CB40074C236010BD0000F2
:102C200000100240002002400000FFF8FFFFF6FE07
:102C300008ED00E000127A007400002000093D0059
:102C4000780000200648804706480047FEE7FEE778
:102C5000FEE7FEE7FEE7FEE7FEE7FEE7FEE7FEE74C
:102C6000432B00083101000810B586B0044601214D
:102C70008803FDF779FE01210420FDF775FE182079
:102C80008DF817004FF40070ADF8140003208DF894
:102C9000160005A96A48FDF7ABFB48208DF8170020
:102CA0004FF48060ADF8140003208DF8160005A9DC
:102CB0006348FDF79DFB01940020ADF810000C2047
:102CC000ADF80E000020ADF80C00ADF80A00ADF82C
:102CD0000800012240F225515A48FDF784FF01A95E
:102CE0005848FDF7E8FE25208DF8000001208DF8FA
:102CF00003008DF801008DF802006846FDF7AFFA79
:102D000001215048FDF763FF4FF4A060FDF7A2FAE0
:102D100006B010BD10B586B0044601218804FDF749
:102D200030FE01210820FDF71FFE18208DF8170046
:102D30004FF48060ADF8140003208DF8160005A94B
:102D40004148FDF755FB48208DF817004FF400600F
:102D5000ADF8140003208DF8160005A93A48FDF7D8
:102D600047FB01940020ADF810000C20ADF80E00D8
:102D70000020ADF80C00ADF80A00ADF80800012203
:102D800040F225513148FDF72EFF01A92F48FDF7EC
:102D900092FE27208DF8000001208DF803008DF8A9
:102DA00001008DF802006846FDF759FA0121274815
:102DB000FDF70DFF4FF4A060FDF74CFA24480068C2
:102DC00000F048F806B010BD10B5044621461F4873
:102DD000FDF76AFF00BF80211C48FDF7D3FF0028E4
:102DE000F9D010BD70B505460E46002404E0285DFC
:102DF000FFF7EAFF601C84B2B442F8DB70BD10B587
:102E000040F225511148FDF7D3FF01280DD10F489D
:102E1000FDF74EFFC4B221460D48006800F04AF8A5
:102E200040F225510948FDF7EDFF10BD0A4605495E
:102E300000BF0B8803F08003002BFAD08880704716
:102E40000008014000380140000C014000480040EB
:102E50008800002010B50446002084F8650084F83E
:102E600064006421204600F054F810BD014649B1C9
:102E700091F8650091F86420904201D101207047DB
:102E80000020FCE70020FAE710B5014691F8640045
:102E9000401C642390FBF3F403FB1400C2B239B16D
:102EA00091F86500904201D1012010BD0020FCE79F
:102EB0000020FAE730B504460D467CB12046FFF706
:102EC000E3FF58B914F8640F401C642190FBF1F241
:102ED00001FB1200207014F86409255430BD10B5B0
:102EE000014669B111F8650F401C642390FBF3F4AF
:102EF00003FB1400087011F865090A5C104610BD48
:102F00000020FCE7D2B201E000F8012B491EFBD201
:102F100070470022F6E710B513460A4604461946E4
:102F2000FFF7F0FF204610BD2DE9F05F05460020B9
:102F300092469B4688460646814640241BE028462A
:102F400041464746224600F042F853465A46C01AC8
:102F5000914110D311461846224600F029F82D1A47
:102F600067EB01084F4622460120002100F020F8BF
:102F700017EB00094E41201EA4F10104DFDC484696
:102F800031462A464346BDE8F09F0000064C074DF7
:102F900006E0E06840F0010394E807009847103429
:102FA000AC42F6D3FDF7C8F88C340008AC34000806
:102FB000202A04DB203A00FA02F1002070479140F9
:102FC000C2F1200320FA03F3194390407047202AEE
:102FD00004DB203A21FA02F00021704721FA02F3C3
:102FE000D040C2F1200291400843194670470000CA
:102FF0000FB4054B10B503A9044A029800F018F865
:1030000010BC5DF814FB00002D2E00088C00002081
:1030100002E008C8121F08C1002AFAD170477047A1
:10302000002001E001C1121F002AFBD170470000FF
:103030002DE9FF4F8DB00F460546002606E02528F6
:103040000BD0DDE90F1290476D1C761C2878002804
:10305000F5D111B03046BDE8F08F0024A246A1465C
:103060000122EA4900E0044315F8013F203B02FA3F
:1030700003F00842F7D128782A2810D06FF02F02E9
:103080002878A0F13001092914D80AEB8A0102EB53
:10309000410144F0020400EB010A6D1CF0E701CF8E
:1030A0005FEA000A03D544F40054CAF1000A44F070
:1030B00002046D1C28782E2817D115F8010F44F052
:1030C00004042A280ED06FF02F022878A0F13001D6
:1030D00009290AD809EB890102EB410100EB01093A
:1030E0006D1CF2E757F8049B6D1C28786C280FD0F4
:1030F00006DC4C2817D068280DD06A2814D104E0CB
:10310000742810D07A280FD10DE044F400140AE09E
:1031100044F4801401E044F440146978814202D1FF
:1031200004F580146D1C6D1C2A786E2A1FD00CDCEF
:10313000632A31D004DC002A8BD0582A11D19FE0B9
:10314000642A68D0692A0CD165E0732A2ED004DC89
:103150006F2A73D0702A04D197E0752A6FD0782A2D
:103160006ED01046DDE90F129047761C4CE1C4F397
:103170000250022806D0032809D0042801CF09D024
:10318000066041E101CFF117C0E900613CE101CFE8
:10319000068039E1067037E117F8040B8DF800005E
:1031A00000208DF80100EB46012003E057F804BB36
:1031B0004FF0FF3061074FF0000102D40DE008F13D
:1031C0000101884649450FDA8045F8DB1BF80810F5
:1031D0000029F4D108E008F1010188468142FADBB8
:1031E0001BF808100029F6D1DDE90F23AAEB08002F
:1031F0008146214600F032F9304400EB080604E035
:10320000DDE90F121BF8010B9047B8F10108F7D266
:1032100021464846F3E00A21C4F302534FF0000B65
:103220000891022B04D001CFC117032B09D00AE06B
:10323000FF1D27F00707F7E8020108E02EE01DE078
:103240001EE000B2C117042B01D140B2C117002902
:1032500007DA4FF0000CD0EB0C006CEB01012D23D2
:1032600002E0230504D52B238DF82430012303E04D
:10327000E30701D02023F7E7984656E00A210EE045
:1032800010204FF0000B08900CE010214FF0000BC5
:1032900044F004044FF00809089103E008214FF0BE
:1032A000000B0891C4F30253022B04D001CF00217C
:1032B000032B06D006E0FF1D27F00707F7E8020101
:1032C00003E080B2042B00D1C0B24FF00008230706
:1032D0002BD5702A07D0DDF820C08CF0100C5CEAEA
:1032E0000B0C05D00EE040238DF82430012308E0BC
:1032F00050EA010306D030238DF824308DF82520C4
:1033000002239846DDF820C08CF0080C5CEA0B0C18
:103310000BD150EA010301D1630706D530238DF8A4
:1033200024304FF00108A9F10109582A04D038A22D
:103330000B9208AA0A920BE03AA2F9E75B46089AB8
:10334000FFF7F2FD0B9B9B5C0A9A521E0A921370C8
:1033500050EA0102F2D10A98ADEB000000F1200B17
:10336000600702D524F4803401E04FF00109D9450B
:1033700002DDA9EB0B0000E0002000EB0B01414453
:103380000890AAEB010AE00306D4DDE90F232146E9
:10339000504600F063F806444FF0000908E009A920
:1033A00011F80900DDE90F12904709F10109761CB7
:1033B000C145F4DBE0030CD5DDE90F23214650467F
:1033C00000F04CF8064404E0DDE90F12302090478D
:1033D000761C0899481E08900029F5DC08E00A9838
:1033E0000A990078491C0A91DDE90F129047761C72
:1033F000BBF10001ABF1010BF1DC21465046DDE9E8
:103400000F2300F019F806446D1C1FE6092801007F
:10341000303132333435363738396162636465664A
:10342000000000003031323334353637383941420C
:1034300043444546000000002DE9F04104460025C4
:103440001E461746880404D405E039462020B047BC
:103450006D1C641EF9D52846BDE8F0812DE9F041C8
:10346000044600251E469046C80301D5302700E0DB
:103470002027880404D505E041463846B0476D1C36
:10348000641EF9D52846BDE8F0810000AC34000880
:103490000000002090000000103000083C350008BB
:1034A00090000020C8480000203000080000000004
:1034B00001020304010203040607080902040608C6
:1034C00000000000000000000000000000000000FC
:1034D00000000000000000000000000000000000EC
:1034E00000000000000000000000000000000000DC
:1034F00000000000000000000400000000000000C8
:1035000000000000000000000000000000000000BB
:10351000000000000000000000000000AAAAAAAA03
:1035200000A24A04000000000000000001020304A1
:0C35300006070809000000000000000071
:0400000508000131BD
:00000001FF
