:020000040800F2
:10000000884900202D360008C1020008C3020008FC
:10001000C7020008CB020008CF0200080000000061
:100020000000000000000000000000004501000882
:10003000D302000800000000890100080B3400080A
:10004000473600084736000847360008473600089C
:10005000473600084736000847360008473600088C
:10006000473600084736000847360008473600087C
:10007000473600084736000847360008473600086C
:10008000473600084736000847360008473600085C
:10009000473600084736000847360008473600084C
:1000A000473600084736000847360008473600083C
:1000B000473600084736000847360008473600082C
:1000C000473600084736000847360008473600081C
:1000D000473600084736000847360008E937000869
:1000E00047360008473600084736000847360008FC
:1000F00047360008473600084736000847360008EC
:1001000047360008473600084736000847360008DB
:1001100047360008473600084736000847360008CB
:1001200047360008473600084736000847360008BB
:10013000DFF80CD004F02EFA004800472B0200082C
:1001400088490020224B19680868B0E8F00F80F356
:100150000988BFF36F8F4FF0000080F311884EF0D5
:100160000D0E70470000000006480068006880F32C
:10017000088862B661B6BFF34F8FBFF36F8F00DFA1
:1001800000BF00BF08ED00E0EFF30980BFF36F8F01
:100190000F4B1A6820E9F00F106008B54FF0BF0050
:1001A00080F31188BFF34F8FBFF36F8F01F0DDFF36
:1001B0004FF0000080F31188BDE808401968086816
:1001C000B0E8F00F80F30988BFF36F8F704700BF6E
:1001D00014000020EFF30580704700000546284614
:1001E00004F080FC0026642200210A2003F0FEFBBC
:1001F00004461CA221461C4803F027FC1BA004F067
:1002000071FC0021204603F04DFC060004D031466D
:1002100019A004F067FC02E01AA004F063FC14B11A
:10022000204603F004FC00BFFEE71CB54FF4E130AC
:1002300003F00EFA4FF4E13003F060FA18A004F076
:1002400051FC002001211CA34FF4FA62CDE90010FB
:1002500019A1AFF2770001F0F2FB02F001F90020E2
:100260001CBD0000415400009000002072657370B6
:1002700020646174610D0A006461746120697320F7
:10028000257300005061727365206C696E65206291
:100290007566666572206572726F722100000000DB
:1002A00057656C636F6D6520746F2046726565528B
:1002B000544F530D0A0000005461736B310000006D
:1002C000704700BFFEE700BFFEE700BFFEE700BFCC
:1002D000FEE7704731490143314A1160704770B5FC
:1002E000002100230F22C47804B32D4C246804F4A9
:1002F000E064C4F5E064210AC1F10403CA40447813
:1003000004FA03F18478144021430901254C06784E
:10031000A155047804F01F050124AC4005786D1147
:10032000AD0005F1E025C5F8004109E0047804F0CE
:100330001F050124AC401C4D0678761145F8264077
:1003400070BD1A4A0A400243154B1B1F1A607047C2
:1003500039B1134A121D12680243114B1B1D1A605A
:1003600006E00F4A121D126882430D4B1B1D1A60D6
:100370007047042808D14FF0E021096941F00401D9
:100380004FF0E022116107E04FF0E021096921F010
:1003900004014FF0E0221161704700000000FA05EF
:1003A0000CED00E000E400E080E100E080FFFF1FD2
:1003B00010B50446CC48844208D10121042000F045
:1003C0002DFB0021042000F029FB46E0C7488442B1
:1003D00008D10121082000F021FB0021082000F0B5
:1003E0001DFB3AE0C248844208D10121102000F0F0
:1003F00015FB0021102000F011FB2EE0BD488442C7
:1004000008D10121202000F009FB0021202000F06C
:1004100005FB22E0B848844208D10121402000F0C9
:10042000FDFA0021402000F0F9FA16E0B3488442BA
:1004300008D10121802000F0F1FA0021802000F095
:10044000EDFA0AE0AE48844207D10121801500F0A0
:10045000E5FA0021A01500F0E1FA10BD10B5012168
:10046000084600F0DBFA0021012000F0D7FA10BDA9
:100470002DE9F0410246002500260020002300243B
:10048000002791F803C00CF00F0591F803C00CF0A1
:10049000100CBCF1000F03D091F802C04CEA050526
:1004A00091F800C0BCF1000F31D0146800202BE09F
:1004B0004FF0010C0CFA00F3B1F800C00CEA03068F
:1004C0009E4220D183004FF00F0C0CFA03F7BC437F
:1004D00005FA03FC4CEA040491F803C0BCF1280FB0
:1004E00006D14FF0010C0CFA00FCC2F814C00AE06F
:1004F00091F803C0BCF1480F05D14FF0010C0CFA84
:1005000000FCC2F810C0401C0828D1D31460B1F818
:1005100000C0BCF1FF0F34DD546800202EE000F174
:10052000080C4FF0010808FA0CF3B1F800C00CEA0F
:1005300003069E4221D183004FF00F0C0CFA03F703
:10054000BC4305FA03FC4CEA040491F803C0BCF177
:10055000280F05D100F1080C08FA0CF8C2F8148035
:1005600091F803C0BCF1480F07D100F1080C4FF01F
:10057000010808FA0CF8C2F81080401C0828CED3F5
:100580005460BDE8F0814FF6FF7101800221817057
:100590000421C17070470246002093680B400BB1E4
:1005A000012000E0002070470146886880B2704753
:1005B00002460020D3680B400BB1012000E0002070
:1005C00070470146C86880B2704701617047416159
:1005D00070470AB1016100E041617047C160704736
:1005E0004FF480320A43826181618261826982694B
:1005F000704702460020434B18684FF6807318403E
:1006000040EA021008433F4B186070473E49C861FA
:100610007047F0B50A46002300240021002500F0B1
:100620000046B6F1004F02D1364EF16901E0354E79
:100630007168C0F3034583B200F44016B6F5401F5D
:1006400008D121F070612F4E766826F070662D4F2C
:100650007E6012E000F48016B6F5801F06D10326F6
:1006600006FA05F4A14341F0706106E0460D36013B
:1006700003FA06F6B14341F0706122B1460D36012E
:1006800003FA06F6314300F00046B6F1004F02D1FE
:100690001C4EF16101E01B4E7160F0BD30B50022CF
:1006A0008B071C0F0F2303FA04F2164B08338C1030
:1006B00053F824309343134C08348D1044F82530FC
:1006C00023468C1053F824308C07240F00FA04F4CE
:1006D00023430C4C08348D1044F8253030BD0A49B2
:1006E000DC3108607047000000080140000C014048
:1006F000001001400014014000180140001C01409E
:10070000002001400000014000002042DF48006856
:1007100040F00100DD49086008464068DC490840B7
:10072000DA49486008460068DA490840D749086055
:100730000846006820F4802008600846406820F4DD
:10074000FE0048604FF41F0088607047CF49096879
:1007500021F48031CD4A11601146096821F48021CD
:100760001160B0F5803F03D0B0F5802F0ED106E0C8
:10077000C649096841F48031C44A116007E0C349A1
:10078000096841F4A021C14A116000E000BF00BF28
:10079000704710B501460022002300204A11012AAB
:1007A00002D1BA4C236806E0022A02D1B74C236A70
:1007B00001E0B64C636A01F01F02012494401C4022
:1007C0000CB1012000E0002010BD38B500200090E1
:1007D0000024002500BF3120FFF7DBFF054600980D
:1007E000401C00900098B0F5A06F01D0002DF2D011
:1007F0003120FFF7CEFF08B1012400E0002420469D
:1008000038BD01460020A14A106820F0F80040EAF7
:10081000C10010607047A049086070470246002080
:100820009A4B586820F47C1042EA01031843974B16
:100830005860704798490866704701460020934AFF
:10084000506820F003000843506070478F484068AC
:1008500000F00C007047014600208C4A506820F0E0
:10086000F00008435060704701460020874A5068F6
:1008700020F4E06008435060704701460020834A3E
:10088000506820F4605040EAC1005060704729B1C0
:100890007E4A527A02437D4B5A7204E07B4A527A76
:1008A00082437A4B5A7270477B49D831086070474F
:1008B00001460020754A506820F4404008435060CB
:1008C00070470021714A20321170704A82F820105E
:1008D000012802D004280AD104E001216B4A203209
:1008E000117005E00521694A2032117000E000BF57
:1008F00000BF70476949086070476449096A01434D
:10090000624A11627047654944390860704730B5E2
:1009100000210022002400235C4D6D6805F00C01CD
:1009200021B1042905D0082923D105E05C4D0560DB
:1009300022E05B4D05601FE0544D6D6805F47012B8
:10094000524D6D6805F48034022505EB92421CB9C6
:10095000544D554305600BE04C4D6D6805F4003572
:100960001DB1504D5543056002E04D4D55430560A6
:1009700002E04B4D056000BF00BF444D6D6805F0BF
:10098000F0010909484D6B5C0568DD4045603F4D4D
:100990006D6805F4E061090A434D6B5C4568DD4014
:1009A00085603A4D6D6805F46051C90A3E4D6B5C37
:1009B0004568DD40C560354D6D6805F44041890BE3
:1009C0003A4D6B5CC568B5FBF3F5056130BD29B1E7
:1009D0002E4A526902432D4B5A6104E02B4A526958
:1009E00082432A4B5A61704729B1284A92690243CF
:1009F000264B9A6104E0254A92698243234B9A610F
:100A0000704729B1214AD2690243204BDA6104E0E0
:100A10001E4AD26982431D4BDA61704729B11B4AD5
:100A2000D2680243194BDA6004E0184AD268824364
:100A3000164BDA60704729B1144A12690243134B0E
:100A40001A6104E0114A12698243104B1A6170471F
:100A500012494039086070470F49C86470470B4914
:100A6000C87170470948406A40F080700749486281
:100A7000704701460020054A92680A400AB10120E9
:100A800000E0002070470149887270470010024062
:100A90000000FFF8FFFFF6FE0000424280044242E1
:100AA00000127A0000093D00000000201000002024
:100AB00010B50446FB48844209D101218803FFF7A1
:100AC000ADFF00214FF48040FFF7A8FF32E0F64869
:100AD000844209D101214804FFF7ADFF00214FF402
:100AE0000030FFF7A8FF25E0F048844209D101213A
:100AF0008804FFF7A0FF00214FF48020FFF79BFF41
:100B000018E0EB48844209D10121C804FFF793FFA4
:100B100000214FF40020FFF78EFF0BE0E5488442F0
:100B200008D101210805FFF786FF00214FF480104E
:100B3000FFF781FF10BD2DE9F04786B005460E4650
:100B40000024A24600BFA1460027B08900B100BF23
:100B50002F462C8A4CF6FF700440F08804432C8208
:100B6000AC894EF6F3100440B0883189084371898E
:100B700008430443AC81AC8A4FF6FF400440B0897F
:100B80000443AC8201A8FFF7C2FEC648874202D1E7
:100B9000DDF810A001E0DDF80CA0A88900F4004009
:100BA00040B10AEBCA0000EB0A1031684900B0FB03
:100BB000F1F807E00AEBCA0000EB0A10316889007F
:100BC000B0FBF1F86420B8FBF0F0040120096421C7
:100BD00001FB1089A88900F4004040B1322000EBED
:100BE000C900B0FBF1F000F00700044308E0322038
:100BF00000EB09106421B0FBF1F000F00F0004439A
:100C00002C8106B0BDE8F0874FF416510160002139
:100C10008180C18001810C21418100218181704747
:100C200010B502460020108A4FF2FF0318400B88CF
:100C30004C8823438C882343CC8823431843108259
:100C400010BD0021018041808180C180704721B1A9
:100C5000828942F40052828104E082894DF6FF735A
:100C60001A4082817047F0B5034600240026002513
:100C7000002040F66A17B94200D100BF1846C1F300
:100C8000421401F01F06012707FA06F5012C01D1D5
:100C90000C3004E0022C01D1103000E014301AB105
:100CA00007682F43076002E00768AF430760F0BDA5
:100CB0001AB1838A0B43838202E0838A8B43838247
:100CC0007047028A4FF6F0731A400282028A0A4382
:100CD0000282704782894FF2FF731A4082818289B3
:100CE0000A438281704721B1828942F002028281E7
:100CF00004E082894FF6FD731A4082817047028AB0
:100D00004FF6DF731A400282028A0A43028270475A
:100D100021B1028A42F48042028204E0028A4BF648
:100D2000FF731A4002827047C1F308028280704745
:100D300001468888C0F308007047818941F00101AD
:100D400081817047028BD2B20283028B42EA012278
:100D500002837047028B02F47F420283028B0A43B4
:100D60000283704721B1828A42F02002828204E02D
:100D7000828A4FF6DF731A408282704721B1828ADD
:100D800042F01002828204E0828A4FF6EF731A402A
:100D90008282704721B1828A42F00802828204E096
:100DA000828A4FF6F7731A408282704721B1828996
:100DB00042F40042828103E08289C2F30E02828102
:100DC000704721B1828A42F40062828204E0828A02
:100DD0004FF2FF731A4082827047828A4FF6FB738C
:100DE0001A408282828A0A438282704721B1828AB3
:100DF00042F00202828204E0828A4FF6FD731A40BA
:100E00008282704702460020B1F5007F00D100BF0A
:100E100013880B400BB1012000E00020704701F463
:100E20000072B2F5007F00D100BFCA430280704754
:100E300070B50246002400230025002040F66A1603
:100E4000B14200D100BFC1F3421501F01F030126DA
:100E500006FA03F3012D02D19689334006E0022DF4
:100E600002D1168A334001E0968A33400C120126E3
:100E700006FA04F41688344013B10CB1012000E0E6
:100E8000002070BD10B50022002340F66A14A14274
:100E900000D100BF0A1201249440A3B2DC430480B5
:100EA00010BD0000003801400044004000480040F0
:100EB000004C00400050004000F1080141604FF03C
:100EC000FF31816000F10801C16001610021016012
:100ED000704700210161704742684A6093688B60E7
:100EE000936859609160086103685B1C03607047F8
:100EF00010B502460B685C1C0CB9106907E002F1E2
:100F0000080000E04068446824689C42FAD94468BC
:100F10004C604C68A160886041600A611468641C80
:100F2000146010BD01460A69D1E901309860D1E929
:100F3000010358605068884201D1886850600020E1
:100F400008611068401E1060106870472DE9F0417C
:100F500005460E4601272C46002C41D0E06B0028A8
:100F60003ED0B91EE06BB1FBF0F0216C884237D364
:100F700002F02EFAD4E90F12206801FB0200A060F3
:100F80000020A06320686060E06B401E226C216836
:100F900000FB0211E160FF2084F8440084F8450062
:100FA0009EB9206908B9012000E00020A8B904F129
:100FB000100001F00CFB80B14FF08050F94908603F
:100FC000BFF34F8FBFF36F8F07E004F11000FFF7FF
:100FD00073FF04F12400FFF76FFF02F008FA00E04E
:100FE00000273846BDE8F0812DE9F04106460D4660
:100FF00017469846069C0DB9246000E02760E6631A
:10100000256401212046FFF7A1FFBDE8F0812DE90D
:10101000F84304460E4617460025DCB1681EB0FBB7
:10102000F4F0B04216D304FB06F010F1490F11D8CA
:1010300004FB06F909F1480002F0A1F805464DB19C
:10104000A84608F148083B464246314620460095EE
:10105000FFF7CAFF2846BDE8F88370B5044602F0E2
:10106000B7F994F9455010E0606A08B9012000E032
:10107000002038B904F1240001F0A9FA18B101F0F8
:10108000BDFB00E003E0681E45B2002DECDC00BFB4
:10109000FF2084F8450002F0AAF902F099F994F9CA
:1010A000445010E0206908B9012000E0002048B950
:1010B00004F1100001F08BFA08B101F09FFB681EEB
:1010C00045B200E001E0002DECDC00BFFF2084F819
:1010D000440002F08CF970BD70B5054602F078F955
:1010E000A86BE96B884201D1012400E0002402F0E2
:1010F0007EF9204670BD2DE9F04104460F461546A5
:101100004FF00008A66B206C48B9206800282CD14D
:10111000A06801F0EAFB80460020A06025E07DB9D0
:101120003946226C606802F04CFD216C606808440E
:101130006060D4E90101884217D32068606014E040
:101140003946226CE06802F03CFD216CE068411AEF
:10115000E1602168E068884203D2216CA068411AEE
:10116000E160022D01D106B1761E701CA0634046DD
:10117000BDE8F0812DE9FF4383B0074688461D4650
:101180004FF000093C4600BF02F022F9A06BE16B72
:10119000884201D3022D28D12A4641462046FFF736
:1011A000AAFF0646606A08B9012000E0002068B97D
:1011B00004F1240001F00BFA88B14FF08050794916
:1011C0000860BFF34F8FBFF36F8F08E03EB14FF061
:1011D000805074490860BFF34F8FBFF36F8F02F0E8
:1011E00006F9012007B0BDE8F083059818B902F0B0
:1011F000FEF80020F6E7B9F1000F04D101A801F0D4
:10120000CAFA4FF0010902F0F2F800F088FE02F08D
:10121000DFF894F94400401C10B9002084F8440021
:1012200094F94500401C10B9002084F8450002F0F4
:10123000DEF805A901A801F0B5FAF0B92046FFF7DC
:101240004BFFA0B104F11000059901F065F92046AB
:10125000FFF703FF00F076FD002895D14FF0805096
:1012600050490860BFF34F8FBFF36F8F8CE7204664
:10127000FFF7F3FE00F066FD86E72046FFF7EDFE80
:1012800000F060FD0020ADE710B5044654B1002029
:10129000A06020600021E16000231A461946204624
:1012A000FFF768FF10BD2DE9F04104460126002735
:1012B000224600210120FFF7AAFE05462846FFF737
:1012C000E3FF2846BDE8F0812DE9FF4F81B00546D8
:1012D00016461F462C4600BFBF21EFF3118081F355
:1012E0001188BFF34F8FBFF36F8F00BF8146A06B94
:1012F000E16B884201D3022F28D194F945A0A06B5D
:1013000000903A4620460299FFF7F5FE0AF10100E7
:1013100070B9606A08B9012000E0002038B904F112
:10132000240001F054F910B10EB1012030600AE040
:1013300001F0D3F88346DA4504D20AF1010040B245
:1013400084F8450000BF4FF0010801E04FF00008AD
:1013500000BF89F3118800BF404605B0BDE8F08F9B
:101360002DE9F05F05460E462C4600BFBF21EFF386
:10137000118081F31188BFF34F8FBFF36F8F00BFD0
:101380008046D4F838A0E06B504525D994F94590B3
:101390000AF10100A06309F1010080B9606A18B97F
:1013A000012002E004ED00E0002098B904F12400DF
:1013B00001F00DF970B16EB1012030600AE001F06A
:1013C0008CF88346D94504D209F1010040B284F873
:1013D000450000BF012700E0002700BF88F3118807
:1013E00000BF3846BDE8F09F70B5054601F0F0FF3C
:1013F000A86B08B9012400E0002401F0F8FF2046A2
:1014000070BD70B504460D46206C70B1216CE0686B
:101410000144E160D4E90210884201D32168E1600F
:101420002846226CE16802F0CCFB70BD2DE9F74143
:1014300083B005460F464FF000082C4600BF01F070
:10144000C7FFA66BF6B139462046FFF7DAFF701EDC
:10145000A063206908B9012000E0002060B904F110
:10146000100001F0B4F838B14FF08050F649086030
:10147000BFF34F8FBFF36F8F01F0B9FF012006B0AC
:10148000BDE8F081059818B901F0B1FF0020F6E73A
:10149000B8F1000F04D101A801F07DF94FF0010867
:1014A00001F0A5FF00F03BFD01F092FF94F944002C
:1014B000401C10B9002084F8440094F94500401CF9
:1014C00010B9002084F8450001F091FF05A901A89A
:1014D00001F068F9F0B92046FFF786FFA0B104F1EA
:1014E0002400059901F018F82046FFF7B6FD00F03A
:1014F00029FC0028A3D14FF08050D3490860BFF3E6
:101500004F8FBFF36F8F9AE72046FFF7A6FD00F0DD
:1015100019FC94E72046FFF7A0FD00F013FC2046DD
:10152000FFF762FF00288AD00020A8E701464A6A38
:1015300022B10A6B1268C2F1050000E0002070477A
:101540002DE9F34182B0054600272C46B84600BF7E
:1015500001F03EFFA66BFEB1701EA063206810B9BB
:1015600001F096FAA060206908B9012000E000208F
:1015700060B904F1100001F02AF838B14FF0805042
:10158000B1490860BFF34F8FBFF36F8F01F02FFF9A
:10159000012004B0BDE8F081039818B901F027FFDD
:1015A0000020F6E71FB9684601F0F5F8012701F0C1
:1015B0001EFF00F0B4FC01F00BFF94F94400401C46
:1015C00010B9002084F8440094F94500401C10B97B
:1015D000002084F8450001F00AFF03A9684601F0E5
:1015E000E1F840BB2046FFF7FFFEF0B1206838B9B4
:1015F00001F0EEFEA06801F008F9804601F0F7FE68
:1016000004F12400039900F087FF2046FFF725FD31
:1016100000F098FB00289BD14FF080508A49086069
:10162000BFF34F8FBFF36F8F92E72046FFF715FD93
:1016300000F088FB8CE72046FFF70FFD00F082FBEF
:101640002046FFF7D1FE002882D0B8F1000F0BD062
:1016500001F0BEFE2046FFF769FF06463146A0684E
:1016600001F0A4F901F0C3FE002092E72DE9F74351
:1016700082B005460F464FF000082C4600BF01F02F
:10168000A7FED4F83890B9F1000F1ED0E6683946AD
:101690002046FFF7B6FEE660606A08B9012000E068
:1016A000002060B904F1240000F091FF38B14FF040
:1016B000805065490860BFF34F8FBFF36F8F01F013
:1016C00096FE012005B0BDE8F083049818B901F03A
:1016D0008EFE0020F6E7B8F1000F04D1684601F055
:1016E0005AF84FF0010801F082FE00F018FC01F0FA
:1016F0006FFE94F94400401C10B9002084F84400A7
:1017000094F94500401C10B9002084F8450001F010
:101710006EFE04A9684601F045F8F0B92046FFF7CF
:1017200063FEA0B104F12400049900F0F5FE204608
:10173000FFF793FC00F006FB0028A0D14FF080508B
:1017400041490860BFF34F8FBFF36F8F97E7204683
:10175000FFF783FC00F0F6FA91E72046FFF77DFCE7
:1017600000F0F0FA2046FFF73FFE002887D0002067
:10177000A8E72DE9F74F054616462C4600BFBF21C6
:10178000EFF3118081F31188BFF34F8FBFF36F8F99
:1017900000BF8046D4F838A0BAF1000F27D094F9E2
:1017A000449020460199FFF72CFEAAF10100A063A6
:1017B00009F1010070B9206908B9012000E000209A
:1017C00098B904F1100000F002FF70B16EB1012071
:1017D00030600AE000F081FE8346D94504D209F169
:1017E000010040B284F8440000BF012700E0002758
:1017F00000BF88F3118800BF3846BDE8FE8F2DE991
:10180000F047054689462C4600BFBF21EFF3118003
:1018100081F31188BFF34F8FBFF36F8F00BF07466F
:10182000A06B48B1D4F80C8049462046FFF7E9FD8B
:10183000C4F80C80012600E0002600BF87F3118861
:1018400000BF3046BDE8F08704ED00E070B5044607
:1018500001F0BEFDA56B01F0CAFD284670BD70B554
:101860000446254601F0B4FDD5E90E10461A01F0F4
:10187000BEFD304670BD01460A46906B704770B59C
:1018800004462546284601F0E2FC70BD01460A46A2
:10189000936B0BB9012000E00020704710B50146A2
:1018A0000A46936BD46BA34201D1012000E00020D3
:1018B00010BD000010B5002407E004EB8401FE4ACF
:1018C00002EB8100FFF7F8FA641C052CF5D3FB4806
:1018D000FFF7F2FAFA48FFF7EFFAFA48FFF7ECFAE7
:1018E000F948FFF7E9FAF948FFF7E6FAF348F8494B
:1018F0000860F348F749086010BD10B5044601F0D0
:1019000067FDF5480068401CF3490860F34800682B
:1019100040B9F24804600846006801280DD1FFF77D
:10192000C9FF0AE0EE48006838B9EC480068C06AB0
:10193000E16A884201D8E9480460EA480068401C2E
:10194000E849086094F82C1001208840E6490968AD
:101950000843E5490860E16A01EB8101D64A02EBE0
:1019600081014868A0608268E260211D8268516040
:101970008160E16A01EB8101CF4A02EB8102626181
:10198000E16A01EB8101CC4A52F82110491CE26A5C
:1019900002EB8202C84B43F8221001F028FDD04828
:1019A000006868B1CD480068C06AE16A884207D221
:1019B0004FF08050CD490860BFF34F8FBFF36F8F5A
:1019C00010BD2DE9FF5F80460E469146DDE90E7A97
:1019D000109CA9F10100216B01EB800B2BF0070B90
:1019E0007EB1002507E0715D04F134004155705D62
:1019F00000B902E06D1C102DF5D300BF002143207B
:101A00000155052F00D30427E7626764201DFFF707
:101A100060FA04F11800FFF75CFA2461C7F10500D1
:101A2000A061646241465846039A01F0A2FC20601E
:101A3000BAF1000F01D0CAF80040BDE8FF9F2DE9C0
:101A4000FF4F85B0804689461746DDE912ABB800E6
:101A500001F095FB064676B1542001F090FB044658
:101A60002CB15421204602F0C5F8266304E030462C
:101A700001F0EDFB00E000247CB10020CDE900ABDB
:101A8000CDE902403A4649464046089BFFF799FF98
:101A90002046FFF732FF012501E04FF0FF352846D1
:101AA00009B0BDE8F08F10B50446206B01F0CFFB04
:101AB000204601F0CCFB10BD85480068006808B9DD
:101AC000012000E0002020B14FF0FF30884908607D
:101AD00005E07F480068C068006885490860704775
:101AE00070B5054601F074FC15B97C48006800E04B
:101AF00028460446201DFFF715FA78B9E06A00EB86
:101B000080006D4951F8200040B994F82C10012054
:101B1000884075490968814373480160A06A18B11B
:101B200004F11800FFF7FEF96E480068401C6D498B
:101B300008606A480068844209D1211D6248FFF7A5
:101B4000CBF96C480068401C6A49086006E06248AE
:101B50000068401E60490860FFF7AEFF01F047FCD7
:101B60005E480068844202D02046FFF79CFF5C4834
:101B7000006858B159480068844207D14FF080503E
:101B80005A490860BFF34F8FBFF36F8F70BD2DE9C7
:101B9000F04100275848006800287DD15748006868
:101BA000451C564805608DB94948D0F80080494821
:101BB0000068474908604748C0F8008050480068FE
:101BC000401C4F490860FFF777FF00BF4848006896
:101BD00085426FD300BF3E480068006808B9012005
:101BE00000E0002020B14FF0FF304149086090E054
:101BF00037480068C068C4686668B54202D23C488D
:101C0000066086E06069D4E902128A60D4E90221A4
:101C10004A60211D42688A4201D1E1684160002288
:101C200062610168491E0160A06A98B1A06AD4E9A6
:101C300007128A60D4E907214A6004F1180142685A
:101C40008A4201D1216A41600022A2620168491ED4
:101C5000016000BF94F82C100120884022490968D7
:101C6000084321490860E16A01EB8101124A02EB55
:101C700081014868A0608268E260211D826851602D
:101C80008160E16A01EB81010B4A02EB8102626132
:101C9000E16A01EB810100E04CE0074A52F82110B3
:101CA000491CE26A02EB8202034B43F822100B4903
:101CB000E06A27E02EE00000A80000200C010020D0
:101CC0002001002034010020480100205C01002098
:101CD000180000201C000020240000201400002018
:101CE00030000020400000202C00002004ED00E027
:101CF0004400002020000020500000202800002088
:101D00003C0000200968C96A88427FF664AF012759
:101D100061E700BFFE480068C06A00EB8000FD4933
:101D200051F82000012800D90127FB48006800B1C4
:101D3000012704E0F9480068401CF849086038466B
:101D4000BDE8F08170B50024002601F041FBF448A5
:101D50000068401EF24908600846006800287DD1EE
:101D6000F0480068002879D05BE0EF48C068C4689C
:101D7000A06AD4E907128A60D4E907214A6004F115
:101D8000180142688A4201D1216A41600022A262A0
:101D90000168491E01606069D4E902128A60D4E9D1
:101DA00002214A60211D42688A4201D1E1684160F6
:101DB000002262610168491E016094F82C10012024
:101DC0008840DA4909680843D8490860E16A01EBAC
:101DD0008101D04A02EB81014868A0608268E2601C
:101DE000211D826851608160E16A01EB8101C94A6D
:101DF00002EB81026261E16A01EB8101C54A52F89E
:101E00002110491CE26A02EB8202C24B43F8221005
:101E1000BF49E06A0968C96A884202D30120BE4905
:101E20000860C148006808B9012000E000200028CF
:101E30009BD00CB1FFF740FEB848056865B100BF04
:101E4000FFF7A5FE10B10120B34908606D1E002DFB
:101E5000F6D10020B1490860AF4800E009E0006811
:101E600038B101263007B2490860BFF34F8FBFF386
:101E70006F8F01F0BCFA304670BD2DE9F041054688
:101E80000E46AC480768A2480068001DFFF74AF8F4
:101E900050B99F48006890F82C1001208840A34951
:101EA00009688143A1480160681CD8B9D6B1A2492C
:101EB0004868974909688860954982680968CA60D6
:101EC00093490968091D8268516091490968091D93
:101ED0008160994A8E4909684A6111460968491C1E
:101EE00011601AE07C198A4800684460BC4207D23D
:101EF00087480168091D91480068FEF7F9FF0CE06A
:101F000083480168091D8E480068FEF7F1FF8D487F
:101F10000068844201D28B480460BDE8F0818048AB
:101F20000068401C7E49086070472DE9F047044670
:101F300088464FF00009FFF7F2FF7E4806682068E8
:101F400000EB08052068B04207D92068A8420BD9E9
:101F5000B54209D94FF0010906E02068A84201D82E
:101F6000B54201D94FF001092560B9F1000F03D046
:101F7000A81B0021FFF781FFFFF7E4FE07463FB9EA
:101F80004FF080506A490860BFF34F8FBFF36F8FE7
:101F90004846BDE8F08770B50446002544B1FFF718
:101FA000BEFF00212046FFF768FFFFF7CBFE054686
:101FB0003DB94FF080505E490860BFF34F8FBFF3CB
:101FC0006F8F70BD70B5044601F002FA14B9504825
:101FD000006800E020460646F56A01F008FA284647
:101FE00070BD70B5024600BFBF25EFF3118485F3C5
:101FF0001188BFF34F8FBFF36F8F00BF214612B917
:10200000434C246800E014462346D86A00BF81F39D
:10201000118800BF70BD2DE9F04780460D464FF096
:102020000009052D00D3042501F0D2F9B8F1000F05
:1020300002D13748006800E040460446666CAE4274
:1020400065D0B5420BD93248006884420DD0304883
:102050000068C06AA84208D84FF0010905E02C4882
:102060000068844201D14FF00109E76AE16A606CBF
:10207000884200D1E5626564A06900F0004010B9B3
:10208000C5F10500A06107EB8701224A02EB81013F
:102090006069884201D1012000E00020B0B3201D1A
:1020A000FEF740FF30B90120B8402049096881435C
:1020B0001E48016094F82C10012088401B490968D3
:1020C00008431A490860E16A01EB8101114A02EBF9
:1020D00081014868A0608268E260211D82685160C9
:1020E0008160E16A01EB81010A4A02EB81026261CF
:1020F000E16A01EB8101074A52F82110491CE26AAA
:1021000002EB8202034B43F822101DE01DE028E0A1
:1021100014000020A8000020380000203400002017
:102120005000002024000020340100202C0000205A
:1021300004ED00E0280000205C0100201C000020CD
:10214000180000204400002000BFB9F1000F07D0A4
:102150004FF08050F7490860BFF34F8FBFF36F8F88
:1021600000BF01F044F9BDE8F087F348006818B1FA
:102170000120F24908601DE00020F0490860F048A5
:102180000068B0FA80F0C0F11F0101EB8102ED4B55
:1021900003EB820042685268426000F10802436823
:1021A000934202D14268526842604268D268E64B6C
:1021B0001A6000BF704770B5054601F009F915B9FE
:1021C000E148006800E028460446201DFEF7AAFE0C
:1021D00078B9E06A00EB8000DA4951F8200040B994
:1021E00094F82C1001208840D54909688143D448CF
:1021F0000160A06A18B104F11800FEF793FE211DDA
:10220000D248FEF769FE002009E004F15001095CA4
:10221000012903D1002204F150010A54401C012875
:10222000F3DB01F0E4F8CA48006828B101F0D0F807
:10223000FFF742FC01F0DBF8C3480068844217D185
:10224000C348006840B14FF08050BA490860BFF3FE
:102250004F8FBFF36F8F0BE0BC480068BD49096822
:10226000884203D10020B849086001E0FFF77DFFF4
:1022700070BD10B5014600200A46B44C5369A34214
:1022800001D1012300E0002373B1B34C936AA34250
:1022900001D1012300E0002333B9936A0BB9012374
:1022A00000E0002303B1012010BD70B505462C46A7
:1022B000A5480068844245D0002C43D001F088F83E
:1022C0002046FFF7D6FFD8B3201DFEF72BFE94F86B
:1022D0002C10012088409A490968084398490860F1
:1022E000E16A01EB8101974A02EB81014868A06035
:1022F0008268E260211D826851608160E16A01EBC1
:102300008101904A02EB81026261E16A01EB810185
:102310008C4A52F82110491CE26A02EB8202894B76
:1023200043F822108849E06A0968C96A884207D3DD
:102330004FF080507F490860BFF34F8FBFF36F8F1E
:1023400001F055F870BD2DE9F041064600273446EE
:1023500000BFBF21EFF3118081F31188BFF34F8FCE
:10236000BFF36F8F00BF05462046FFF782FF0028AE
:1023700041D071480068002838D17349E06A096883
:10238000C96A884203D3012701206C490860201DD7
:10239000FEF7C8FD94F82C100120884068490968B0
:1023A000084367490860E16A01EB8101654A02EB75
:1023B00081014868A0608268E260211D82685160E6
:1023C0008160E16A01EB81015E4A02EB8102626198
:1023D000E16A01EB81015B4A52F82110491CE26A73
:1023E00002EB8202574B43F8221004E004F118017B
:1023F0005948FEF771FD00BF85F3118800BF3846CC
:10240000BDE8F08110B516E000F0E2FF5348C06867
:10241000C468201DFEF786FD4E480068401E4D49E9
:1024200008604F480068401E4D49086000F0DFFF1B
:102430002046FFF738FB4A4800680028E4D110BD69
:1024400000BFFFF7DFFF3F4800680128F9D94FF0D0
:10245000805038490860BFF34F8FBFF36F8FF0E7AC
:102460001CB5404800210B468022CDE900103EA15A
:102470003F48FFF7E4FA0446012C14D100BFBF2007
:1024800080F31188BFF34F8FBFF36F8F00BF4FF002
:10249000FF303849086001202D4908600020364986
:1024A000086000F07FFF354800681CBD10B500BF14
:1024B000BF2080F31188BFF34F8FBFF36F8F00BF32
:1024C00000202349086000F082FF10BD2A490868F7
:1024D00070470021284A106870471E4800687047FE
:1024E000014611B91848006800E00846024602F1AA
:1024F0003400704770B50446FFF711FD00F068FF27
:102500001F48006820441E49086000F070FFFFF774
:1025100019FC0546284670BD70B505460C460A48AC
:10252000016818312846FEF7E3FC01212046FFF739
:10253000A4FC70BD04ED00E0500000203800002035
:102540002C000020A8000020140000205C010020C6
:102550003000002024000020340100204801002029
:10256000200000204800002049444C4500000000A5
:102570004124000844000020280000204C000020D6
:102580003400002070B504460D46164645F0004064
:10259000FE49096888616068FC490968C861FB49AF
:1025A000826809680A62F9490968183182685160CD
:1025B000F649096818318160F44909688C6221681C
:1025C000491C216001213046FFF757FC70BD70B5F2
:1025D0000346D868C168886AD1E90745A560D1E992
:1025E0000754656001F118044568A54201D10C6AE1
:1025F000446000258D620468641E0460E44800683D
:1026000000283DD14869D1E90245A560D1E90254CD
:1026100065600C1D4568A54201D1CC684460002569
:102620004D610468641E046091F82C400120A040B4
:10263000D84C24682043D74C2060CC6A04EB840437
:10264000D54D05EB8404606888608568CD600C1DFD
:1026500085686C608460CC6A04EB8404CE4D05EB25
:1026600084054D61CC6A04EB8404CB4D55F82440BD
:10267000641CCD6A05EB8505C74E46F8254010E081
:10268000C64C6068C86185680D6201F118048568F0
:102690006C608460C14D8D622C462468641C2C6083
:1026A00000BFBA4CC86A2468E46AA04204D9012277
:1026B0000120BB4C206000E00022104670BD70B5C8
:1026C00002460B4643F000411160D0681169D2E91F
:1026D0000154AC60D2E901456C604C68944201D170
:1026E00094684C60002414610C68641E0C6041699D
:1026F000D0E90245A560D0E902546560041D4D682B
:10270000A54201D1C4684C60002545610C68641E77
:102710000C6090F82C400121A1409E4C246821437C
:102720009C4C2160C46A04EB84049B4D05EB84043B
:10273000616881608D68C560041D8D686C608C6007
:10274000C46A04EB8404944D05EB84054561C46AB6
:1027500004EB8404904D55F82440641CC56A05EBD5
:1027600085058D4E46F82540884CC16A2468E46A88
:10277000A14202D901218A4C216070BD10B50446E6
:1027800000F026FE87480068206087480068606087
:1027900000F02DFE10BD8349096801608249096877
:1027A0004160704770B506460C4600F011FE7E4849
:1027B00002687068131A2068401C08B9002519E0E7
:1027C000784930680968884206D07068904203D81A
:1027D0000125002020600DE02068984207D920687C
:1027E000C01A20603046FFF7D6FF002502E0002027
:1027F0002060012500F0FBFD284670BD01206849DE
:102800000860704761490868704770B505462C46F6
:102810000026002D67D05D49E06A0968C96A8842D0
:102820005AD2A06900F0004028B958480068C06A30
:10283000C0F10500A061E16A01EB8101564A02EB9B
:1028400081016069884201D1012000E00020E0B3ED
:10285000201DFEF767FB40B994F82C10012088403A
:102860004C49096881434B48016048480068C06A88
:10287000E06294F82C10012088404649096808431A
:1028800044490860E16A01EB8101434A02EB81019E
:102890004868A0608268E260211D826851608160A2
:1028A000E16A01EB81013C4A02EB81026261E16A6B
:1028B00001EB8101384A52F82110491CE26A02EB0F
:1028C0008202354B43F8221004E0FFE72F480068EE
:1028D000C06AE062012606E02C49606C0968C96A9A
:1028E000884200D20126304670BD70B505462C46A0
:1028F0000026002D48D0A06C401EA064616CE06AE8
:10290000884241D0A06C00283ED1201DFEF70AFB72
:1029100040B994F82C10012088401E490968814371
:102920001C480160606CE062E06AC0F10500A061D3
:1029300094F82C100120884016490968084315496D
:102940000860E16A01EB8101134A02EB81014868EA
:10295000A0608268E260211D826851608160E16A46
:1029600001EB81010C4A02EB81026261E16A01EB39
:102970008101094A52F82110491CE26A02EB8202E5
:10298000054B43F822100126304670BD140000208C
:10299000500000202C000020A8000020340100205E
:1029A000380000203C000020280000202DE9F047DE
:1029B00006460F4634464FF00109002E5AD0606C8F
:1029C000B84201D23D4600E0656CE06AA84251D0B1
:1029D000A06C01284ED1D4F82C80E562A06900F0EB
:1029E000004010B9C5F10500A06108EB8801FE4A5E
:1029F00002EB81016069884201D1012000E00020E2
:102A0000C0B3201DFEF78EFA40B994F82C100120B7
:102A10008840F64909688143F448016094F82C1015
:102A200001208840F14909680843F0490860E16ADB
:102A300001EB8101EC4A02EB81014868A0608268E9
:102A4000E260211D826851608160E16A01EB8101D1
:102A5000E54A02EB81026261E16A01EB8101E24A2F
:102A600052F82110491CE26A02EB8202DE4B43F865
:102A7000221000BFBDE8F087DD4909688869DC499C
:102A80000968C96AC1F10501D94A126891617047A4
:102A9000D748006830B1D649096801F14800896C0F
:102AA000491C0160D248006870472DE9F041044696
:102AB0000F46164600F08CFCCD4800684C3050F8AC
:102AC000240080B90121CA4800685030015556B130
:102AD0003046FFF7D2F94FF08050C6490860BFF387
:102AE0004F8FBFF36F8F00F082FC00F071FCC04885
:102AF00000684C3050F824506DB137B10021BC480B
:102B000000684C3040F8241005E0681EB849096898
:102B10004C3141F824000021B5480068503001557F
:102B200000F065FC2846BDE8F0812DE9F047044639
:102B30000F4690461D46DDF8209000F049FCAC4859
:102B400000685030005D02281AD0A94909684C314C
:102B500001EB84000168B94301600121A4480068C9
:102B600050300155B9F1000F0AD04846FFF785F9FA
:102B70004FF080509F490860BFF34F8FBFF36F8FB6
:102B800000F035FC00F024FC2DB1994800684C3071
:102B900050F824002860964800685030005D0228F4
:102BA00001D0002609E0924909684C3101EB84000C
:102BB000016821EA08010160012600218C480068B3
:102BC0005030015500F013FC3046BDE8F0872DE988
:102BD000F05F81460D4616461F46DDF828A04FF0EF
:102BE000010B4C4600F0F4FBBAF1000F05D004F1E4
:102BF0004C0050F82500CAF8000004F1500010F80D
:102C0000058002214155052F29D2DFE807F027036F
:102C10000D171C0004F14C0050F82500304304F15E
:102C20004C0141F825001BE004F14C0050F8250050
:102C3000401C04F14C0141F8250011E004F14C0066
:102C400040F825600CE0B8F1020F04D004F14C000C
:102C500040F8256001E04FF0000B01E000E000BF0C
:102C600000BFB8F1010F4AD16069D4E902128A604D
:102C7000D4E902214A60211D42688A4201D1E168FB
:102C80004160002262610168491E016094F82C10C5
:102C90000120884055490968084354490860E16AA1
:102CA00001EB8101504A02EB81014868A060826813
:102CB000E260211D826851608160E16A01EB81015F
:102CC000494A02EB81026261E16A01EB8101464AF5
:102CD00052F82110491CE26A02EB8202424B43F88F
:102CE00022104349E06A0968C96A884207D94FF04F
:102CF000805040490860BFF34F8FBFF36F8F00F0E3
:102D000076FB5846BDE8F09F2DE9F04F05460C468E
:102D1000DDE909674FF00109294600BF4FF0BF0AFE
:102D2000EFF311808AF31188BFF34F8FBFF36F8FDA
:102D300000BF804626B101F14C0050F824003060FD
:102D400001F1500010F804C04FF0020A00F804A08E
:102D5000052B29D2DFE803F027030D171C0001F132
:102D60004C0050F82400104301F14C0A4AF82400AA
:102D70001BE001F14C0050F82400401C01F14C0A0A
:102D80004AF8240011E001F14C0040F824200CE046
:102D9000BCF1020F04D001F14C0040F8242001E006
:102DA0004FF0000901E000E000BF00BFBCF1010FDF
:102DB0006FD11148006800286DD14869D1E902AB94
:102DC000CAF808B0D1E902BACAF804B001F1040A9D
:102DD000D0F804B0D34503D1D1F80CA0C0F804A0BA
:102DE0004FF0000B0AE00000A80000202C0000209B
:102DF0001400002004ED00E050000020C1F814B0E1
:102E0000D0F800A0AAF1010AC0F800A091F82CA007
:102E1000012000FA0AF0DFF894A2DAF800A040EAF4
:102E20000A00DFF888A2CAF80000D1F82CA00AEB4B
:102E30008A0ADFF87CB20BEB8A0ADAF804008860B1
:102E4000D0F808B0C1F80CB001F1040AD0F808B00D
:102E5000CBF804A0C0F808A0D1F82CA00AEB8A0A8D
:102E6000DFF84CB20BEB8A0BC1F814B0D1F82CA0F0
:102E70000AEB8A0ADFF838B25BF82AA00AF1010AE5
:102E8000D1F82CB00BEB8B0BDFF824E24EF82BA023
:102E90001EE02EE0FFE7DFF81CA2DAF80400C861AC
:102EA000D0F808B0C1F820B001F1180AD0F808B085
:102EB000CBF804A0C0F808A0DFF8F8B1C1F828B03A
:102EC000DA46DAF800A00AF1010ACBF800A000BF48
:102ED000DFF8E4A1C86ADAF800A0DAF82CA05045BF
:102EE00007D90FB1012038600120DFF8D0A1CAF85E
:102EF000000000BF88F3118800BF4846BDE8F08F8E
:102F00002DE9F04103461446184600BFBF27EFF3F2
:102F1000118287F31188BFF34F8FBFF36F8F00BF0C
:102F2000154600F15002565C02275754121F52F802
:102F30002120521C00F14C0747F82120012E74D1AA
:102F40005F4A1268002A4CD14269D0E9027CC7F876
:102F500008C0D0E902C7C7F804C0071DD2F804C0F2
:102F6000BC4501D1C76857604FF0000CC0F814C0D1
:102F700017687F1E176090F82C700122BA404B4FE3
:102F80003F683A43494F3A60C76A07EB8707DFF863
:102F900020C10CEB87077A688260D2F808C0C0F8BD
:102FA0000CC0071DD2F808C0CCF804709760C76A3F
:102FB00007EB8707DFF8F8C00CEB870CC0F814C0EC
:102FC000C76A07EB8707DFF8E8C05CF827707F1C4B
:102FD000D0F82CC00CEB8C0CDFF8D48048F82C70A7
:102FE00017E0344F7A68C261D2F808C0C0F820C038
:102FF00000F11807D2F808C0CCF804709760DFF829
:10300000B4C0C0F828C067463F687F1CCCF8007089
:1030100000BF294FC26A3F68FF6ABA4205D90CB1A6
:10302000012222600122254F3A6000BF85F31188FA
:1030300000BFBDE8F0812DE9F04106460C4616B907
:103040001D48006800E03046074600F0C1F907F16E
:103050005000005D022805D1002107F15000015504
:10306000012500E0002500F0C2F92846BDE8F08106
:103070002DE9F04106460C46174616B90E48006881
:1030800000E03046054600F0A3F905F14C0050F889
:10309000248050F82400B84305F14C0141F8240085
:1030A00000F0A5F94046BDE8F08100002C000020AA
:1030B000A800002034010020140000203800002067
:1030C0005000002010B501469D4800E000680368EC
:1030D0008B42FBD30246436813448B4204D14368BE
:1030E0004C682344436001460A464B681344046815
:1030F000A34211D1934C03682468A34208D04B68C3
:103100000468646823444B6003681B680B6005E037
:103110008C4B1B680B6001E003680B60884200D099
:10312000016010BD30B54FF48843874800F00704B4
:103130002CB1C01D20F00700834C041B1B1B024652
:103140007F4C226000247E4D6C60D018083820F03F
:1031500007007C4C206000247A4D2D686C60794D0E
:103160002D682C601146441A4C60764C24680C6023
:10317000764D4C682C60764D4C682C6030BD2DE946
:10318000F04705464FF00009FEF7C9FE6D4800689C
:1031900008B9FFF7C7FF75B105F00700C0F11008C7
:1031A000C8F1FF30A84201D2012000E0002008B998
:1031B000454400E00025012000EBE570002841D0E7
:1031C000002D3FD06248006885423BD85C4E3046B7
:1031D000046801E0264624686068A84202D220689C
:1031E0000028F7D15748006884422BD0306800F19E
:1031F0000809206830606068401B102807D96719EB
:103200006068401B786065603846FFF75BFF504997
:1032100060680968081A4E490860084600684B490A
:103220000968884203D24A480068484908606068D3
:1032300040F0004060600020206046480068401C6C
:1032400044490860FEF77EFD4846BDE8F08770B54A
:1032500006463546E6B1083D2C466068C00FB8B159
:103260002068A8B9606820F000406060FEF757FE53
:103270003749606809680844354908602046FFF707
:1032800021FF35480068401C33490860FEF75AFDAD
:1032900070BD2F48006870472C4800687047704721
:1032A00070B504460D46002634B1701EB0FBF4F034
:1032B000A84201D2012000E0002050B904FB05F033
:1032C000FFF75DFF064626B104FB05F1304600F02E
:1032D00091FC304670BD2DE9F04104464FF00008E6
:1032E0000026771EFEF71BFE154805687DB10AE033
:1032F00008F101086868B04200D96E686868B84291
:1033000000D26F682D680F4800688542F0D1FEF743
:1033100019FD6660A760C4F80C8000F059F80C48ED
:10332000006820600B48006860610B480068A0617D
:1033300006480068206100F05AF8BDE8F0810000FE
:10334000540000205C000020700100206400002078
:1033500060000020680000206C00002000BFBF203B
:1033600080F31188BFF34F8FBFF36F8F00BF00BF93
:10337000FEE7001F4FF080730360001F21F0010380
:103380000360001F2D4B0360143802602038704723
:1033900000204FF0E021086188612948486107203A
:1033A0000861704710B52748006840F47F00254940
:1033B00008600846006840F07F400860FFF7E8FFBB
:1033C000002021490860FCF7CFFE002010BD7047A7
:1033D00000BFBF2080F31188BFF34F8FBFF36F8F03
:1033E00000BF19480068401C17490860704716481C
:1033F0000068401E144908600846006820B9002093
:1034000080F3118800BF00BF704710B500BFBF2018
:1034100080F31188BFF34F8FBFF36F8F00BFFEF7AC
:10342000B6FB20B14FF0805006491C39086000BF40
:10343000002080F3118800BF10BD00005D3300083C
:103440003F19010020ED00E0700000200CB50020C5
:10345000019000906C48006840F480306A49086030
:1034600000BF6948006800F4003000900198401CDB
:103470000190009818B90198B0F5A06FF1D1624899
:10348000006800F4003010B10120009001E000203D
:1034900000900098012843D15C48006840F010007B
:1034A0005A4908600846006820F003000860084692
:1034B000006840F002000860534840685249486084
:1034C0000846406848600846406840F480604860AC
:1034D0000846406820F47C1048600846406840F484
:1034E000E81048600846006840F08070086000BF3F
:1034F0004548006800F000700028F9D04248406854
:1035000020F00300404948600846406840F002004F
:10351000486000BF3C48406800F00C000828F9D122
:103520000CBD10B5FFF792FF10BD10B5364800680E
:1035300040F00100344908600846406834490840BA
:103540003149486008460068324908402E49086001
:103550000846006820F4802008600846406820F48F
:10356000FE0048604FF41F008860FFF7DAFF4FF05D
:1035700000602949086010BD10B50021002000221C
:10358000214B5B6803F00C0121B1042906D0082906
:1035900028D107E0214B224C236027E01F4B204C11
:1035A000236023E0184B5B6803F47010164B5B68D4
:1035B00003F48032022303EB904022B9194B4343BA
:1035C000174C23600DE0104B5B6803F4003323B10C
:1035D000144B4343124C236003E0104B4343104C05
:1035E000236003E00D4B0E4C236000BF00BF064B71
:1035F0005B68C3F303130C4CE15C094B1B68CB40C5
:10360000074C236010BD0000001002400020024063
:103610000000FFF8FFFFF6FE08ED00E000127A0060
:103620007400002000093D00780000200648804713
:1036300006480047FEE7FEE7FEE7FEE7FEE7FEE797
:10364000FEE7FEE7FEE7FEE72B3500083101000844
:1036500010B586B0044601218803FDF7C5F90121A4
:103660000420FDF7C1F918208DF817004FF4007001
:10367000ADF8140003208DF8160005A97248FCF778
:10368000F7FE48208DF817004FF48060ADF8140065
:1036900003208DF8160005A96B48FCF7E9FE01949C
:1036A0000020ADF810000C20ADF80E000020ADF8A1
:1036B0000C00ADF80A00ADF80800012240F22551D7
:1036C0006248FDF7D0FA01A96048FDF734FA2520D9
:1036D0008DF8000001208DF803008DF801008DF8B1
:1036E00002006846FCF7FBFD01215848FDF7AFFAE0
:1036F0004FF4A060FCF7EEFD06B010BD10B586B02B
:10370000044601218804FDF77CF901210820FDF71A
:103710006BF918208DF817004FF48060ADF8140095
:1037200003208DF8160005A94948FCF7A1FE4820A2
:103730008DF817004FF40060ADF8140003208DF8E9
:10374000160005A94248FCF793FE01940020ADF84D
:1037500010000C20ADF80E000020ADF80C00ADF804
:103760000A00ADF80800012240F225513948FDF762
:103770007AFA01A93748FDF7DEF927208DF8000015
:1037800001208DF803008DF8010002208DF8020061
:103790006846FCF7A4FD01212E48FDF758FA4FF4C6
:1037A000A060FCF797FD06B010BD10B5044600BF41
:1037B00080212848FDF726FB0028F9D0214625481E
:1037C000FDF7B2FA10BD70B505460E46002408E0BC
:1037D000285DFFF7EAFF295D1F4800F06BF8601CC9
:1037E00084B2B442F4DB70BD10B540F225511948E3
:1037F000FDF71EFB01280CD11648FDF799FAC4B25B
:103800002146154800F056F840F225511148FDF7C1
:1038100039FB10BD70B504460D460AE00E4920463E
:1038200000F05CF8012800D170BD29460B4800F07B
:10383000A9F9F3E70A46054900BF0B8803F08003A6
:10384000002BFAD088807047000801400038014002
:10385000000C014000480040704500208800002016
:1038600010B504460020607520751421204600F034
:10387000C1F910BD014639B1487D0A7D904201D1A0
:10388000012070470020FCE70020FAE710B5014650
:1038900071B1087D401C142390FBF3F403FB14006A
:1038A000C2B2487D904201D1012010BD0020FCE74A
:1038B0000020FAE770B504460D4674B12046FFF7C4
:1038C000E5FF012809D0207D2554207D401C1421CE
:1038D00090FBF1F201FB1200207570BD70B505463A
:1038E0000C4624B12046FFF7C5FF012801D1002076
:1038F00070BD607D401C142190FBF1F201FB1200B1
:103900006075607D205C28700120F1E7024612B1ED
:103910001173084670474FF0FF30FBE7014611B1C5
:1039200091F90C0070474FF0FF30FBE770B504468B
:103930000D4604B3EDB125601820FFF720FCA06010
:103940001620FFF71CFC20610820FFF718FC6060C0
:103950000420FFF714FC60612069FFF781FF6069B4
:1039600000F000F9606900F005F9022020730120E1
:1039700070BD0020FCE70020FAE710B5044684B1D2
:10398000A068FFF764FC2069FFF761FC6068FFF73F
:103990005EFC6069FFF75BFC2046FFF758FC0120E6
:1039A00010BD0020FCE72DE9F04705460E461746FE
:1039B00098462846FFF7B2FF04463946304600F0E5
:1039C000C1F802215EA000F0BDF84146686900F030
:1039D000D9F88146B9F1000F05D0022C03D014B1FB
:1039E000601C00B100BF0120BDE8F0872DE9F04167
:1039F00005460E46174618210120FFF751FC0446E4
:103A000014B90020BDE8F08129460120FFF748FCE9
:103A10002060206820B92046FFF719FC0020F1E75C
:103A2000656026730020607367612046EAE710B581
:103A3000044624B1206810B12068FFF708FC1CB1CF
:103A40002046FFF704FC002410BD2DE9F041044698
:103A50000D461646002714B9781EBDE8F0814FF0D8
:103A6000FF31606900F08EF800202073A5600DB171
:103A7000A8606873304600F0C8F88046414630467A
:103A800000F060F802212EA000F05CF81DB1207B50
:103A900008B14FF0FF370020A060606900F081F8A6
:103AA0003846DAE72DE9F04104460D4626684FF026
:103AB0000008012724B1607BA84201DB002D02DC55
:103AC0000020BDE8F08101270AE0BD4202D1B046E6
:103AD0004046F6E7304600F098F8401C06447F1C4C
:103AE000607BB842F1DA0020EBE70FB4F8B504468A
:103AF0000D460026002729462046FFF7D3FF070082
:103B000003D1401EF8BC5DF814FB09A800903846AC
:103B1000009A089900F080F8064600200090304690
:103B2000F0E79AB00BE001A908194FF0FF3100F05F
:103B300011F8002101AA601C1154641C00BFF2E7B7
:103B40000D0A000070B505460C46A1B22846FFF7E5
:103B50003AFE70BD70B504460D4629462046FFF773
:103B600059FE70BD10B504460120FDF79CFB206096
:103B7000002010BD10B504464FF0FF312068FDF75E
:103B8000DFFC10BD70B504460D4629462068FDF7E0
:103B9000D7FC70BD10B5044600212068FDF7D0FCAD
:103BA00010BD10B5044600231A4619462068FDF7DB
:103BB000E1FA10BD10B504462068FDF760FE002054
:103BC00010BD40EA01039B0703D009E008C9121F9A
:103BD00008C0042AFAD203E011F8013B00F8013BC7
:103BE000521EF9D27047D2B201E000F8012B491EF3
:103BF000FBD270470022F6E710B513460A4604468A
:103C00001946FFF7F0FF204610BD421C10F8011BBB
:103C10000029FBD1801A70470FB400B58DB010A9F0
:103C200009900B9000914FF0FF300A9000200C900B
:103C300005480690054807906A4609A80F9900F0C4
:103C400099FB0DB05DF814FB91430008AF430008E9
:103C50002DE9F05F0546002092469B4688460646C1
:103C6000814640241BE0284641464746224600F054
:103C7000B2FC53465A46C01A914110D31146184619
:103C8000224600F099FC2D1A67EB01084F462246A8
:103C90000120002100F090FC17EB00094E41201E8E
:103CA000A4F10104DFDC484631462A464346BDE81C
:103CB000F09F2DE9FF4F1C4681B00021D4E9016738
:103CC00091464FF0FF358A468846A1696D1C0298DF
:103CD0008847216A834688470028F6D1BBF1FF3F19
:103CE0000CD026F4C066002F1ADD700615D5BBF186
:103CF0002B0F0AD0BBF12D0F0FD104E04FF0FF3096
:103D000005B0BDE8F08F46F48066A1696D1C02988D
:103D100088477F1E8346002F02DDBBF1300F03D0A2
:103D2000B9F1000F2AD025E0A1696D1C46F4007698
:103D30007F1E029888478346002F05DDBBF1780F70
:103D400006D0BBF1580F03D0B9F1000F10D011E02D
:103D5000B9F1000F02D0B9F1100F0BD1A1696D1CA0
:103D600026F400767F1E029888478346102000E0E4
:103D7000082081464FEAE970009017E00A20F8E732
:103D80004346AAFB092803FB0980DDF800C07F1E1B
:103D90000AFB0C0112EB0B0A41EBEB78A16946F42C
:103DA000007605F10105029888478346002F06DD5D
:103DB0004946584600F024FC5FEA000BE0D5E16973
:103DC00002988847B00502D46FF0010098E7F00729
:103DD00018D1700610D57005514605D50023D1EBDA
:103DE000030163EB080200E042462068031D2360E4
:103DF0000068C0E9001205E02068011D216000682C
:103E0000C0E900A828467BE72DE9FF5F1D464FF07B
:103E1000FF3BD5E9014691465F464FF00008A9698E
:103E20007F1C01988847296A824688470028F6D176
:103E3000BAF1FF3F0CD024F4C064002E19DD6006F7
:103E400014D5BAF12B0F09D0BAF12D0F0ED103E022
:103E5000584604B0BDE8F09F44F48064A9697F1C13
:103E600001988847761E8246002E02DDBAF1300F97
:103E700003D0B9F1000F26D032E0A969761E44F4D0
:103E800000747F1C019888478246002E05DDBAF138
:103E9000780F06D0BAF1580F03D0B9F1000F10D047
:103EA0001EE0B9F1000F02D0B9F1100F18D1A969C5
:103EB000761E24F400747F1C0198884782461020E7
:103EC00002E0082000E00A20814609E008FB09081A
:103ED000A969761E44F400747F1C019888478246C5
:103EE000002E05DD4946504600F08AFB0028EDDA39
:103EF000E96901988847A00502D46FF00100A8E79E
:103F0000E00725D1600613D5600502D5C8F1000091
:103F100000E0404629680A1D2A600968220501D58B
:103F2000087015E0220701D5088011E008600FE055
:103F30002868011D29600068210502D580F80080ED
:103F400006E0210702D5A0F8008001E0C0F800805B
:103F500038467EE72DE9FF5FD2E901A74FF0000860
:103F6000916999461446DDF838B04646019888476D
:103F7000054659EA0B0005D009E0A169761C0198B5
:103F800088470546216A284688470028F5D1681CDD
:103F900003D05FEACA7005D015E04FF0FF3004B0DF
:103FA000BDE8F09F2068011D2160D0F800800AE084
:103FB0005FEACA7001D108F8015BA169761C7F1E17
:103FC000019888470546002F1ADD681C18D0B9F102
:103FD000000F0DD0E81705EBD060421120F01F0054
:103FE00059F822102A1A012090400142E0D107E03E
:103FF000BBF1000FDCD1216A284688470028D7D0C2
:10400000E169019888470AF0010050EA0B0002D1EB
:10401000002188F80010A068B84203DDBBF1000F52
:1040200003D017B16FF00100B9E73046B7E70000E1
:104030002DE9FF4F087881B09946FF2805D0491C2B
:104040002D2804D00024002308E000230BE00124E5
:10405000F9E703EB830300EB4303491C0878FF28CF
:10406000F7D104B15B4200200090147801462D2C5A
:1040700001D02B2C04D1521C2D2C12D000240094E2
:1040800000251678FF2E0ED00A24A0FB04C801FBE1
:104090000481002700FB0711521C16EB0C0069413C
:1040A000EFE70124EBE7994450EA01020ED0002427
:1040B000AA4D2646DFF8A88200F09FFC82468B4678
:1040C000B9F1000009DAC9F100071BE001980021ED
:1040D000C0E9001105B0BDE8F08F074612E0F8070F
:1040E00007D022462B463046414600F071F906467D
:1040F000884622462B461046194600F069F90446C8
:104100000D467F10002FEAD1B9F1000F3246434629
:104110005046594602DA00F0CDF901E000F058F9B6
:10412000009A0AB181F00041019AC2E90001D1E789
:104130002DE9FF4F1F468DB0D7E901464FF0FF38FC
:104140002E2045464FF000090B90B9696D1C0E9862
:104150008847396A824688470028F6D1BAF1FF3F7E
:104160000AD024F4D064002E11DDBAF12B0F08D050
:10417000BAF12D0F0BD102E0404611B0ABE744F489
:104180008064B9696D1C0E9888478246761E694620
:10419000600501D52D2000E02B208DF8000001F1F5
:1041A000010B0DF1200809E0B9696D1C0E988847D4
:1041B00082460F9844F40074761E0560002E02DDDE
:1041C000BAF1300FF0D00B998A453ED144F080040B
:1041D00006E00F99681CA9F1010944F40074086015
:1041E000B9696D1C761E0E98884782463028F0D03B
:1041F0002BE00B998A4505D1200603D444F08004B6
:10420000761E18E0504600F08CFC08B30DF1130147
:10421000761E44F400748B4508D2AAF130000BF8E6
:10422000010B200607D5A9F1010003E0200602D406
:1042300009F101008146A00502D50F99681C0860AC
:10424000B9696D1C0E9888478246002ED1DC53E078
:10425000002E51DDBAF1650F02D0BAF1450F4BD1F6
:10426000A00549D5B9696D1C24F44074761E0E98DA
:1042700088478246002E0CDD2B2804D0BAF12D0F82
:1042800007D144F48074B9696D1C0E988847824642
:10429000761EE00501D52D2100E02B2108F8011B39
:1042A000CDF82C8021E00DF12901761E44F4007434
:1042B00088450CD2AAF1300010F0FF0088F8000009
:1042C00002D10B99884509D908F1010806E0E005FB
:1042D00001D5244801E042F20F708146B9696D1C96
:1042E0000E98884782460F980560002E04DD5046E0
:1042F00000F017FC0028D6D1F9690E988847FF20F6
:104300008BF8000088F800000020069007904B46CC
:104310006A4608A906A8FFF78BFEA00502D46FF035
:1043200001002AE714F0240F0AD0E00714D1DDE9D8
:1043300006123868031D3B600068C0E900120BE0FC
:10434000DDE9060100F065FB0146E00704D13868AD
:10435000021D3A600068016028460EE70000244014
:104360000000F03FF1D8FFFF0268114413780160AC
:1043700018467047D1600449516104491162002117
:104380001161114600F04AB969430008F745000879
:10439000426842B1016811F8013B23B1521EC0E9E5
:1043A0000012184670470121C160881E704742689C
:1043B0005AB1C368016843B983688B4205D0491E6E
:1043C000521CC0E90012002070474FF0FF307047C8
:1043D0002DE9FE4F81EA030404F0004421F000417E
:1043E00000944FF0000B23F0004350EA01045ED02C
:1043F00052EA03045BD0C3F30A54C1F30A552C44B8
:10440000A4F2F3340194A0FB0254C1F3130141F46C
:104410008011C3F3130343F4801301FB024400FB38
:10442000034E840A970A44EA815447EA8357A4FB5F
:10443000076802958D0A05FB07854FEA932C04FB5C
:104440000C542705029D4FEA065847EA1637B5EB8C
:1044500008056EEB070C870E920E47EA811742EAB9
:104460008312A7FB0201B6EB0B0164EB00042B0DDA
:1044700043EA0C335E1844EB1C50DA465146E7FB26
:104480000201C5F313044FEA0B3343EA14534FEA16
:104490000432019C43EA0603A4F10C040294009C3C
:1044A000CDE900B400F05BFA03B0BDE8F08F002066
:1044B0000146F9E72DE9F04D81EA030404F0004BD1
:1044C00021F0004514464FF0000A23F0004150EA65
:1044D000050220D054EA01021DD0C5F30A57024656
:1044E000C5F31303C1F31300C1F30A5640F480155A
:1044F00043F48013A7EB0608101BD64608F2FD38DC
:1045000073EB050002D308F1010801E092185B414A
:10451000B8F1000F03DA00200146BDE8F08D00205D
:104520004FF48011064684460EE0171B73EB050717
:1045300005D3121B63EB050306434CEA010C490843
:104540004FEA300092185B4150EA0107EDD152EA80
:10455000030012D082EA040083EA0501084305D073
:10456000101BAB4106D20122002306E000224FF0CF
:10457000004302E06FF0010253101AEB06004CEB0F
:10458000085110EB0A0041EB0B01BDE8F04D00F0C3
:10459000D9B90000064C074D06E0E06840F0010381
:1045A00094E8070098471034AC42F6D3FBF7C4FDFB
:1045B000CC4F0008EC4F0008202A04DB203A00FA18
:1045C00002F1002070479140C2F1200320FA03F36A
:1045D000194390407047202A04DB203A21FA02F068
:1045E0000021704721FA02F3D040C2F1200291402D
:1045F000084319467047C0B24FF4F05100F026BA94
:104600003A2800D2303820F02002412A01D3A2F10A
:104610003700884201D34FF0FF3070472DE9F34F48
:104620008BB04FF0000801F10C000C464FF0010B6D
:1046300046460DF1080A01906269012101989047F0
:1046400005002DD0252D2CD0216A8847C0B1626984
:10465000012101989047216A88470028F7D1411E1F
:1046600062690198904700E0761CA1690B98884721
:10467000216A88470028F7D1E1690B988847DBE772
:10468000A1690B9888470746A84201D1761CD3E759
:10469000E1690B9888477F1C02D1B8F1000F6FD0F9
:1046A00043E1002762693D463946019890472A2830
:1046B00004D162690121019890470125DFF88092B9
:1046C0006269012101989047A0F130010A290AD2BC
:1046D0004F45E5DC07EB870100EB4107303FDFD4B6
:1046E00045F01005ECE7E90601D46FF000476C28AF
:1046F0000AD04C2814D0682815D06A280DD0742808
:104700001CD07A281AD01DE06269012101989047D7
:104710006C2802D045F0040514E045F002050DE0D8
:1047200045F020050AE06269012101989047682858
:1047300002D045F0080505E045F4006562690121F5
:1047400001989047C4E9015765283DD019DC5828E5
:1047500077D00CDC452837D004DC252826D041282A
:1047600031D131E046282FD047282CD12CE05B28CE
:104770007DD0612828D0632879D0642823D157E0E0
:10478000CDE06F2845D008DC66281DD067281BD0F7
:10479000692821D06E2816D127E0702842D07328CE
:1047A00065D0752844D078280DD14AE0A1690B98CE
:1047B0008847054625283FF469AFE1690B9888478B
:1047C0006D1C3FF46AAFB0E023466A466FF001000B
:1047D0000B99FFF7ADFC9BE045F040006060A80737
:1047E00023464FF0000233D43BE02068011D2160D6
:1047F0000068290501D506701EE7290701D5068046
:104800001AE7A90703D5F117C0E9006114E70660AC
:1048100012E745F040006060A80723464FF0080209
:1048200016D41EE040F60E0125EA0100606016E095
:1048300045F040006060A80723464FF00A0207D405
:104840000FE045F040006060A80708D5234610221D
:104850006FF001000B99FFF72CFA59E007E02346AF
:1048600010226FF001000B99FFF7CEFA50E04FF0E5
:1048700000094F464B46632802D05B2806D040E033
:10488000E80601D40120A06001273AE06269012115
:10489000019890475E2805D14FF0010962694946A9
:1048A00001989047216939B900210B46524642F8D8
:1048B0002130491C0829FADBB0B3216969B9C11755
:1048C00000EBD1614B110AEB830221F01F01411A69
:1048D0000120136888400343136062690121019835
:1048E00090475D28E8D1B9F1000F09D0002051466A
:1048F00051F82020D24341F82020401C0828F7DB43
:1049000002AB224600976FF001000B99FFF722FBE4
:1049100000280CDA401C08D1BBF1000F05D04FF085
:10492000FF300DB0BDE8F08FFFE74046F9E7E9073B
:1049300001D108F1010806444FF0000B7CE60000AD
:10494000CCCCCC0C10B5002B08DA401C41F1000196
:1049500092185B411A4301D120F0010010BD2DE9EE
:10496000F04D92469B4611B1B1FA81F202E0B0FAE5
:1049700080F220329046FFF71FFE04460F4640EAC1
:104980000A0041EA0B0153465A46084313D0114628
:1049900053EA010019D0C8F140025046FFF71BFE50
:1049A00005460E46504659464246FFF705FE084367
:1049B00005D0012004E020463946BDE8F08D0020F6
:1049C000054346EAE0762C4337430A986305E40A38
:1049D000A0EB08000022FD0A44EA47540A3002D541
:1049E00000200146E9E7010510196941DDE90845A4
:1049F00000196941BDE8F04DA4E70EB540F233421D
:104A000002920022CDE900221346FFF7A8FF03B06F
:104A100000BD01F0004330B421F0004150EA010232
:104A200006D00A0DA2F56072C1F31301002A02DC60
:104A300030BC00207047440F44EAC104C100E018B4
:104A400030BC00EBC25000F015B800007F2801D93F
:104A5000002208E0064A02EB5002C007127800D19B
:104A6000120902F00F020120904008407047000038
:104A70008A4F00080029A8BF7047401C490008BFA2
:104A800020F00100704710B4B0FA80FC00FA0CF07E
:104A900050EA010404BF10BC704749B1CCF12004B6
:104AA00021FA04F411FA0CF118BF01212143084343
:104AB000A3EB0C01CB1D4FEA00614FEA102042BF6F
:104AC000002010BC704700EBC35010440029A4BF65
:104AD00010BC7047401C490008BF20F0010010BC0A
:104AE000704700000FB4054B10B503A9044A0298A3
:104AF00000F01EF810BC5DF814FB0000353800080B
:104B00008C00002002E008C8121F08C1002AFAD158
:104B100070477047002001E001C1121F002AFBD13D
:104B2000704730380A2801D20120704700207047B2
:104B30002DE9FF4F8DB00F460546002606E02528DB
:104B40000BD0DDE90F1290476D1C761C28780028E9
:104B5000F5D111B03046BDE8F08F0024A246A14641
:104B60000122EA4900E0044315F8013F203B02FA24
:104B700003F00842F7D128782A2810D06FF02F02CE
:104B80002878A0F13001092914D80AEB8A0102EB38
:104B9000410144F0020400EB010A6D1CF0E701CF73
:104BA0005FEA000A03D544F40054CAF1000A44F055
:104BB00002046D1C28782E2817D115F8010F44F037
:104BC00004042A280ED06FF02F022878A0F13001BB
:104BD00009290AD809EB890102EB410100EB01091F
:104BE0006D1CF2E757F8049B6D1C28786C280FD0D9
:104BF00006DC4C2817D068280DD06A2814D104E0B0
:104C0000742810D07A280FD10DE044F400140AE083
:104C100044F4801401E044F440146978814202D1E4
:104C200004F580146D1C6D1C2A786E2A1FD00CDCD4
:104C3000632A31D004DC002A8BD0582A11D19FE09E
:104C4000642A68D0692A0CD165E0732A2ED004DC6E
:104C50006F2A73D0702A04D197E0752A6FD0782A12
:104C60006ED01046DDE90F129047761C4CE1C4F37C
:104C70000250022806D0032809D0042801CF09D009
:104C8000066041E101CFF117C0E900613CE101CFCD
:104C9000068039E1067037E117F8040B8DF8000043
:104CA00000208DF80100EB46012003E057F804BB1B
:104CB0004FF0FF3061074FF0000102D40DE008F122
:104CC0000101884649450FDA8045F8DB1BF80810DA
:104CD0000029F4D108E008F1010188468142FADB9D
:104CE0001BF808100029F6D1DDE90F23AAEB080014
:104CF0008146214600F032F9304400EB080604E01A
:104D0000DDE90F121BF8010B9047B8F10108F7D24B
:104D100021464846F3E00A21C4F302534FF0000B4A
:104D20000891022B04D001CFC117032B09D00AE050
:104D3000FF1D27F00707F7E8020108E02EE01DE05D
:104D40001EE000B2C117042B01D140B2C1170029E7
:104D500007DA4FF0000CD0EB0C006CEB01012D23B7
:104D600002E0230504D52B238DF82430012303E032
:104D7000E30701D02023F7E7984656E00A210EE02A
:104D800010204FF0000B08900CE010214FF0000BAA
:104D900044F004044FF00809089103E008214FF0A3
:104DA000000B0891C4F30253022B04D001CF002161
:104DB000032B06D006E0FF1D27F00707F7E80201E6
:104DC00003E080B2042B00D1C0B24FF000082307EB
:104DD0002BD5702A07D0DDF820C08CF0100C5CEACF
:104DE0000B0C05D00EE040238DF82430012308E0A1
:104DF00050EA010306D030238DF824308DF82520A9
:104E000002239846DDF820C08CF0080C5CEA0B0CFD
:104E10000BD150EA010301D1630706D530238DF889
:104E200024304FF00108A9F10109582A04D038A212
:104E30000B9208AA0A920BE03AA2F9E75B46089A9D
:104E4000FEF706FF0B9B9B5C0A9A521E0A92137098
:104E500050EA0102F2D10A98ADEB000000F1200BFC
:104E6000600702D524F4803401E04FF00109D945F0
:104E700002DDA9EB0B0000E0002000EB0B01414438
:104E80000890AAEB010AE00306D4DDE90F232146CE
:104E9000504600F063F806444FF0000908E009A905
:104EA00011F80900DDE90F12904709F10109761C9C
:104EB000C145F4DBE0030CD5DDE90F232146504664
:104EC00000F04CF8064404E0DDE90F123020904772
:104ED000761C0899481E08900029F5DC08E00A981D
:104EE0000A990078491C0A91DDE90F129047761C57
:104EF000BBF10001ABF1010BF1DC21465046DDE9CD
:104F00000F2300F019F806446D1C1FE60928010064
:104F1000303132333435363738396162636465662F
:104F200000000000303132333435363738394142F1
:104F300043444546000000002DE9F04104460025A9
:104F40001E461746880404D405E039462020B047A1
:104F50006D1C641EF9D52846BDE8F0812DE9F041AD
:104F6000044600251E469046C80301D5302700E0C0
:104F70002027880404D505E041463846B0476D1C1B
:104F8000641EF9D52846BDE8F081DDDDDDDDDCBB42
:104F9000BBDDDDDDDDDDDDDDDDDD98888888888851
:104FA00088887777777777888888855555566666B5
:104FB0006666666666666668888883333332222250
:104FC0002222222222222228888D0000EC4F000873
:104FD0000000002090000000044B00087C500008F6
:104FE00090000020F8480000144B0008000000006A
:104FF000010203040102030406070809020406086B
:1050000000000000000000000000000000000000A0
:105010000000000000000000000000000000000090
:105020000000000000000000000000000000000080
:10503000000000000000000004000000000000006C
:105040000000000000000000000000000000000060
:10505000000000000000000000000000AAAAAAAAA8
:1050600000A24A0400000000000000000102030446
:0C50700006070809000000000000000016
:0400000508000131BD
:00000001FF
