:020000040800F2
:10000000284800209536000805020008070200086D
:100010000B0200080F020008130200080000000095
:100020000000000000000000000000004501000882
:10003000170200080000000089010008733400085E
:10004000AF360008AF360008AF360008AF360008FC
:10005000AF360008AF360008AF360008AF360008EC
:10006000AF360008AF360008AF360008AF360008DC
:10007000AF360008AF360008AF360008AF360008CC
:10008000AF360008AF360008AF360008AF360008BC
:10009000AF360008AF360008AF360008AF360008AC
:1000A000AF360008AF360008AF360008AF3600089C
:1000B000AF360008AF360008AF360008AF3600088C
:1000C000AF360008AF360008AF360008AF3600087C
:1000D000AF360008AF360008AF3600084F380008CA
:1000E000AF360008AF360008AF360008AF3600085C
:1000F000AF360008AF360008AF360008AF3600084C
:10010000AF360008AF360008AF360008AF3600083B
:10011000AF360008AF360008AF360008AF3600082B
:10012000AF360008AF360008AF360008AF3600081B
:10013000DFF80CD005F088FC00480047DD0100081E
:1001400028480020224B19680868B0E8F00F80F3B7
:100150000988BFF36F8F4FF0000080F311884EF0D5
:100160000D0E70470000000006480068006880F32C
:10017000088862B661B6BFF34F8FBFF36F8F00DFA1
:1001800000BF00BF08ED00E0EFF30980BFF36F8F01
:100190000F4B1A6820E9F00F106008B54FF0BF0050
:1001A00080F31188BFF34F8FBFF36F8F01F091FF82
:1001B0004FF0000080F31188BDE808401968086816
:1001C000B0E8F00F80F30988BFF36F8F704700BF6E
:1001D00014000020EFF305807047000010B503F015
:1001E0005CFF02A005F0D8FE002010BD57656C63CF
:1001F0006F6D6520746F204672656552544F530DC4
:100200000A000000704700BFFEE700BFFEE700BF26
:10021000FEE700BFFEE7704731490143314A1160F4
:10022000704770B5002100230F22C47804B32D4C11
:10023000246804F4E064C4F5E064210AC1F1040315
:10024000CA40447804FA03F1847814402143090138
:10025000254C0678A155047804F01F050124AC4014
:1002600005786D11AD0005F1E025C5F8004109E004
:10027000047804F01F050124AC401C4D067876116B
:1002800045F8264070BD1A4A0A400243154B1B1F11
:100290001A60704739B1134A121D12680243114B9C
:1002A0001B1D1A6006E00F4A121D126882430D4B97
:1002B0001B1D1A607047042808D14FF0E02109691E
:1002C00041F004014FF0E022116107E04FF0E0211E
:1002D000096921F004014FF0E0221161704700002C
:1002E0000000FA050CED00E000E400E080E100E031
:1002F00080FFFF1F10B50446CC48844208D101217D
:10030000042000F02DFB0021042000F029FB46E032
:10031000C748844208D10121082000F021FB0021B8
:10032000082000F01DFB3AE0C248844208D10121B8
:10033000102000F015FB0021102000F011FB2EE032
:10034000BD48844208D10121202000F009FB002192
:10035000202000F005FB22E0B848844208D10121AA
:10036000402000F0FDFA0021402000F0F9FA16E0EC
:10037000B348844208D10121802000F0F1FA002125
:10038000802000F0EDFA0AE0AE48844207D1012156
:10039000801500F0E5FA0021A01500F0E1FA10BD8B
:1003A00010B50121084600F0DBFA0021012000F021
:1003B000D7FA10BD2DE9F0410246002500260020A5
:1003C00000230024002791F803C00CF00F0591F8DA
:1003D00003C00CF0100CBCF1000F03D091F802C068
:1003E0004CEA050591F800C0BCF1000F31D014684B
:1003F00000202BE04FF0010C0CFA00F3B1F800C024
:100400000CEA03069E4220D183004FF00F0C0CFA39
:1004100003F7BC4305FA03FC4CEA040491F803C05B
:10042000BCF1280F06D14FF0010C0CFA00FCC2F809
:1004300014C00AE091F803C0BCF1480F05D14FF099
:10044000010C0CFA00FCC2F810C0401C0828D1D3E3
:100450001460B1F800C0BCF1FF0F34DD5468002017
:100460002EE000F1080C4FF0010808FA0CF3B1F887
:1004700000C00CEA03069E4221D183004FF00F0C0E
:100480000CFA03F7BC4305FA03FC4CEA040491F8A8
:1004900003C0BCF1280F05D100F1080C08FA0CF8D4
:1004A000C2F8148091F803C0BCF1480F07D100F1E5
:1004B000080C4FF0010808FA0CF8C2F81080401C34
:1004C0000828CED35460BDE8F0814FF6FF7101805B
:1004D000022181700421C170704702460020936898
:1004E0000B400BB1012000E00020704701468868F6
:1004F00080B2704702460020D3680B400BB1012048
:1005000000E0002070470146C86880B27047016172
:100510007047416170470AB1016100E04161704775
:10052000C16070474FF480320A4382618161826109
:1005300082698269704702460020434B18684FF673
:100540008073184040EA021008433F4B1860704720
:100550003E49C8617047F0B50A46002300240021D7
:10056000002500F00046B6F1004F02D1364EF16989
:1005700001E0354E7168C0F3034583B200F44016C4
:10058000B6F5401F08D121F070612F4E766826F035
:1005900070662D4F7E6012E000F48016B6F5801F65
:1005A00006D1032606FA05F4A14341F0706106E086
:1005B000460D360103FA06F6B14341F0706122B1EF
:1005C000460D360103FA06F6314300F00046B6F157
:1005D000004F02D11C4EF16101E01B4E7160F0BD75
:1005E00030B500228B071C0F0F2303FA04F2164BC1
:1005F00008338C1053F824309343134C08348D1077
:1006000044F8253023468C1053F824308C07240FEF
:1006100000FA04F423430C4C08348D1044F82530C0
:1006200030BD0A49DC310860704700000008014015
:10063000000C01400010014000140140001801406E
:10064000001C014000200140000001400000204249
:10065000DF48006840F00100DD4908600846406856
:10066000DC490840DA49486008460068DA49084031
:10067000D74908600846006820F4802008600846D2
:10068000406820F4FE0048604FF41F008860704707
:10069000CF49096821F48031CD4A116011460968BB
:1006A00021F480211160B0F5803F03D0B0F5802F98
:1006B0000ED106E0C649096841F48031C44A116090
:1006C00007E0C349096841F4A021C14A116000E074
:1006D00000BF00BF704710B5014600220023002074
:1006E0004A11012A02D1BA4C236806E0022A02D13B
:1006F000B74C236A01E0B64C636A01F01F02012483
:1007000094401C400CB1012000E0002010BD38B521
:10071000002000900024002500BF3120FFF7DBFF00
:1007200005460098401C00900098B0F5A06F01D0DD
:10073000002DF2D03120FFF7CEFF08B1012400E0F8
:100740000024204638BD01460020A14A106820F050
:10075000F80040EAC10010607047A0490860704787
:10076000024600209A4B586820F47C1042EA0103AC
:100770001843974B58607047984908667047014680
:100780000020934A506820F00300084350607047EF
:100790008F48406800F00C007047014600208C4AEA
:1007A000506820F0F0000843506070470146002078
:1007B000874A506820F4E060084350607047014663
:1007C0000020834A506820F4605040EAC100506025
:1007D000704729B17E4A527A02437D4B5A7204E037
:1007E0007B4A527A82437A4B5A7270477B49D8319E
:1007F0000860704701460020754A506820F4404068
:100800000843506070470021714A20321170704ACD
:1008100082F82010012802D004280AD104E0012126
:100820006B4A2032117005E00521694A20321170AF
:1008300000E000BF00BF7047694908607047644925
:10084000096A0143624A1162704765494439086088
:10085000704730B500210022002400235C4D6D68F4
:1008600005F00C0121B1042905D0082923D105E0A8
:100870005C4D056022E05B4D05601FE0544D6D68E6
:1008800005F47012524D6D6805F48034022505EBB5
:1008900092421CB9544D554305600BE04C4D6D68B8
:1008A00005F400351DB1504D5543056002E04D4D36
:1008B0005543056002E04B4D056000BF00BF444D4D
:1008C0006D6805F0F0010909484D6B5C0568DD4075
:1008D00045603F4D6D6805F4E061090A434D6B5C6E
:1008E0004568DD4085603A4D6D6805F46051C90A80
:1008F0003E4D6B5C4568DD40C560354D6D6805F467
:100900004041890B3A4D6B5CC568B5FBF3F5056159
:1009100030BD29B12E4A526902432D4B5A6104E081
:100920002B4A526982432A4B5A61704729B1284A9F
:1009300092690243264B9A6104E0254A92698243F8
:10094000234B9A61704729B1214AD2690243204B57
:10095000DA6104E01E4AD26982431D4BDA617047B6
:1009600029B11B4AD2680243194BDA6004E0184AE5
:10097000D2688243164BDA60704729B1144A126973
:100980000243134B1A6104E0114A12698243104B6F
:100990001A61704712494039086070470F49C864AE
:1009A00070470B49C87170470948406A40F0807031
:1009B00007494862704701460020054A92680A408C
:1009C0000AB1012000E00020704701498872704799
:1009D000001002400000FFF8FFFFF6FE0000424258
:1009E0008004424200127A0000093D00000000200D
:1009F0001000002010B50446FB48844209D10121B3
:100A00008803FFF7ADFF00214FF48040FFF7A8FFF8
:100A100032E0F648844209D101214804FFF7ADFFD6
:100A200000214FF40030FFF7A8FF25E0F048844292
:100A300009D101218804FFF7A0FF00214FF4802095
:100A4000FFF79BFF18E0EB48844209D10121C8045D
:100A5000FFF793FF00214FF40020FFF78EFF0BE01C
:100A6000E548844208D101210805FFF786FF0021EF
:100A70004FF48010FFF781FF10BD2DE9F04786B0DD
:100A800005460E460024A24600BFA1460027B089B5
:100A900000B100BF2F462C8A4CF6FF700440F0884E
:100AA00004432C82AC894EF6F3100440B08831899F
:100AB0000843718908430443AC81AC8A4FF6FF4078
:100AC0000440B0890443AC8201A8FFF7C2FEC648C7
:100AD000874202D1DDF810A001E0DDF80CA0A88962
:100AE00000F4004040B10AEBCA0000EB0A10316884
:100AF0004900B0FBF1F807E00AEBCA0000EB0A106E
:100B000031688900B0FBF1F86420B8FBF0F0040113
:100B10002009642101FB1089A88900F4004040B13C
:100B2000322000EBC900B0FBF1F000F007000443F5
:100B300008E0322000EB09106421B0FBF1F000F076
:100B40000F0004432C8106B0BDE8F0874FF4165126
:100B5000016000218180C18001810C21418100213F
:100B60008181704710B502460020108A4FF2FF03C2
:100B700018400B884C8823438C882343CC8823431C
:100B80001843108210BD0021018041808180C18006
:100B9000704721B1828942F40052828104E0828947
:100BA0004DF6FF731A4082817047F0B5034600246A
:100BB00000260025002040F66A17B94200D100BF88
:100BC0001846C1F3421401F01F06012707FA06F583
:100BD000012C01D10C3004E0022C01D1103000E0D6
:100BE00014301AB107682F43076002E00768AF436B
:100BF0000760F0BD1AB1838A0B43838202E0838AC7
:100C00008B4383827047028A4FF6F0731A40028248
:100C1000028A0A430282704782894FF2FF731A40A8
:100C2000828182890A438281704721B1828942F0A0
:100C30000202828104E082894FF6FD731A408281AC
:100C40007047028A4FF6DF731A400282028A0A4313
:100C50000282704721B1028A42F48042028204E09B
:100C6000028A4BF6FF731A4002827047C1F30802F2
:100C70008280704701468888C0F3080070478189E8
:100C800041F0010181817047028BD2B20283028B55
:100C900042EA012202837047028B02F47F42028300
:100CA000028B0A430283704721B1828A42F02002FC
:100CB000828204E0828A4FF6DF731A408282704794
:100CC00021B1828A42F01002828204E0828A4FF6C9
:100CD000EF731A408282704721B1828A42F0080283
:100CE000828204E0828A4FF6F7731A40828270474C
:100CF00021B1828942F40042828103E08289C2F3F9
:100D00000E028281704721B1828A42F4006282829F
:100D100004E0828A4FF2FF731A4082827047828A0F
:100D20004FF6FB731A408282828A0A43828270479E
:100D300021B1828A42F00202828204E0828A4FF666
:100D4000FD731A408282704702460020B1F5007F91
:100D500000D100BF13880B400BB1012000E0002040
:100D6000704701F40072B2F5007F00D100BFCA43A2
:100D70000280704770B50246002400230025002041
:100D800040F66A16B14200D100BFC1F3421501F02E
:100D90001F03012606FA03F3012D02D19689334081
:100DA00006E0022D02D1168A334001E0968A3340D4
:100DB0000C12012606FA04F41688344013B10CB163
:100DC000012000E0002070BD10B50022002340F695
:100DD0006A14A14200D100BF0A1201249440A3B2B8
:100DE000DC43048010BD0000003801400044004096
:100DF00000480040004C00400050004000F1080155
:100E000041604FF0FF31816000F10801C160016174
:100E100000210160704700210161704742684A600B
:100E200093688B60936859609160086103685B1CEC
:100E30000360704710B502460B685C1C0CB9106962
:100E400007E002F1080000E04068446824689C4222
:100E5000FAD944684C604C68A160886041600A61BE
:100E60001468641C146010BD01460A69D1E90130A0
:100E70009860D1E9010358605068884201D18868C0
:100E80005060002008611068401E106010687047B4
:100E90002DE9F04105460E4601272C46002C41D095
:100EA000E06B00283ED0B91EE06BB1FBF0F0216C86
:100EB000884237D302F0C0FAD4E90F12206801FB50
:100EC0000200A0600020A06320686060E06B401E0C
:100ED000226C216800FB0211E160FF2084F84400CD
:100EE00084F845009EB9206908B9012000E000207F
:100EF000A8B904F1100001F01EFB80B14FF0805042
:100F0000FE490860BFF34F8FBFF36F8F07E004F116
:100F10001000FFF773FF04F12400FFF76FFF02F0EA
:100F20009AFA00E000273846BDE8F0812DE9F0414B
:100F300006460D4617469846069C0DB9246000E00B
:100F40002760E663256401212046FFF7A1FFBDE885
:100F5000F0812DE9F84304460E4617460025DCB122
:100F6000681EB0FBF4F0B04216D304FB06F010F19B
:100F7000490F11D804FB06F909F1480002F0B3F853
:100F800005464DB1A84608F148083B464246314661
:100F900020460095FFF7CAFF2846BDE8F88370B5E4
:100FA000044602F049FA94F9455010E0606A08B925
:100FB000012000E0002038B904F1240001F0BBFA60
:100FC00018B101F0CFFB00E003E0681E45B2002D30
:100FD000ECDC00BFFF2084F8450002F03CFA02F090
:100FE0002BFA94F9445010E0206908B9012000E080
:100FF000002048B904F1100001F09DFA08B101F099
:10100000B1FB681E45B200E001E0002DECDC00BF42
:10101000FF2084F8440002F01EFA70BD70B505464A
:1010200002F00AFAA86BE96B884201D1012400E0C2
:10103000002402F010FA204670BD2DE9F04104466C
:101040000F4615464FF00008A66B206C48B9206883
:1010500000282CD1A06801F0FCFB80460020A06095
:1010600025E07DB93946226C606803F0D7FF216C1A
:10107000606808446060D4E90101884217D32068A1
:10108000606014E03946226CE06803F0C7FF216C11
:10109000E068411AE1602168E068884203D2216C6F
:1010A000A068411AE160022D01D106B1761E701CC4
:1010B000A0634046BDE8F0812DE9FF4383B00746B9
:1010C00088461D464FF000093C4600BF02F0B4F9C7
:1010D000A06BE16B884201D3022D28D12A464146FC
:1010E0002046FFF7AAFF0646606A08B9012000E023
:1010F000002068B904F1240001F01DFA88B14FF016
:1011000080507E490860BFF34F8FBFF36F8F08E0B8
:101110003EB14FF0805079490860BFF34F8FBFF365
:101120006F8F02F098F9012007B0BDE8F0830598B1
:1011300018B902F090F90020F6E7B9F1000F04D1D8
:1011400001A801F0DCFA4FF0010902F084F900F087
:101150009AFE02F071F994F94400401C10B9002085
:1011600084F8440094F94500401C10B9002084F82C
:10117000450002F070F905A901A801F0C7FAF0B91D
:101180002046FFF74BFFA0B104F11000059901F0D4
:1011900077F92046FFF703FF00F088FD002895D17E
:1011A0004FF0805055490860BFF34F8FBFF36F8FEA
:1011B0008CE72046FFF7F3FE00F078FD86E7204637
:1011C000FFF7EDFE00F072FD0020ADE710B504461C
:1011D00054B10020A06020600021E16000231A4685
:1011E00019462046FFF768FF10BD2DE9F04104467F
:1011F00001260027224600210120FFF7AAFE05460E
:101200002846FFF7E3FF2846BDE8F08170B50446A5
:101210000E4600254CB1A64207D8022200212046E6
:10122000FFF797FE054605B1AE63284670BD2DE970
:10123000FF4F81B0054616461F462C4600BFBF2112
:10124000EFF3118081F31188BFF34F8FBFF36F8FDE
:1012500000BF8146A06BE16B884201D3022F28D1E9
:1012600094F945A0A06B00903A4620460299FFF7FA
:10127000E4FE0AF1010070B9606A08B9012000E0DB
:10128000002038B904F1240001F055F910B10EB175
:10129000012030600AE001F0D4F88346DA4504D238
:1012A0000AF1010040B284F8450000BF4FF0010888
:1012B00001E04FF0000800BF89F3118800BF4046ED
:1012C00005B0BDE8F08F2DE9F05F05460E462C46CF
:1012D00000BFBF21EFF3118081F31188BFF34F8F5F
:1012E000BFF36F8F00BF8046D4F838A0E06B504545
:1012F00026D994F945900AF1010001E004ED00E0DF
:10130000A06309F1010070B9606A08B9012000E02A
:10131000002098B904F1240001F00DF970B16EB10C
:10132000012030600AE001F08CF88346D94504D2F0
:1013300009F1010040B284F8450000BF012700E038
:10134000002700BF88F3118800BF3846BDE8F09F32
:1013500070B5054602F070F8A86B08B9012400E0EA
:10136000002402F078F8204670BD70B504460D46A2
:10137000206C70B1216CE0680144E160D4E9021096
:10138000884201D32168E1602846226CE16803F0BD
:1013900045FE70BD2DE9F74183B005460F464FF07D
:1013A00000082C4600BF02F047F8A66BF6B139469C
:1013B0002046FFF7DAFF701EA063206908B90120FC
:1013C00000E0002060B904F1100001F0B4F838B179
:1013D0004FF08050F6490860BFF34F8FBFF36F8F17
:1013E00002F039F8012006B0BDE8F081059818B97F
:1013F00002F031F80020F6E7B8F1000F04D101A89F
:1014000001F07DF94FF0010802F025F800F03BFDF6
:1014100002F012F894F94400401C10B9002084F83E
:10142000440094F94500401C10B9002084F84500A0
:1014300002F011F805A901A801F068F9F0B92046F9
:10144000FFF786FFA0B104F12400059901F018F818
:101450002046FFF7A4FD00F029FC0028A3D14FF09F
:101460008050D3490860BFF34F8FBFF36F8F9AE767
:101470002046FFF794FD00F019FC94E72046FFF7A3
:101480008EFD00F013FC2046FFF762FF00288AD093
:101490000020A8E701464A6A22B10A6B1268C2F12D
:1014A000050000E0002070472DE9F34182B00546B9
:1014B00000272C46B84600BF01F0BEFFA66BFEB168
:1014C000701EA063206810B901F096FAA060206930
:1014D00008B9012000E0002060B904F1100001F01B
:1014E0002AF838B14FF08050B1490860BFF34F8FF0
:1014F000BFF36F8F01F0AFFF012004B0BDE8F081B2
:10150000039818B901F0A7FF0020F6E71FB9684655
:1015100001F0F5F8012701F09EFF00F0B4FC01F0A6
:101520008BFF94F94400401C10B9002084F844005B
:1015300094F94500401C10B9002084F8450001F0E2
:101540008AFF03A9684601F0E1F840BB2046FFF797
:10155000FFFEF0B1206838B901F06EFFA06801F01D
:1015600008F9804601F077FF04F12400039900F0A8
:1015700087FF2046FFF713FD00F098FB00289BD162
:101580004FF080508A490860BFF34F8FBFF36F8FD1
:1015900092E72046FFF703FD00F088FB8CE720462A
:1015A000FFF7FDFC00F082FB2046FFF7D1FE00288C
:1015B00082D0B8F1000F0BD001F03EFF2046FFF7BC
:1015C00069FF06463146A06801F0A4F901F043FF27
:1015D000002092E72DE9F74382B005460F464FF011
:1015E00000082C4600BF01F027FFD4F83890B9F16D
:1015F000000F1ED0E66839462046FFF7B6FEE660CB
:10160000606A08B9012000E0002060B904F12400FC
:1016100000F091FF38B14FF0805065490860BFF38A
:101620004F8FBFF36F8F01F016FF012005B0BDE8AB
:10163000F083049818B901F00EFF0020F6E7B8F126
:10164000000F04D1684601F05AF84FF0010801F08C
:1016500002FF00F018FC01F0EFFE94F94400401C7A
:1016600010B9002084F8440094F94500401C10B9DA
:10167000002084F8450001F0EEFE04A9684601F060
:1016800045F8F0B92046FFF763FEA0B104F124004D
:10169000049900F0F5FE2046FFF781FC00F006FB00
:1016A0000028A0D14FF0805041490860BFF34F8F10
:1016B000BFF36F8F97E72046FFF771FC00F0F6FA53
:1016C00091E72046FFF76BFC00F0F0FA2046FFF7A9
:1016D0003FFE002887D00020A8E72DE9F74F0546F8
:1016E00016462C4600BFBF21EFF3118081F311880D
:1016F000BFF34F8FBFF36F8F00BF8046D4F838A081
:10170000BAF1000F27D094F9449020460199FFF7D1
:101710002CFEAAF10100A06309F1010070B9206953
:1017200008B9012000E0002098B904F1100000F091
:1017300002FF70B16EB1012030600AE000F081FE5E
:101740008346D94504D209F1010040B284F844002F
:1017500000BF012700E0002700BF88F3118800BF09
:101760003846BDE8FE8F2DE9F047054689462C46F0
:1017700000BFBF21EFF3118081F31188BFF34F8FBA
:10178000BFF36F8F00BF0746A06B48B1D4F80C8041
:1017900049462046FFF7E9FDC4F80C80012600E029
:1017A000002600BF87F3118800BF3046BDE8F087F0
:1017B00004ED00E070B5044601F03EFEA56B01F0BB
:1017C0004AFE284670BD70B50446254601F034FE39
:1017D000D5E90E10461A01F03EFE304670BD0146B6
:1017E0000A46906B704770B504462546284601F0BE
:1017F000E2FC70BD01460A46936B0BB9012000E084
:101800000020704710B501460A46936BD46BA34283
:1018100001D1012000E0002010BD000010B500241F
:1018200007E004EB8401FE4A02EB8100FFF7E6FAD1
:10183000641C052CF5D3FB48FFF7E0FAFA48FFF7E4
:10184000DDFAFA48FFF7DAFAF948FFF7D7FAF9486C
:10185000FFF7D4FAF348F8490860F348F7490860FD
:1018600010BD10B5044601F0E7FDF5480068401CC6
:10187000F3490860F348006840B9F248046008463C
:10188000006801280DD1FFF7C9FF0AE0EE480068A3
:1018900038B9EC480068C06AE16A884201D8E94872
:1018A0000460EA480068401CE849086094F82C107D
:1018B00001208840E64909680843E5490860E16A73
:1018C00001EB8101D64A02EB81014868A060826881
:1018D000E260211D826851608160E16A01EB810153
:1018E000CF4A02EB81026261E16A01EB8101CC4ADD
:1018F00052F82110491CE26A02EB8202C84B43F8FD
:10190000221001F0A8FDD048006868B1CD480068F9
:10191000C06AE16A884207D24FF08050CD49086022
:10192000BFF34F8FBFF36F8F10BD2DE9FF5F804670
:101930000E469146DDE90E7A109CA9F10100216B5B
:1019400001EB800B2BF0070B7EB1002507E0715DEA
:1019500004F134004155705D00B902E06D1C102D9A
:10196000F5D300BF002143200155052F00D30427E4
:10197000E7626764201DFFF74EFA04F11800FFF7D5
:101980004AFA2461C7F10500A061646241465846E5
:10199000039A01F022FD2060BAF1000F01D0CAF8CD
:1019A0000040BDE8FF9F2DE9FF4F85B08046894686
:1019B0001746DDE912ABB80001F095FB064676B19B
:1019C000542001F090FB04462CB15421204603F032
:1019D0003EFB266304E0304601F0EDFB00E000240E
:1019E0007CB10020CDE900ABCDE902403A46494642
:1019F0004046089BFFF799FF2046FFF732FF01257D
:101A000001E04FF0FF35284609B0BDE8F08F10B572
:101A10000446206B01F0CFFB204601F0CCFB10BD4B
:101A200085480068006808B9012000E0002020B166
:101A30004FF0FF308849086005E07F480068C068C3
:101A4000006885490860704770B5054601F0F4FCF0
:101A500015B97C48006800E028460446201DFFF7C1
:101A600003FA78B9E06A00EB80006D4951F8200074
:101A700040B994F82C1001208840754909688143C9
:101A800073480160A06A18B104F11800FFF7ECF97F
:101A90006E480068401C6D4908606A4800688442CE
:101AA00009D1211D6248FFF7B9F96C480068401C54
:101AB0006A49086006E062480068401E60490860A4
:101AC000FFF7AEFF01F0C7FC5E480068844202D019
:101AD0002046FFF79CFF5C48006858B159480068F1
:101AE000844207D14FF080505A490860BFF34F8FAE
:101AF000BFF36F8F70BD2DE9F04100275848006893
:101B000000287DD157480068451C564805608DB9AE
:101B10004948D0F80080494800684749086047486C
:101B2000C0F8008050480068401C4F490860FFF72B
:101B300077FF00BF4848006885426FD300BF3E482A
:101B40000068006808B9012000E0002020B14FF0D3
:101B5000FF304149086090E037480068C068C468B9
:101B60006668B54202D23C48066086E06069D4E906
:101B700002128A60D4E902214A60211D42688A4229
:101B800001D1E1684160002262610168491E016083
:101B9000A06A98B1A06AD4E907128A60D4E9072143
:101BA0004A6004F1180142688A4201D1216A416009
:101BB0000022A2620168491E016000BF94F82C1047
:101BC0000120884022490968084321490860E16AE8
:101BD00001EB8101124A02EB81014868A060826832
:101BE000E260211D826851608160E16A01EB810140
:101BF0000B4A02EB81026261E16A01EB810100E0C4
:101C00004CE0074A52F82110491CE26A02EB8202BA
:101C1000034B43F822100B49E06A27E02EE0000056
:101C2000D4000020380100204C0100206001002079
:101C30007401002088010020180000201C000020F2
:101C4000240000201400002030000020400000206C
:101C50002C00002004ED00E04400002020000020C3
:101C600050000020280000203C0000200968C96ABC
:101C700088427FF664AF012761E700BFFE48006835
:101C8000C06A00EB8000FD4951F82000012800D90E
:101C90000127FB48006800B1012704E0F94800680B
:101CA000401CF84908603846BDE8F08170B5002452
:101CB000002601F0C1FBF4480068401EF2490860AC
:101CC0000846006800287DD1F0480068002879D0D7
:101CD0005BE0EF48C068C468A06AD4E907128A6074
:101CE000D4E907214A6004F1180142688A4201D10F
:101CF000216A41600022A2620168491E0160606998
:101D0000D4E902128A60D4E902214A60211D4268A6
:101D10008A4201D1E1684160002262610168491E86
:101D2000016094F82C1001208840DA4909680843C2
:101D3000D8490860E16A01EB8101D04A02EB8101D8
:101D40004868A0608268E260211D826851608160FD
:101D5000E16A01EB8101C94A02EB81026261E16A39
:101D600001EB8101C54A52F82110491CE26A02EBDD
:101D70008202C24B43F82210BF49E06A0968C96A6F
:101D8000884202D30120BE490860C148006808B9F2
:101D9000012000E0002000289BD00CB1FFF740FE9E
:101DA000B848056865B100BFFFF7A5FE10B1012076
:101DB000B34908606D1E002DF6D10020B1490860BE
:101DC000AF4800E009E0006838B101263007B249A9
:101DD0000860BFF34F8FBFF36F8F01F03CFB3046BD
:101DE00070BD2DE9F04105460E46AC480768A24893
:101DF0000068001DFFF738F850B99F48006890F858
:101E00002C1001208840A34909688143A148016042
:101E1000681CD8B9D6B1A249486897490968886052
:101E2000954982680968CA6093490968091D8268F2
:101E3000516091490968091D8160994A8E49096874
:101E40004A6111460968491C11601AE07C198A48E8
:101E500000684460BC4207D287480168091D914868
:101E60000068FEF7E7FF0CE083480168091D8E4813
:101E70000068FEF7DFFF8D480068844201D28B487E
:101E80000460BDE8F08180480068401C7E4908601D
:101E900070472DE9F047044688464FF00009FFF7E8
:101EA000F2FF7E480668206800EB08052068B04213
:101EB00007D92068A8420BD9B54209D94FF00109CA
:101EC00006E02068A84201D8B54201D94FF00109C7
:101ED0002560B9F1000F03D0A81B0021FFF781FF97
:101EE000FFF7E4FE07463FB94FF080506A490860AB
:101EF000BFF34F8FBFF36F8F4846BDE8F08770B5D3
:101F00000446002544B1FFF7BEFF00212046FFF73D
:101F100068FFFFF7CBFE05463DB94FF080505E49A4
:101F20000860BFF34F8FBFF36F8F70BD70B504466D
:101F300001F082FA14B95048006800E020460646D5
:101F4000F56A01F088FA284670BD70B5024600BFF8
:101F5000BF25EFF3118485F31188BFF34F8FBFF3D3
:101F60006F8F00BF214612B9434C246800E014462D
:101F70002346D86A00BF81F3118800BF70BD2DE9E8
:101F8000F04780460D464FF00009052D00D304258B
:101F900001F052FAB8F1000F02D13748006800E0B2
:101FA00040460446666CAE4265D0B5420BD9324815
:101FB000006884420DD030480068C06AA84208D842
:101FC0004FF0010905E02C480068844201D14FF030
:101FD0000109E76AE16A606C884200D1E5626564E4
:101FE000A06900F0004010B9C5F10500A06107EB41
:101FF0008701224A02EB81016069884201D10120F8
:1020000000E00020B0B3201DFEF72EFF30B9012004
:10201000B8402049096881431E48016094F82C109B
:10202000012088401B49096808431A490860E16A91
:1020300001EB8101114A02EB81014868A0608268CE
:10204000E260211D826851608160E16A01EB8101DB
:102050000A4A02EB81026261E16A01EB8101074AEF
:1020600052F82110491CE26A02EB8202034B43F84A
:1020700022101DE01DE028E014000020D400002004
:1020800038000020340000205000002024000020F0
:10209000600100202C00002004ED00E0280000205A
:1020A000880100201C0000201800002044000020AF
:1020B00000BFB9F1000F07D04FF08050F74908601A
:1020C000BFF34F8FBFF36F8F00BF01F0C4F9BDE8BE
:1020D000F087F348006818B10120F24908601DE05C
:1020E0000020F0490860F0480068B0FA80F0C0F1C4
:1020F0001F0101EB8102ED4B03EB82004268526845
:10210000426000F108024368934202D1426852687B
:1021100042604268D268E64B1A6000BF704770B5F3
:10212000054601F089F915B9E148006800E0284644
:102130000446201DFEF798FE78B9E06A00EB8000A7
:10214000DA4951F8200040B994F82C100120884059
:10215000D54909688143D4480160A06A18B104F1E7
:102160001800FEF781FE211DD248FEF757FE002021
:1021700009E004F15001095C012903D1002204F1B6
:1021800050010A54401C0128F3DB01F064F9CA48ED
:10219000006828B101F050F9FFF742FC01F05BF94B
:1021A000C3480068844217D1C348006840B14FF06B
:1021B0008050BA490860BFF34F8FBFF36F8F0BE0B9
:1021C000BC480068BD490968884203D10020B8496D
:1021D000086001E0FFF77DFF70BD10B501460020EB
:1021E0000A46B44C5369A34201D1012300E0002305
:1021F00073B1B34C936AA34201D1012300E00023E1
:1022000033B9936A0BB9012300E0002303B1012025
:1022100010BD70B505462C46A5480068844245D0DF
:10222000002C43D001F008F92046FFF7D6FFD8B3C1
:10223000201DFEF719FE94F82C10012088409A49C1
:102240000968084398490860E16A01EB8101974AEF
:1022500002EB81014868A0608268E260211D82680B
:1022600051608160E16A01EB8101904A02EB8102D9
:102270006261E16A01EB81018C4A52F82110491C2C
:10228000E26A02EB8202894B43F822108849E06A35
:102290000968C96A884207D34FF080507F490860B7
:1022A000BFF34F8FBFF36F8F01F0D5F870BD2DE9ED
:1022B000F04106460027344600BFBF21EFF31180EE
:1022C00081F31188BFF34F8FBFF36F8F00BF0546B7
:1022D0002046FFF782FF002841D07148006800289F
:1022E00038D17349E06A0968C96A884203D3012773
:1022F00001206C490860201DFEF7B6FD94F82C10F3
:102300000120884068490968084367490860E16A14
:1023100001EB8101654A02EB81014868A060826897
:10232000E260211D826851608160E16A01EB8101F8
:102330005E4A02EB81026261E16A01EB81015B4A64
:1023400052F82110491CE26A02EB8202574B43F813
:10235000221004E004F118015948FEF75FFD00BFA8
:1023600085F3118800BF3846BDE8F08110B516E04E
:1023700001F062F85348C068C468201DFEF774FD80
:102380004E480068401E4D4908604F480068401E96
:102390004D49086001F05FF82046FFF738FB4A48D6
:1023A00000680028E4D110BD00BFFFF7DFFF3F4801
:1023B00000680128F9D94FF0805038490860BFF310
:1023C0004F8FBFF36F8FF0E71CB5404800210B46DD
:1023D0008022CDE900103EA13F48FFF7E4FA044611
:1023E000012C14D100BFBF2080F31188BFF34F8FA1
:1023F000BFF36F8F00BF4FF0FF30384908600120F6
:102400002D49086000203649086000F0FFFF35487C
:1024100000681CBD10B500BFBF2080F31188BFF35A
:102420004F8FBFF36F8F00BF00202349086001F07A
:1024300002F810BD2A49086870470021284A106830
:1024400070471E4800687047014611B91848006877
:1024500000E00846024602F13400704770B50446B9
:10246000FFF711FD00F0E8FF1F48006820441E49F7
:10247000086000F0F0FFFFF719FC0546284670BD24
:1024800070B505460C460A48016818312846FEF723
:10249000D1FC01212046FFF7A4FC70BD04ED00E053
:1024A00050000020380000202C000020D400002024
:1024B00014000020880100203000002024000020AB
:1024C000600100207401002020000020480000204E
:1024D00049444C4500000000A923000844000020A6
:1024E000280000204C0000203400002070B5044675
:1024F0000D46164645F00040FE490968886160684F
:10250000FC490968C861FB49826809680A62F9499F
:102510000968183182685160F6490968183181608C
:10252000F44909688C622168491C21600121304608
:10253000FFF757FC70BD70B50346D868C168886A5C
:10254000D1E90745A560D1E90754656001F1180498
:102550004568A54201D10C6A446000258D6204687B
:10256000641E0460E448006800283DD14869D1E950
:102570000245A560D1E9025465600C1D4568A5427D
:1025800001D1CC68446000254D610468641E04607C
:1025900091F82C400120A040D84C24682043D74C0F
:1025A0002060CC6A04EB8404D54D05EB840460689C
:1025B00088608568CD600C1D85686C608460CC6A1D
:1025C00004EB8404CE4D05EB84054D61CC6A04EB2D
:1025D0008404CB4D55F82440641CCD6A05EB850579
:1025E000C74E46F8254010E0C64C6068C861856853
:1025F0000D6201F1180485686C608460C14D8D62C4
:102600002C462468641C2C6000BFBA4CC86A24683D
:10261000E46AA04204D901220120BB4C206000E002
:102620000022104670BD70B502460B4643F00041D3
:102630001160D0681169D2E90154AC60D2E901455A
:102640006C604C68944201D194684C600024146121
:102650000C68641E0C604169D0E90245A560D0E9B0
:1026600002546560041D4D68A54201D1C4684C60E8
:10267000002545610C68641E0C6090F82C40012117
:10268000A1409E4C246821439C4C2160C46A04EB09
:1026900084049B4D05EB8404616881608D68C5608E
:1026A000041D8D686C608C60C46A04EB8404944DD6
:1026B00005EB84054561C46A04EB8404904D55F82C
:1026C0002440641CC56A05EB85058D4E46F82540FF
:1026D000884CC16A2468E46AA14202D901218A4C6B
:1026E000216070BD10B5044600F0A6FE8748006862
:1026F000206087480068606000F0ADFE10BD83492F
:1027000009680160824909684160704770B50646F2
:102710000C4600F091FE7E4802687068131A20682B
:10272000401C08B9002519E07849306809688842DA
:1027300006D07068904203D80125002020600DE08B
:102740002068984207D92068C01A20603046FFF7F9
:10275000D6FF002502E000202060012500F07BFE6E
:10276000284670BD012068490860704761490868C3
:10277000704770B505462C460026002D67D05D4990
:10278000E06A0968C96A88425AD2A06900F000402C
:1027900028B958480068C06AC0F10500A061E16A24
:1027A00001EB8101564A02EB81016069884201D147
:1027B000012000E00020E0B3201DFEF755FB40B9EA
:1027C00094F82C10012088404C49096881434B48FB
:1027D000016048480068C06AE06294F82C1001204B
:1027E000884046490968084344490860E16A01EBAA
:1027F0008101434A02EB81014868A0608268E2607F
:10280000211D826851608160E16A01EB81013C4ACF
:1028100002EB81026261E16A01EB8101384A52F800
:102820002110491CE26A02EB8202354B43F8221068
:1028300004E0FFE72F480068C06AE062012606E076
:102840002C49606C0968C96A884200D2012630466A
:1028500070BD70B505462C460026002D48D0A06CF2
:10286000401EA064616CE06A884241D0A06C0028E0
:102870003ED1201DFEF7F8FA40B994F82C10012043
:1028800088401E49096881431C480160606CE06211
:10289000E06AC0F10500A06194F82C100120884086
:1028A00016490968084315490860E16A01EB81018E
:1028B000134A02EB81014868A0608268E260211D32
:1028C000826851608160E16A01EB81010C4A02EB90
:1028D00081026261E16A01EB8101094A52F821102B
:1028E000491CE26A02EB8202054B43F822100126E2
:1028F000304670BD14000020500000202C00002045
:10290000D400002060010020380000203C0000209E
:10291000280000202DE9F04706460F4634464FF0C8
:102920000109002E5AD0606CB84201D23D4600E049
:10293000656CE06AA84251D0A06C01284ED1D4F851
:102940002C80E562A06900F0004010B9C5F10500D7
:10295000A06108EB8801FE4A02EB810160698842B0
:1029600001D1012000E00020C0B3201DFEF77CFA59
:1029700040B994F82C1001208840F6490968814339
:10298000F448016094F82C1001208840F14909684E
:102990000843F0490860E16A01EB8101EC4A02EB6F
:1029A00081014868A0608268E260211D82685160F0
:1029B0008160E16A01EB8101E54A02EB810262611B
:1029C000E16A01EB8101E24A52F82110491CE26AF6
:1029D00002EB8202DE4B43F8221000BFBDE8F08715
:1029E000DD4909688869DC490968C96AC1F10501DE
:1029F000D94A126891617047D748006830B1D6490A
:102A0000096801F14800896C491C0160D2480068DE
:102A100070472DE9F04104460F46164600F00CFDC4
:102A2000CD4800684C3050F8240080B90121CA48D4
:102A300000685030015556B13046FFF7D2F94FF0DB
:102A40008050C6490860BFF34F8FBFF36F8F00F00F
:102A500002FD00F0F1FCC04800684C3050F82450F2
:102A60006DB137B10021BC4800684C3040F82410EB
:102A700005E0681EB84909684C3141F8240000217E
:102A8000B54800685030015500F0E5FC2846BDE827
:102A9000F0812DE9F04704460F4690461D46DDF8CB
:102AA000209000F0C9FCAC4800685030005D02285E
:102AB0001AD0A94909684C3101EB84000168B94377
:102AC00001600121A448006850300155B9F1000FA0
:102AD0000AD04846FFF785F94FF080509F490860BB
:102AE000BFF34F8FBFF36F8F00F0B5FC00F0A4FC75
:102AF0002DB1994800684C3050F824002860964861
:102B000000685030005D022801D0002609E092499B
:102B100009684C3101EB8400016821EA0801016079
:102B2000012600218C4800685030015500F093FCCC
:102B30003046BDE8F0872DE9F05F81460D46164628
:102B40001F46DDF828A04FF0010B4C4600F074FC46
:102B5000BAF1000F05D004F14C0050F82500CAF876
:102B6000000004F1500010F8058002214155052FA6
:102B700029D2DFE807F027030D171C0004F14C00F1
:102B800050F82500304304F14C0141F825001BE0CA
:102B900004F14C0050F82500401C04F14C0141F8B0
:102BA000250011E004F14C0040F825600CE0B8F17C
:102BB000020F04D004F14C0040F8256001E04FF012
:102BC000000B01E000E000BF00BFB8F1010F4AD1E7
:102BD0006069D4E902128A60D4E902214A60211DA9
:102BE00042688A4201D1E168416000226261016865
:102BF000491E016094F82C1001208840554909684D
:102C0000084354490860E16A01EB8101504A02EB34
:102C100081014868A0608268E260211D826851607D
:102C20008160E16A01EB8101494A02EB8102626144
:102C3000E16A01EB8101464A52F82110491CE26A1F
:102C400002EB8202424B43F822104349E06A0968D2
:102C5000C96A884207D94FF0805040490860BFF3E5
:102C60004F8FBFF36F8F00F0F6FB5846BDE8F09F23
:102C70002DE9F04F05460C46DDE909674FF00109E3
:102C8000294600BF4FF0BF0AEFF311808AF3118885
:102C9000BFF34F8FBFF36F8F00BF804626B101F1A6
:102CA0004C0050F82400306001F1500010F804C0CE
:102CB0004FF0020A00F804A0052B29D2DFE803F048
:102CC00027030D171C0001F14C0050F8240010439D
:102CD00001F14C0A4AF824001BE001F14C0050F8C5
:102CE0002400401C01F14C0A4AF8240011E001F1D3
:102CF0004C0040F824200CE0BCF1020F04D001F19C
:102D00004C0040F8242001E04FF0000901E000E011
:102D100000BF00BFBCF1010F6FD11148006800284F
:102D20006DD14869D1E902ABCAF808B0D1E902BA5D
:102D3000CAF804B001F1040AD0F804B0D34503D1B5
:102D4000D1F80CA0C0F804A04FF0000B0AE000007E
:102D5000D40000202C0000201400002004ED00E02E
:102D600050000020C1F814B0D0F800A0AAF1010A68
:102D7000C0F800A091F82CA0012000FA0AF0DFF8BA
:102D800094A2DAF800A040EA0A00DFF888A2CAF8A4
:102D90000000D1F82CA00AEB8A0ADFF87CB20BEB1A
:102DA0008A0ADAF804008860D0F808B0C1F80CB0DC
:102DB00001F1040AD0F808B0CBF804A0C0F808A0CC
:102DC000D1F82CA00AEB8A0ADFF84CB20BEB8A0B85
:102DD000C1F814B0D1F82CA00AEB8A0ADFF838B297
:102DE0005BF82AA00AF1010AD1F82CB00BEB8B0B8F
:102DF000DFF824E24EF82BA01EE02EE0FFE7DFF81C
:102E00001CA2DAF80400C861D0F808B0C1F820B0FC
:102E100001F1180AD0F808B0CBF804A0C0F808A057
:102E2000DFF8F8B1C1F828B0DA46DAF800A00AF104
:102E3000010ACBF800A000BFDFF8E4A1C86ADAF805
:102E400000A0DAF82CA0504507D90FB10120386056
:102E50000120DFF8D0A1CAF8000000BF88F3118874
:102E600000BF4846BDE8F08F2DE9F0410346144607
:102E7000184600BFBF27EFF3118287F31188BFF315
:102E80004F8FBFF36F8F00BF154600F15002565CA5
:102E900002275754121F52F82120521C00F14C07F0
:102EA00047F82120012E74D15F4A1268002A4CD1C4
:102EB0004269D0E9027CC7F808C0D0E902C7C7F868
:102EC00004C0071DD2F804C0BC4501D1C7685760D3
:102ED0004FF0000CC0F814C017687F1E176090F800
:102EE0002C700122BA404B4F3F683A43494F3A6039
:102EF000C76A07EB8707DFF820C10CEB87077A6802
:102F00008260D2F808C0C0F80CC0071DD2F808C013
:102F1000CCF804709760C76A07EB8707DFF8F8C042
:102F20000CEB870CC0F814C0C76A07EB8707DFF803
:102F3000E8C05CF827707F1CD0F82CC00CEB8C0C20
:102F4000DFF8D48048F82C7017E0344F7A68C261FB
:102F5000D2F808C0C0F820C000F11807D2F808C0A5
:102F6000CCF804709760DFF8B4C0C0F828C067469A
:102F70003F687F1CCCF8007000BF294FC26A3F68D1
:102F8000FF6ABA4205D90CB1012222600122254F05
:102F90003A6000BF85F3118800BFBDE8F0812DE9DC
:102FA000F04106460C4616B91D48006800E0304660
:102FB000074600F041FA07F15000005D022805D1F4
:102FC000002107F150000155012500E0002500F027
:102FD00042FA2846BDE8F0812DE9F04106460C464C
:102FE000174616B90E48006800E03046054600F066
:102FF00023FA05F14C0050F8248050F82400B8431F
:1030000005F14C0141F8240000F025FA4046BDE8E6
:10301000F08100002C000020D4000020600100207E
:1030200014000020380000205000002010B5014698
:10303000DC4800E0006803688B42FBD3024643682B
:1030400013448B4204D143684C68234443600146D7
:103050000A464B6813440468A34211D1D24C03685A
:103060002468A34208D04B680468646823444B601A
:1030700003681B680B6005E0CB4B1B680B6001E02D
:1030800003680B60884200D0016010BD30B54FF47A
:103090007053C64800F007042CB1C01D20F0070093
:1030A000C24C041B1B1B0246BE4C22600024BD4DBB
:1030B0006C60D018083820F00700BB4C206000245A
:1030C000B94D2D686C60B84D2D682C601146441ABE
:1030D0004C60B54C24680C60B54D4C682C60B54D07
:1030E0004C682C6030BD2DE9F04705464FF00009D3
:1030F000FEF7C9FEAC48006808B9FFF7C7FF75B115
:1031000005F00700C0F11008C8F1FF30A84201D255
:10311000012000E0002008B9454400E0002501201E
:1031200000EBE570002841D0002D3FD0A148006899
:1031300085423BD89B4E3046046801E02646246811
:103140006068A84202D220680028F7D1964800683B
:1031500084422BD0306800F1080920683060606834
:10316000401B102807D967196068401B78606560AC
:103170003846FFF75BFF8F4960680968081A8D4978
:103180000860084600688A490968884203D289486D
:10319000006887490860606840F000406060002077
:1031A000206085480068401C83490860FEF77EFD6A
:1031B0004846BDE8F08770B506463546E6B1083D9D
:1031C0002C466068C00FB8B12068A8B9606820F0CC
:1031D00000406060FEF757FE764960680968084461
:1031E000744908602046FFF721FF74480068401CBE
:1031F00072490860FEF75AFD70BD6E48006870475E
:103200006B4800687047704770B504460D4600264D
:1032100034B1701EB0FBF4F0A84201D2012000E0EE
:10322000002050B904FB05F0FFF75DFF064626B10C
:1032300004FB05F1304601F00AFF304670BD2DE970
:10324000F05F07460C464FF0000BFEF71CFE564899
:10325000006808B9FFF71AFF04F00040002868D1A1
:1032600004F0070020B104F00700C0F10800044496
:10327000002C5ED04F48006884425AD847B9204697
:10328000FFF731FF8346FEF711FD5846BDE8F09F7A
:10329000A7F10806706820F0004000EB060ADFF88E
:1032A00004814046056801E0A8462D68554502D0D6
:1032B00028680028F8D16868A04227D96868001BF0
:1032C000102823D9554521D170682044706005EB42
:1032D00004096868001BC9F804002868C8F80000E1
:1032E0004846FFF7A3FE00202860BB46314800682F
:1032F000001B30490860084600682D49096888426B
:1033000017D22C4800682A49086012E0716821F041
:10331000004108390819FFF7E6FE8346284970681E
:1033200000EA01023946584601F078FE3846FFF7B8
:1033300042FFFEF7BBFC5846A8E72DE9F0410446E2
:103340004FF000080026771EFEF79DFD1548056822
:103350007DB10AE008F101086868B04200D96E68E2
:103360006868B84200D26F682D680F4800688542CF
:10337000F0D1FEF79BFC6660A760C4F80C8000F0FB
:103380005BF80C48006820600B48006860610B48DF
:103390000068A06106480068206100F05CF8BDE8A4
:1033A000F0810000540000205C0000209C010020FF
:1033B0006400002060000020680000206C000020F5
:1033C000F7FFFF7F00BFBF2080F31188BFF34F8F4F
:1033D000BFF36F8F00BF00BFFEE7001F4FF0807389
:1033E0000360001F21F001030360001F2D4B0360E9
:1033F000143802602038704700204FF0E021086147
:1034000088612948486107200861704710B527483E
:10341000006840F47F00254908600846006840F0D5
:103420007F400860FFF7E8FF002021490860FCF7B3
:103430009BFE002010BD704700BFBF2080F31188A5
:10344000BFF34F8FBFF36F8F00BF19480068401C58
:1034500017490860704716480068401E1449086004
:103460000846006820B9002080F3118800BF00BF23
:10347000704710B500BFBF2080F31188BFF34F8F96
:10348000BFF36F8F00BFFEF736FB20B14FF08050C7
:1034900006491C39086000BF002080F3118800BF76
:1034A00010BD0000C53300083F19010020ED00E009
:1034B000700000200CB50020019000906C4800685E
:1034C00040F480306A49086000BF6948006800F431
:1034D000003000900198401C0190009818B90198A4
:1034E000B0F5A06FF1D16248006800F4003010B16F
:1034F0000120009001E0002000900098012843D1B5
:103500005C48006840F010005A49086008460068AE
:1035100020F0030008600846006840F002000860E0
:103520005348406852494860084640684860084629
:10353000406840F4806048600846406820F47C1091
:1035400048600846406840F4E81048600846006853
:1035500040F08070086000BF4548006800F00070CF
:103560000028F9D04248406820F0030040494860F4
:103570000846406840F00200486000BF3C48406890
:1035800000F00C000828F9D10CBD10B5FFF792FF30
:1035900010BD10B53648006840F00100344908609D
:1035A0000846406834490840314948600846006888
:1035B000324908402E4908600846006820F48020FF
:1035C00008600846406820F4FE0048604FF41F0081
:1035D0008860FFF7DAFF4FF000602949086010BDEE
:1035E00010B5002100200022214B5B6803F00C0184
:1035F00021B1042906D0082928D107E0214B224C0B
:10360000236027E01F4B204C236023E0184B5B68AE
:1036100003F47010164B5B6803F48032022303EB53
:10362000904022B9194B4343174C23600DE0104BD7
:103630005B6803F4003323B1144B4343124C236003
:1036400003E0104B4343104C236003E00D4B0E4C42
:10365000236000BF00BF064B5B68C3F303130C4C31
:10366000E15C094B1B68CB40074C236010BD000098
:1036700000100240002002400000FFF8FFFFF6FEAD
:1036800008ED00E000127A007400002000093D00FF
:10369000780000200648804706480047FEE7FEE71E
:1036A000FEE7FEE7FEE7FEE7FEE7FEE7FEE7FEE7F2
:1036B000933500083101000810B586B00446012199
:1036C0008803FDF733F901210420FDF72FF91820B5
:1036D0008DF817004FF40070ADF8140003208DF83A
:1036E000160005A98648FCF765FE48208DF81700EE
:1036F0004FF48060ADF8140003208DF8160005A982
:103700007F48FCF757FE01940020ADF810000C2014
:10371000ADF80E000020ADF80C00ADF80A00ADF8D1
:103720000800012240F225517648FDF73EFA01A932
:103730007448FDF7A2F925208DF8000001208DF8CE
:1037400003008DF801008DF802006846FCF769FD62
:1037500001216C48FDF71DFA4FF4A060FCF75CFDF9
:1037600006B010BD10B586B0044601218804FDF7EF
:10377000EAF801210820FDF7D9F818208DF8170084
:103780004FF48060ADF8140003208DF8160005A9F1
:103790005D48FCF70FFE48208DF817004FF40060DD
:1037A000ADF8140003208DF8160005A95648FCF763
:1037B00001FE01940020ADF810000C20ADF80E00C1
:1037C0000020ADF80C00ADF80A00ADF808000122A9
:1037D00040F225514D48FDF7E8F901A94B48FDF7A6
:1037E0004CF927208DF8000001208DF803008DF89A
:1037F000010002208DF802006846FCF712FD01214D
:103800004248FDF7C6F94FF4A060FCF705FD4048BB
:1038100000F084F806B010BD10B5044600BF80214A
:103820003A48FDF791FA0028F9D021463748FDF7CC
:103830001DFA10BD70B505460E46002404E0285D53
:10384000FFF7EAFF601C84B2B442F8DB70BD10B52C
:1038500040F225512D48FDF78DFA012819D12B484A
:10386000FDF708FAC4B22B494869214600F086F8F2
:103870002648FDF7FFF9C4B22146274800F07EF83C
:1038800040F225512148FDF79FFA2249C86900F00E
:10389000CDFC10BD70B504460D460CE01D484169D5
:1038A000204600F082F8012800D170BD1949C8698E
:1038B000294600F0A3FCF1E72DE9F04104468846D3
:1038C00015461E4615B90020BDE8F081A06901F03B
:1038D000E7FB0746B74201DA0020F5E7A06900EBF5
:1038E00008013246284601F0CFFB0120ECE770B515
:1038F00004460D46E1B2002001F027F8204670BDD5
:103900000008014000380140000C01400048004020
:103910009C3D0020303F0020663E002010B504464C
:10392000002084F8C90084F8C800C821204601F0AE
:103930008EFB10BD014649B191F8C90091F8C8202D
:10394000904201D1012070470020FCE70020FAE7F7
:1039500010B5014681B191F8C800401CC82390FB06
:10396000F3F403FB1400C2B291F8C900904201D1F4
:10397000012010BD0020FCE70020FAE770B50446E6
:103980000D468CB12046FFF7E3FF01280CD094F8D8
:10399000C800255494F8C800401CC82190FBF1F2DF
:1039A00001FB120084F8C80070BD70B505460C46D6
:1039B00024B12046FFF7BEFF012801D1002070BDD1
:1039C00094F8C900205C287094F8C900401CC821F4
:1039D00090FBF1F201FB120084F8C9000120EEE730
:1039E0002DE9F04105460E46174618210120FFF744
:1039F0000BFC044614B90020BDE8F08129460120E3
:103A0000FFF702FC2060206820B92046FFF7D3FBB7
:103A10000020F1E76560267300206073676120462F
:103A2000EAE710B5044624B1206810B12068FFF71A
:103A3000C2FB1CB12046FFF7BEFB002410BD2DE9E0
:103A4000F04104460D4626684FF00008012724B1D6
:103A5000607BA84201DB002D02DC0020BDE8F08184
:103A600001270AE0BD4202D1B0464046F6E73046A3
:103A700001F016FB401C06447F1C607BB842F1DA63
:103A80000020EBE70FB4F8B504460D4600260027EA
:103A900029462046FFF7D3FF070003D1401EF8BC9C
:103AA0005DF814FB09A800903846009A089901F0C7
:103AB0000DFB0646002000903046F0E77047704747
:103AC00070472DE9F04704460E46154634B9FAA072
:103AD00002F062FA4FF0FF30BDE8F087002700E007
:103AE0007F1CAF42FCDB606B88B908210120FFF727
:103AF0008BFBA063A06B10B94FF0FF30ECE7A06B1D
:103B00004660A06B0560606B401C606336E04FF060
:103B10000008606B4FEAC0094846FFF7E4FA8046A8
:103B2000B8F1000F02D14FF0FF30D5E74A464046CA
:103B3000A16B01F073FA09F10801A06BFFF77FFB9D
:103B4000A063A06B28B94046FFF735FB4FF0FF306C
:103B5000C2E74A464146A06B01F060FAD4E90D1075
:103B600000EBC1004660D4E90D1040F83150606BA5
:103B7000401C60634046FFF71EFB00BF0020ABE720
:103B800010B50446D4A1204601F06CFA08B101201A
:103B900010BD0020FCE710B50446D1A1204601F07D
:103BA00061FA08B1002010BDC9A1204601F05AFAFF
:103BB00008B10120F7E7C8A1204601F053FA08B187
:103BC0000220F0E74FF0FF30EDE770B504460D46F8
:103BD0003CB325B325601820FFF785FAE060CA20C2
:103BE000FFF781FA60610820FFF77DFA606004202A
:103BF000FFF779FAE0610420FFF775FA2063606946
:103C0000FFF78CFE00226421206B00F02BFBE069A3
:103C100000F0E4FAE06900F0E9FA012070BD00204C
:103C2000FCE70020FAE710B504469CB1E068FFF716
:103C3000C2FA6069FFF7BFFA6068FFF7BCFAE06993
:103C4000FFF7B9FA206BFFF7B6FA2046FFF7B3FA91
:103C5000012010BD0020FCE72DE9F84F04464FF08D
:103C6000000B002700200090A06B28B99EA002F056
:103C700093F90020BDE8F88FD4F824B0D4F828A038
:103C8000002640E04FF0000937E0A06B00EBC600D3
:103C900000900098406809EB490100EB8107386803
:103CA00001F0FEF98046786801F0FAF9054608EB64
:103CB0000500504500DD1EE0B8F1000F09D0424676
:103CC0005846396801F0F3F908B901200FE00020E7
:103CD0000DE05DB10BEB0A02501B2A46796801F03A
:103CE000E6F908B9012002E0002000E0012008B157
:103CF0003846BFE700BF09F10109A06B50F8360054
:103D00004845C2DC761C606BB042BBDC0020B1E7EA
:103D10002DE9F04104460D4616461F4614B9012010
:103D2000BDE8F0813B4632462946204600F020F9A6
:103D300080464046F4E72DE9F04104460D4617461B
:103D4000002613E04FF0FF31E06900F057FA064615
:103D500016B13046BDE8F08101232A4600212046F5
:103D6000FFF7D6FF012801D10020F3E7EAE7F8B515
:103D7000044600250020009000260027E16A606AC2
:103D800001F065F90020A06232E04FF0FF32694691
:103D90002046FFF7D0FFE06AA84207DD9DF800202B
:103DA00028466D1C636A1A54A56200E001279DF83D
:103DB00000000A2801D10D2E0AD0207A20B1207AE5
:103DC0009DF80010884203D02046FFF745FF68B1F8
:103DD0005FB14948E16A02F0DFF8E16A606A01F028
:103DE00036F90020A062C01EF8BD02E09DF8006018
:103DF000CBE700BF2846F7E710B504463FA12046B1
:103E0000FFF7E3FE03223F492046FFF75AFE10BDAD
:103E10002DE9F04104460D461646002714B9781ED8
:103E2000BDE8F08100202074E5600DB1A8606873E2
:103E3000304601F035F980464146304600F088F8BA
:103E4000022131A000F084F84FF0FF31E06900F06A
:103E5000D5F93DB1207C28B131462CA002F09CF868
:103E60004FF0FF370020E060E06900F0D6F93846F7
:103E7000D6E79AB000246AE001A908194FF0FF3193
:103E800000F06EF8B4B1002101AA601C115427A102
:103E900001A801F0E7F820B111A002F07DF800249C
:103EA0004FE001A8FFF76CFE28B121A002F074F8E2
:103EB000002446E044E041E061745F6F626A5F7332
:103EC00065745F7572635F7461626C6520697320ED
:103ED0004552524F520D0A002B4950440000000039
:103EE0004F4B0D0A00000000757263206973204E6D
:103EF000554C4C0D0A00000094640008455350389E
:103F000032363600880000200D0A000065786563AF
:103F100075746520636F6D6D616E642028252E2A8F
:103F20007329206661696C65642100004F4B0000B5
:103F3000676574204950440D0A000000641C00E0CD
:103F4000641C642C00DB00240320FDF7D8FF93E7FA
:103F500070B505460C46A1B22846FFF76BFC70BD54
:103F600070B504460D4629462046FFF793FC70BD08
:103F70002DE9F04104460D4616461F463B463246A3
:103F800029462046FFF798FC80464046BDE8F08170
:103F90004BA002F001F80024002664220021142026
:103FA000FFF71EFD0446002C20D048A221464848B9
:103FB000FFF72EFF47A001F0EFFF01250FE0294694
:103FC0002046FFF73CFD060005D03246294645A0B5
:103FD00001F0E2FF02E048A001F0DEFF6D1C607B13
:103FE000A842ECDA14B12046FFF71BFD02E00320E3
:103FF000FDF785FFFBE71CB501244648012100239E
:104000004FF4FA72CDE9001043A1AFF27B00FDF747
:10401000CAFC0446012C03D142A001F0BDFF02E01E
:1040200048A001F0B9FF1CBD1CB501244E48012178
:1040300000238A02CDE900104CA15048FDF7B3FCE3
:104040000446012C03D14EA001F0A6FF02E055A0CA
:1040500001F0A2FF1CBD10B50446FFF7EDF94FF4C7
:10406000E130FFF729FB4FF4E130FFF77BFB4FF422
:10407000FA70FDF744FFFFF7EEF9FFF7DDF914489A
:10408000FFF7BAFEFFF7D0FFFFF7B5FF4F48006814
:10409000FDF7DAFCFFF7DFF910BD1CB501244B4832
:1040A000012100238A02CDE9001049A1AFF2590095
:1040B000FDF779FC0446012C01D1FEF785F91CBD02
:1040C00061745F746573740D0A0000004154000050
:1040D000303F00207265737020646174613A0D0A8C
:1040E000000000006C696E652025642062756666BC
:1040F0006572203A202573005061727365206C69E7
:104100006E6520627566666572206572726F7221D7
:1041100000000000B00000207461736B5F74657371
:1041200074000000646F5F6372656174655F74653D
:1041300073745F7461736B2069732063726561745B
:10414000650D0A00646F5F6372656174655F746515
:1041500073745F7461736B206973206E6F74206376
:1041600072656174650D0A00B400002072656376A3
:104170005F636D645F7461736B000000733E0008E1
:10418000646F5F6372656174655F70617273655FB0
:104190007461736B206973206372656174650D0AC5
:1041A00000000000646F5F6372656174655F706139
:1041B0007273655F7461736B206973206E6F742016
:1041C0006372656174650D0A00000000AC00002098
:1041D0007461736B5F7374617274000010B5044690
:1041E0000120FDF702F82060002010BD10B5044644
:1041F0004FF0FF312068FDF757F910BD70B5044648
:104200000D4629462068FDF74FF970BD10B50446EC
:1042100000212068FDF748F910BD10B504460023C1
:104220001A4619462068FCF747FF10BD10B5044632
:1042300012492068FDF747F800BF1048006838B100
:104240004FF080500E490860BFF34F8FBFF36F8F60
:1042500000BF012010BD10B504462068FDF7C3FA69
:10426000002010BD70B504460D461646314628465E
:10427000FCF7CCFF2060002070BD0000B8000020DB
:1042800004ED00E070B5FE4CA821204600F0DFFEF2
:10429000032020616061FBA0A061FD49E1614FF452
:1042A000806121620021A1626162E162F5A0206665
:1042B000F84961661021A16600212167E166616706
:1042C000002505E0C5F10F00F349085C60556D1C41
:1042D000102DF7D370BD2DE9F05F044689461746CF
:1042E0004FF0000AE56800BFD4F81080A84503D954
:1042F000A8EB0500461E04E0A5EB0800401CA168E1
:104300000E1AA068401BB04201D9304601E0A068F7
:10431000401B0646BE4201D2304600E03846064603
:10432000606800EB050B32464946584600F076FEC1
:10433000B244B144BF1B3544A068A84200D1002557
:10434000E560002FD0D15046BDE8F09F2DE9F04741
:10435000044689461546E668A068871BAF420AD91D
:10436000606800EB060A2A464946504600F056FEB1
:104370007019E06014E0B846606800EB060A424637
:104380004946504600F04AFEA5EB0708D4F804A0C1
:1043900009EB07014246504600F040FEC4F80C808D
:1043A000BDE8F08738B505460C46FF208DF80000C3
:1043B000BA48005D8DF80100022269462846FFF7E1
:1043C0008AFF38BD10B501460A69CB689A4204D805
:1043D0008C68641EE41AA01801E0D41A601E10BD97
:1043E0002DE9F74F82B083461746A548009000BFDD
:1043F0000098007808B9FFF745FF00BF0BEB4B01B1
:104400009F48183000EBC106DDF80C903569D6F8EE
:104410000CA04FF00008554517D9B068441BBC42AA
:1044200001D2204600E038460446706828440190D6
:1044300022464846019900F0F1FDA044A1443F1BEB
:104440002544B068A84200D10025AAEB0504BC426F
:1044500001D2204600E0384604465CB1706828442A
:10446000019022464846019900F0D8FDA044A1449D
:104470003F1B2544B8F1000F00D03561404605B020
:10448000BDE8F08F2DE9F74F82B0834617467C4890
:10449000009000BF0098007808B9FFF7F3FE00BF56
:1044A0000BEB4B017648603000EBC106DDF80C9059
:1044B0003569D6F80CA04FF00008554517D9B068FB
:1044C000441BBC4201D2204600E0384604467068D6
:1044D0002844019022464846019900F09FFDA044DF
:1044E000A1443F1B2544B068A84200D10025AAEB97
:1044F0000504BC4201D2204600E0384604465CB1C7
:1045000070682844019022464846019900F086FDD3
:10451000A044A1443F1B2544B8F1000F00D03561F1
:10452000404605B0BDE8F08F2DE9F04104460D4648
:104530001646EFF311808046202080F3118800BFDB
:1045400000BF324629462046FFF74AFF074608F0DB
:10455000FF0080F3118800BF00BF3846BDE8F0813E
:104560002DE9F04104460D461646EFF311808046D2
:10457000202080F3118800BF00BF32462946204624
:10458000FFF780FF074608F0FF0080F3118800BFA7
:1045900000BF3846BDE8F0812DE9F0470746884660
:1045A0001646C14607EB47013548183000EBC104F9
:1045B000D4E90301884202D1A068451E0EE0D4E987
:1045C0000301884204D22069E168401A451E05E0D3
:1045D0002069E168401A401EA1684518AE420CD916
:1045E0002069711B0844206103E02069A168401A1A
:1045F00020612069A1688842F7D2D4E90201451AF6
:1046000000BFB5420CD9E168606800EB010A324690
:104610004946504600F002FDE0683044E06010E09A
:10462000E168606800EB010A2A464946504600F0FE
:10463000F5FCA9440020E060761BA068451E002E12
:10464000DFD100BFBDE8F0872DE9F74F82B0834688
:104650001546039801900BEB4B010948183000EB0D
:10466000C104D4F81090E668B14541D8A068801B19
:10467000471EAF421FD300BF606800EB060A0FE081
:104680006C3F00205465726D696E616C0000000023
:1046900014400020144400203E640008BC000020A8
:1046A0002A465046019900F0B9FC7019E0600120DB
:1046B00005B0BDE8F08F4F44AF421FD3A068A0EB18
:1046C0000608606800EB060A42465046019900F071
:1046D000A5FCA5EB080545B1D4F804A0019800EBB2
:1046E00008012A46504600F099FCE5600120DFE70A
:1046F000A9EB0600471EAF4200D3BDE70020D7E775
:104700002DE9F047074688461646C24607EB4701A3
:10471000FB4800EBC109D9F8140020B1012811D0E1
:10472000022826D11EE04846FFF74CFE0546B5425A
:1047300001D2002405E03446324651464846FFF790
:1047400005FE18E04846FFF73DFE0546B54201D29A
:10475000284600E030460446224651464846FFF7C8
:10476000F5FD08E0324651464846FFF7B4FD0446E1
:1047700001E0002400BF00BF2046BDE8F0872DE91E
:10478000F047074688461646C24607EB4701DC4815
:10479000483800EBC109D9F8140020B1012811D024
:1047A000022826D11EE04846FFF70CFE0546B5421A
:1047B00001D2002405E03446324651464846FFF710
:1047C000C5FD18E04846FFF7FDFD0546B54201D29C
:1047D000284600E030460446224651464846FFF748
:1047E000B5FD08E0324651464846FFF774FD0446E1
:1047F00001E0002400BF00BF2046BDE8F0872DE99E
:10480000F04104460D461646BD4F603F00BF387864
:1048100008B9FFF737FD00BFEFF3118007462020EE
:1048200080F3118800BF00BF324629462046FFF7BB
:1048300067FF8046F8B280F3118800BF00BF404692
:10484000BDE8F0812DE9F04104460D461646AC4F17
:10485000603F00BF387808B9FFF714FD00BFEFF3E1
:1048600011800746202080F3118800BF00BF324628
:1048700029462046FFF783FF8046F8B280F311886F
:1048800000BF00BF4046BDE8F08170B505460C464C
:10489000204600F005FC0646324621462846FFF732
:1048A000D1FF70BDF0B503460C4603EB4307944EB1
:1048B000483E06EBC701CE68721C8E68964200D156
:1048C00000220E69964206D0CF684E68F5192C700A
:1048D000CA60012000E00020F0BD2DE9F047074646
:1048E0008846DFF81CA2AAF1600A00BF9AF800000F
:1048F00008B9FFF7C7FC00BFEFF31181084620217C
:1049000081F3118800BF00BF07EB47027C4948399B
:1049100001EBC204E1684D1CA168A94200D1002549
:104920002169A94208D0E268616801EB020989F8AF
:104930000080E560012600E00026C1B281F3118805
:1049400000BF00BF3046BDE8F0872DE9F0470746BD
:104950008846DFF8ACA1AAF1600A00BF9AF800000F
:1049600008B9FFF78FFC00BFEFF311810846202143
:1049700081F3118800BF00BF07EB47026049483947
:1049800001EBC204E1684D1CA168A94200D10025D9
:104990006169022903D100BF2169A942FCD02169C4
:1049A000A94208D0E268616801EB020989F8008039
:1049B000E560012600E00026C1B281F3118800BF46
:1049C00000BF3046BDE8F08738B5012269460020B7
:1049D000FFF7C6FD0446012C02D19DF8004001E01E
:1049E0004FF0FF34204638BD10B500BFFFF7ECFF95
:1049F0000028FBDB10BD2DE9F041414F603F00BFB7
:104A0000387808B9FFF73EFC00BF3D4C2669E068E6
:104A1000B04201D0012500E000252846BDE8F08124
:104A200010B5014601EB4104354800EBC402D368E0
:104A30001069181A10BD10B5014601EB4104304849
:104A4000483800EBC4021369D068C01A10BD2DE9C4
:104A5000F04706460F4690469946DFF8A4A0AAF113
:104A6000600A00BF9AF8000008B9FFF70BFC00BF0E
:104A7000EFF311810846202181F3118800BF00BFA8
:104A80001F4D603D002400BF04EB440205F16001AE
:104A900001EBC201496801B903E0641C6969A142E4
:104AA000F2DC00BF6969A1422CDD04EB440205F190
:104AB000600141F8326004EB440201EBC2014F6037
:104AC00004EB440205F1600101EBC201C1F808806A
:104AD000002204EB440305F1600101EBC3010A610C
:104AE00004EB440305F1600101EBC301CA6004EB70
:104AF000440205F1600101EBC201C1F8149003E02A
:104B0000CC3F00204FF0FF34C1B281F3118800BFC9
:104B100000BF2046BDE8F0872DE9F04706460F4666
:104B200090469946DFF810A400BF9AF8000008B933
:104B3000FFF7A8FB00BFEFF311810846202181F3A6
:104B4000118800BF00BFFC4D002400BF04EB4402ED
:104B500005F1180101EBC201496801B903E0641CC9
:104B60002969A142F2DC00BF2969A1422ADD04EBD8
:104B7000440205F1180141F8326004EB440201EBF4
:104B8000C2014F6004EB440205F1180101EBC201C0
:104B9000C1F80880002204EB440305F1180101EB81
:104BA000C3010A6104EB440305F1180101EBC301E1
:104BB000CA6004EB440205F1180101EBC201C1F81F
:104BC000149001E04FF0FF34C1B281F3118800BFAF
:104BD00000BF2046BDE8F0872DE9F05F05460F468F
:104BE00090469946DFF850B300BF9BF8000008B923
:104BF000FFF748FB00BFDFF840A3032D1FD2EFF300
:104C000011810846202181F3118800BF00BF05EB08
:104C100045020AF1180101EBC2043DB12760C4F856
:104C20000480C4F8089000212161E1600A99616163
:104C3000C1B281F3118800BF00BF002601E04FF030
:104C4000FF363046BDE8F09F2DE9F05F05460F4680
:104C500090469946DFF8E0B200BF9BF8000008B923
:104C6000FFF710FB00BFDFF8D0A2032D1FD2EFF338
:104C700011810846202181F3118800BF00BF05EB98
:104C800045020AF1600101EBC2043DB12760C4F89E
:104C90000480C4F8089000212161E1600A996161F3
:104CA000C1B281F3118800BF00BF002601E04FF0C0
:104CB000FF363046BDE8F09F2DE9F04704460E462A
:104CC000DFF8749200BF99F8000008B9FFF7DAFA2C
:104CD00000BF994F032C16D2EFF311810846202113
:104CE00081F3118800BF00BF04EB440207F11801F3
:104CF00001EBC208C8F80060C1B281F3118800BF9F
:104D000000BF002501E04FF0FF352846BDE8F087E1
:104D10002DE9F04704460E46DFF81C9200BF99F8D3
:104D2000000008B9FFF7AEFA00BF834F032C16D27C
:104D3000EFF311810846202181F3118800BF00BFE5
:104D400004EB440207F1600101EBC208C8F80060FF
:104D5000C1B281F3118800BF00BF002501E04FF010
:104D6000FF352846BDE8F0872DE9F04704460E469A
:104D7000DFF8C49100BF99F8000008B9FFF782FA84
:104D800000BF6D4F032C16D2EFF31181084620218E
:104D900081F3118800BF00BF04EB440207F1180142
:104DA00001EBC208C8F81460C1B281F3118800BFDA
:104DB00000BF002501E04FF0FF352846BDE8F08731
:104DC0002DE9F04704460E46DFF86C9100BF99F8D4
:104DD000000008B9FFF756FA00BF574F032C16D250
:104DE000EFF311810846202181F3118800BF00BF35
:104DF00004EB440207F1600101EBC208C8F814603B
:104E0000C1B281F3118800BF00BF002501E04FF05F
:104E1000FF352846BDE8F08710B5FFF733FA10BD1F
:104E20002DE9F8430446DFF8108100BF98F8000030
:104E300008B9FFF727FA00BF0027FF208DF8000010
:104E4000102C31D23D48005D8DF801003A4D1835E7
:104E5000EFF311808046202080F3118800BF00BF4F
:104E6000287D00F00300022807D135480470022293
:104E700069462846FFF72FFA0FE02846FFF7A2FA07
:104E80000646022E07D32E480470022269462846A1
:104E9000FFF75CFA01E04FF0FF3708F0FF0080F306
:104EA000118800BF00BF01E04FF0FF373846BDE872
:104EB000F8832DE9F04707468946DFF87CA000BF5C
:104EC0009AF8000008B9FFF7DDF900BF102F70DA7B
:104ED000DFF8648008F11808484600F0E1F806465B
:104EE000EFF311808246202080F3118800BF00BFBD
:104EF0004046FFF767FA054698F8140000F00300F3
:104F000020B101281ED0022847D136E0301D85424D
:104F100001D200240EE039464046FFF743FA3246FC
:104F200049464046FFF7D7F9044605480178404610
:104F3000FFF738FA34E000006C3F0020BC0000208E
:104F4000CC000020042D02D24FF0FF3414E039468B
:104F50004046FFF727FA281FB04201D9304600E04B
:104F6000281F024649464046FFF7B5F9044629483E
:104F700001784046FFF716FA12E039464046FFF73F
:104F800011FA324649464046FFF7A5F90446214842
:104F900001784046FFF706FA02E04FF0FF3400BF09
:104FA00000BF0AF0FF0080F3118800BF00BF02E0DD
:104FB000FFE74FF0FF342046BDE8F08770B50446A8
:104FC00004EB4401144800EBC1052846FFF7FAF949
:104FD00070BD70B50146104C183C01EB410604F160
:104FE000180505EBC6052A6901EB410604F1180511
:104FF00005EBC605EB689A4201D8981A08E001EB68
:10500000410604F1180505EBC605AD689E1AA81BFC
:1050100070BD0000CC000020843F002040EA010366
:105020009B0703D009E008C9121F08C0042AFAD25E
:1050300003E011F8013B00F8013B521EF9D2704722
:10504000D2B201E000F8012B491EFBD270470022CA
:10505000F6E710B513460A4604461946FFF7F0FF77
:10506000204610BD30B505462A460B4612F8010B06
:1050700013F8014B08B1A042F8D01CB1002802D0AF
:105080006D1CF1E7284630BD10B5044604E00B78EE
:1050900000F8013B03B1491C521EF8D2204610BD56
:1050A000421C10F8011B0029FBD1801A704730B553
:1050B00005460020034600E05B1C934205D2EC5CF1
:1050C000C85C201A01D1002CF6D130BD0FB400B558
:1050D0008DB010A909900B9000914FF0FF300A900D
:1050E00000200C9005480690054807906A4609A8DC
:1050F0000F9900F099FB0DB05DF814FB45580008BE
:10510000635800082DE9F05F0546002092469B4653
:1051100088460646814640241BE0284641464746CD
:10512000224600F0B2FC53465A46C01A914110D3B1
:1051300011461846224600F099FC2D1A67EB01082B
:105140004F4622460120002100F090FC17EB000999
:105150004E41201EA4F10104DFDC484631462A46B8
:105160004346BDE8F09F2DE9FF4F1C4681B000216A
:10517000D4E9016791464FF0FF358A468846A16918
:105180006D1C02988847216A834688470028F6D11B
:10519000BBF1FF3F0CD026F4C066002F1ADD70066D
:1051A00015D5BBF12B0F0AD0BBF12D0F0FD104E0A9
:1051B0004FF0FF3005B0BDE8F08F46F48066A1697E
:1051C0006D1C029888477F1E8346002F02DDBBF1CD
:1051D000300F03D0B9F1000F2AD025E0A1696D1C72
:1051E00046F400767F1E029888478346002F05DD2F
:1051F000BBF1780F06D0BBF1580F03D0B9F1000F07
:1052000010D011E0B9F1000F02D0B9F1100F0BD19D
:10521000A1696D1C26F400767F1E0298884783469C
:10522000102000E0082081464FEAE970009017E066
:105230000A20F8E74346AAFB092803FB0980DDF8AA
:1052400000C07F1E0AFB0C0112EB0B0A41EBEB784E
:10525000A16946F4007605F1010502988847834666
:10526000002F06DD4946584600F024FC5FEA000B9B
:10527000E0D5E16902988847B00502D46FF00100DB
:1052800098E7F00718D1700610D57005514605D57E
:105290000023D1EB030163EB080200E042462068E3
:1052A000031D23600068C0E9001205E02068011DAD
:1052B00021600068C0E900A828467BE72DE9FF5F70
:1052C0001D464FF0FF3BD5E9014691465F464FF042
:1052D0000008A9697F1C01988847296A8246884787
:1052E0000028F6D1BAF1FF3F0CD024F4C064002EA0
:1052F00019DD600614D5BAF12B0F09D0BAF12D0FC4
:105300000ED103E0584604B0BDE8F09F44F4806439
:10531000A9697F1C01988847761E8246002E02DD0F
:10532000BAF1300F03D0B9F1000F26D032E0A969ED
:10533000761E44F400747F1C019888478246002E34
:1053400005DDBAF1780F06D0BAF1580F03D0B9F1E4
:10535000000F10D01EE0B9F1000F02D0B9F1100F0C
:1053600018D1A969761E24F400747F1C019888471F
:105370008246102002E0082000E00A20814609E071
:1053800008FB0908A969761E44F400747F1C019883
:1053900088478246002E05DD4946504600F08AFBCC
:1053A0000028EDDAE96901988847A00502D46FF07A
:1053B0000100A8E7E00725D1600613D5600502D5F6
:1053C000C8F1000000E0404629680A1D2A6009680B
:1053D000220501D5087015E0220701D5088011E0EB
:1053E00008600FE02868011D29600068210502D5CA
:1053F00080F8008006E0210702D5A0F8008001E0D7
:10540000C0F8008038467EE72DE9FF5FD2E901A7AA
:105410004FF00008916999461446DDF838B04646C9
:1054200001988847054659EA0B0005D009E0A169B3
:10543000761C019888470546216A28468847002837
:10544000F5D1681C03D05FEACA7005D015E04FF0B3
:10545000FF3004B0BDE8F09F2068011D2160D0F846
:1054600000800AE05FEACA7001D108F8015BA16917
:10547000761C7F1E019888470546002F1ADD681CA0
:1054800018D0B9F1000F0DD0E81705EBD06042112C
:1054900020F01F0059F822102A1A012090400142E2
:1054A000E0D107E0BBF1000FDCD1216A2846884734
:1054B0000028D7D0E169019888470AF0010050EA36
:1054C0000B0002D1002188F80010A068B84203DD6B
:1054D000BBF1000F03D017B16FF00100B9E7304600
:1054E000B7E700002DE9FF4F087881B09946FF2803
:1054F00005D0491C2D2804D00024002308E00023F7
:105500000BE00124F9E703EB830300EB4303491CA1
:105510000878FF28F7D104B15B420020009014788E
:1055200001462D2C01D02B2C04D1521C2D2C12D035
:105530000024009400251678FF2E0ED00A24A0FB2C
:1055400004C801FB0481002700FB0711521C16EB65
:105550000C006941EFE70124EBE7994450EA0102AE
:105560000ED00024AA4D2646DFF8A88200F09FFC4A
:1055700082468B46B9F1000009DAC9F100071BE049
:1055800001980021C0E9001105B0BDE8F08F074681
:1055900012E0F80707D022462B463046414600F07D
:1055A00071F90646884622462B461046194600F0F9
:1055B00069F904460D467F10002FEAD1B9F1000FBA
:1055C000324643465046594602DA00F0CDF901E032
:1055D00000F058F9009A0AB181F00041019AC2E93D
:1055E0000001D1E72DE9FF4F1F468DB0D7E90146F5
:1055F0004FF0FF382E2045464FF000090B90B96957
:105600006D1C0E988847396A824688470028F6D173
:10561000BAF1FF3F0AD024F4D064002E11DDBAF1B4
:105620002B0F08D0BAF12D0F0BD102E0404611B07C
:10563000ABE744F48064B9696D1C0E9888478246D4
:10564000761E6946600501D52D2000E02B208DF8DF
:10565000000001F1010B0DF1200809E0B9696D1C92
:105660000E98884782460F9844F40074761E0560B1
:10567000002E02DDBAF1300FF0D00B998A453ED1F1
:1056800044F0800406E00F99681CA9F1010944F474
:1056900000740860B9696D1C761E0E9888478246B2
:1056A0003028F0D02BE00B998A4505D1200603D491
:1056B00044F08004761E18E0504600F08CFC08B3DD
:1056C0000DF11301761E44F400748B4508D2AAF143
:1056D00030000BF8010B200607D5A9F1010003E00B
:1056E000200602D409F101008146A00502D50F99D8
:1056F000681C0860B9696D1C0E9888478246002EA8
:10570000D1DC53E0002E51DDBAF1650F02D0BAF1C1
:10571000450F4BD1A00549D5B9696D1C24F44074DF
:10572000761E0E9888478246002E0CDD2B2804D06A
:10573000BAF12D0F07D144F48074B9696D1C0E982D
:1057400088478246761EE00501D52D2100E02B21F9
:1057500008F8011BCDF82C8021E00DF12901761EFF
:1057600044F4007488450CD2AAF1300010F0FF0018
:1057700088F8000002D10B99884509D908F1010881
:1057800006E0E00501D5244801E042F20F708146B1
:10579000B9696D1C0E98884782460F980560002EE7
:1057A00004DD504600F017FC0028D6D1F9690E98A8
:1057B0008847FF208BF8000088F800000020069042
:1057C00007904B466A4608A906A8FFF78BFEA0057E
:1057D00002D46FF001002AE714F0240F0AD0E0078A
:1057E00014D1DDE906123868031D3B600068C0E98A
:1057F00000120BE0DDE9060100F065FB0146E00761
:1058000004D13868021D3A600068016028460EE73E
:10581000000024400000F03FF1D8FFFF026811446F
:105820001378016018467047D160044951610449FA
:10583000116200211161114600F04AB91D5800089B
:10584000AB5A0008426842B1016811F8013B23B12C
:10585000521EC0E90012184670470121C160881E1F
:10586000704742685AB1C368016843B983688B4284
:1058700005D0491E521CC0E90012002070474FF0AD
:10588000FF3070472DE9FE4F81EA030404F0004425
:1058900021F0004100944FF0000B23F0004350EA48
:1058A00001045ED052EA03045BD0C3F30A54C1F38F
:1058B0000A552C44A4F2F3340194A0FB0254C1F322
:1058C000130141F48011C3F3130343F4801301FB6C
:1058D000024400FB034E840A970A44EA815447EAD3
:1058E0008357A4FB076802958D0A05FB07854FEADD
:1058F000932C04FB0C542705029D4FEA065847EAF7
:105900001637B5EB08056EEB070C870E920E47EACB
:10591000811742EA8312A7FB0201B6EB0B0164EB8D
:1059200000042B0D43EA0C335E1844EB1C50DA469E
:105930005146E7FB0201C5F313044FEA0B3343EA78
:1059400014534FEA0432019C43EA0603A4F10C0409
:105950000294009CCDE900B400F05BFA03B0BDE80E
:10596000F08F00200146F9E72DE9F04D81EA0304AC
:1059700004F0004B21F0004514464FF0000A23F0DC
:10598000004150EA050220D054EA01021DD0C5F3BF
:105990000A570246C5F31303C1F31300C1F30A56B5
:1059A00040F4801543F48013A7EB0608101BD6467D
:1059B00008F2FD3873EB050002D308F1010801E09D
:1059C00092185B41B8F1000F03DA00200146BDE8F0
:1059D000F08D00204FF48011064684460EE0171B20
:1059E00073EB050705D3121B63EB050306434CEA73
:1059F000010C49084FEA300092185B4150EA010758
:105A0000EDD152EA030012D082EA040083EA0501D4
:105A1000084305D0101BAB4106D20122002306E04B
:105A200000224FF0004302E06FF0010253101AEB26
:105A300006004CEB085110EB0A0041EB0B01BDE8EE
:105A4000F04D00F0D9B90000064C074D06E0E068C3
:105A500040F0010394E8070098471034AC42F6D3B5
:105A6000FAF76AFBEC6400080C650008202A04DBE6
:105A7000203A00FA02F1002070479140C2F1200361
:105A800020FA03F3194390407047202A04DB203AA0
:105A900021FA02F00021704721FA02F3D040C2F14E
:105AA00020029140084319467047C0B24FF4F051AC
:105AB00000F026BA3A2800D2303820F02002412ADD
:105AC00001D3A2F13700884201D34FF0FF30704775
:105AD0002DE9F34F8BB04FF0000801F10C000C469C
